{
	"data": {
		"bytecode": {
			"linkReferences": {},
			"object": "60806040526040518060400160405280600281526020017f2f2f0000000000000000000000000000000000000000000000000000000000008152506007908051906020019062000051929190620001f4565b503480156200005f57600080fd5b506040518060400160405280600a81526020017f316f6e3120546f6b656e000000000000000000000000000000000000000000008152506040518060400160405280600381526020017f4f4f5400000000000000000000000000000000000000000000000000000000008152508160009080519060200190620000e4929190620001f4565b508060019080519060200190620000fd929190620001f4565b50505062000120620001146200012660201b60201c565b6200012e60201b60201c565b62000309565b600033905090565b6000600660009054906101000a900473ffffffffffffffffffffffffffffffffffffffff16905081600660006101000a81548173ffffffffffffffffffffffffffffffffffffffff021916908373ffffffffffffffffffffffffffffffffffffffff1602179055508173ffffffffffffffffffffffffffffffffffffffff168173ffffffffffffffffffffffffffffffffffffffff167f8be0079c531659141344cd1fd0a4f28419497f9722a3daafe3b4186f6b6457e060405160405180910390a35050565b8280546200020290620002a4565b90600052602060002090601f01602090048101928262000226576000855562000272565b82601f106200024157805160ff191683800117855562000272565b8280016001018555821562000272579182015b828111156200027157825182559160200191906001019062000254565b5b50905062000281919062000285565b5090565b5b80821115620002a057600081600090555060010162000286565b5090565b60006002820490506001821680620002bd57607f821691505b60208210811415620002d457620002d3620002da565b5b50919050565b7f4e487b7100000000000000000000000000000000000000000000000000000000600052602260045260246000fd5b61557480620003196000396000f3fe608060405234801561001057600080fd5b50600436106101585760003560e01c80638da5cb5b116100c3578063c87b56dd1161007c578063c87b56dd146103ad578063d5c78a28146103dd578063e0f23eeb1461040d578063e284e8401461043d578063e985e9c51461046d578063f2fde38b1461049d57610158565b80638da5cb5b1461030157806395d89b411461031f578063a22cb4651461033d578063b609ac6114610359578063b88d4fde14610375578063c57eeb281461039157610158565b806331b6475c1161011557806331b6475c1461022f57806342842e0e1461024b57806360862bb5146102675780636352211e1461029757806370a08231146102c7578063715018a6146102f757610158565b806301ffc9a71461015d57806306fdde031461018d578063081812fc146101ab578063095ea7b3146101db5780630aebeb4e146101f757806323b872dd14610213575b600080fd5b61017760048036038101906101729190613881565b6104b9565b6040516101849190614357565b60405180910390f35b61019561059b565b6040516101a29190614372565b60405180910390f35b6101c560048036038101906101c091906139a4565b61062d565b6040516101d291906142f0565b60405180910390f35b6101f560048036038101906101f09190613814565b610673565b005b610211600480360381019061020c91906139a4565b61078b565b005b61022d600480360381019061022891906136fe565b6109b7565b005b610249600480360381019061024491906138db565b610a17565b005b610265600480360381019061026091906136fe565b610b6b565b005b610281600480360381019061027c91906139a4565b610b8b565b60405161028e91906145b4565b60405180910390f35b6102b160048036038101906102ac91906139a4565b610bfb565b6040516102be91906142f0565b60405180910390f35b6102e160048036038101906102dc9190613664565b610c82565b6040516102ee91906145b4565b60405180910390f35b6102ff610d3a565b005b610309610d4e565b60405161031691906142f0565b60405180910390f35b610327610d78565b6040516103349190614372565b60405180910390f35b610357600480360381019061035291906137d4565b610e0a565b005b610373600480360381019061036e91906139a4565b610e20565b005b61038f600480360381019061038a9190613751565b611070565b005b6103ab60048036038101906103a691906139d1565b6110d2565b005b6103c760048036038101906103c291906139a4565b611237565b6040516103d49190614372565b60405180910390f35b6103f760048036038101906103f291906139a4565b611583565b6040516104049190614357565b60405180910390f35b610427600480360381019061042291906139a4565b6115f6565b60405161043491906145b4565b60405180910390f35b610457600480360381019061045291906139a4565b611666565b60405161046491906145b4565b60405180910390f35b610487600480360381019061048291906136be565b6117cc565b6040516104949190614357565b60405180910390f35b6104b760048036038101906104b29190613664565b611860565b005b60007f80ac58cd000000000000000000000000000000000000000000000000000000007bffffffffffffffffffffffffffffffffffffffffffffffffffffffff1916827bffffffffffffffffffffffffffffffffffffffffffffffffffffffff1916148061058457507f5b5e139f000000000000000000000000000000000000000000000000000000007bffffffffffffffffffffffffffffffffffffffffffffffffffffffff1916827bffffffffffffffffffffffffffffffffffffffffffffffffffffffff1916145b806105945750610593826118e4565b5b9050919050565b6060600080546105aa906149c4565b80601f01602080910402602001604051908101604052809291908181526020018280546105d6906149c4565b80156106235780601f106105f857610100808354040283529160200191610623565b820191906000526020600020905b81548152906001019060200180831161060657829003601f168201915b5050505050905090565b60006106388261194e565b6004600083815260200190815260200160002060009054906101000a900473ffffffffffffffffffffffffffffffffffffffff169050919050565b600061067e82610bfb565b90508073ffffffffffffffffffffffffffffffffffffffff168373ffffffffffffffffffffffffffffffffffffffff1614156106ef576040517f08c379a00000000000000000000000000000000000000000000000000000000081526004016106e6906144f4565b60405180910390fd5b8073ffffffffffffffffffffffffffffffffffffffff1661070e611999565b73ffffffffffffffffffffffffffffffffffffffff16148061073d575061073c81610737611999565b6117cc565b5b61077c576040517f08c379a000000000000000000000000000000000000000000000000000000000815260040161077390614514565b60405180910390fd5b61078683836119a1565b505050565b61079481611a5a565b6107d3576040517f08c379a00000000000000000000000000000000000000000000000000000000081526004016107ca90614554565b60405180910390fd5b3373ffffffffffffffffffffffffffffffffffffffff163073ffffffffffffffffffffffffffffffffffffffff16636352211e836040518263ffffffff1660e01b815260040161082391906145b4565b60206040518083038186803b15801561083b57600080fd5b505afa15801561084f573d6000803e3d6000fd5b505050506040513d601f19601f820116820180604052508101906108739190613691565b73ffffffffffffffffffffffffffffffffffffffff16146108c9576040517f08c379a00000000000000000000000000000000000000000000000000000000081526004016108c090614574565b60405180910390fd5b3073ffffffffffffffffffffffffffffffffffffffff1663d5c78a28826040518263ffffffff1660e01b815260040161090291906145b4565b60206040518083038186803b15801561091a57600080fd5b505afa15801561092e573d6000803e3d6000fd5b505050506040513d601f19601f820116820180604052508101906109529190613854565b610991576040517f08c379a000000000000000000000000000000000000000000000000000000000815260040161098890614594565b60405180910390fd5b42600c82815481106109a6576109a5614afd565b5b906000526020600020018190555050565b6109c86109c2611999565b82611a9b565b610a07576040517f08c379a00000000000000000000000000000000000000000000000000000000081526004016109fe90614394565b60405180910390fd5b610a12838383611b30565b505050565b60006008805490509050610a2b3382611e2a565b6008888890918060018154018082558091505060019003906000526020600020016000909192909192909192909192509190610a6892919061344e565b506009868690918060018154018082558091505060019003906000526020600020016000909192909192909192909192509190610aa692919061344e565b50600a848490918060018154018082558091505060019003906000526020600020016000909192909192909192909192509190610ae492919061344e565b50600d829080600181540180825580915050600190039060005260206000200160009091909190915055600c60009080600181540180825580915050600190039060005260206000200160009091909190915055600b4290806001815401808255809150506001900390600052602060002001600090919091909150555050505050505050565b610b8683838360405180602001604052806000815250611070565b505050565b6000610b9682611a5a565b610bd5576040517f08c379a0000000000000000000000000000000000000000000000000000000008152600401610bcc90614554565b60405180910390fd5b600b8281548110610be957610be8614afd565b5b90600052602060002001549050919050565b600080610c0783611e48565b9050600073ffffffffffffffffffffffffffffffffffffffff168173ffffffffffffffffffffffffffffffffffffffff161415610c79576040517f08c379a0000000000000000000000000000000000000000000000000000000008152600401610c70906144d4565b60405180910390fd5b80915050919050565b60008073ffffffffffffffffffffffffffffffffffffffff168273ffffffffffffffffffffffffffffffffffffffff161415610cf3576040517f08c379a0000000000000000000000000000000000000000000000000000000008152600401610cea90614474565b60405180910390fd5b600360008373ffffffffffffffffffffffffffffffffffffffff1673ffffffffffffffffffffffffffffffffffffffff168152602001908152602001600020549050919050565b610d42611e85565b610d4c6000611f03565b565b6000600660009054906101000a900473ffffffffffffffffffffffffffffffffffffffff16905090565b606060018054610d87906149c4565b80601f0160208091040260200160405190810160405280929190818152602001828054610db3906149c4565b8015610e005780601f10610dd557610100808354040283529160200191610e00565b820191906000526020600020905b815481529060010190602001808311610de357829003601f168201915b5050505050905090565b610e1c610e15611999565b8383611fc9565b5050565b610e2981611a5a565b610e68576040517f08c379a0000000000000000000000000000000000000000000000000000000008152600401610e5f90614554565b60405180910390fd5b3373ffffffffffffffffffffffffffffffffffffffff163073ffffffffffffffffffffffffffffffffffffffff16636352211e836040518263ffffffff1660e01b8152600401610eb891906145b4565b60206040518083038186803b158015610ed057600080fd5b505afa158015610ee4573d6000803e3d6000fd5b505050506040513d601f19601f82011682018060405250810190610f089190613691565b73ffffffffffffffffffffffffffffffffffffffff1614610f5e576040517f08c379a0000000000000000000000000000000000000000000000000000000008152600401610f5590614574565b60405180910390fd5b3073ffffffffffffffffffffffffffffffffffffffff1663d5c78a28826040518263ffffffff1660e01b8152600401610f9791906145b4565b60206040518083038186803b158015610faf57600080fd5b505afa158015610fc3573d6000803e3d6000fd5b505050506040513d601f19601f82011682018060405250810190610fe79190613854565b611026576040517f08c379a000000000000000000000000000000000000000000000000000000000815260040161101d90614534565b60405180910390fd5b6000600c828154811061103c5761103b614afd565b5b906000526020600020018190555042600b828154811061105f5761105e614afd565b5b906000526020600020018190555050565b61108161107b611999565b83611a9b565b6110c0576040517f08c379a00000000000000000000000000000000000000000000000000000000081526004016110b790614394565b60405180910390fd5b6110cc84848484612136565b50505050565b6110db82611a5a565b61111a576040517f08c379a000000000000000000000000000000000000000000000000000000000815260040161111190614554565b60405180910390fd5b3373ffffffffffffffffffffffffffffffffffffffff163073ffffffffffffffffffffffffffffffffffffffff16636352211e846040518263ffffffff1660e01b815260040161116a91906145b4565b60206040518083038186803b15801561118257600080fd5b505afa158015611196573d6000803e3d6000fd5b505050506040513d601f19601f820116820180604052508101906111ba9190613691565b73ffffffffffffffffffffffffffffffffffffffff1614611210576040517f08c379a000000000000000000000000000000000000000000000000000000000815260040161120790614574565b60405180910390fd5b80600d838154811061122557611224614afd565b5b90600052602060002001819055505050565b606061124282611a5a565b611281576040517f08c379a000000000000000000000000000000000000000000000000000000000815260040161127890614554565b60405180910390fd5b6000600a838154811061129757611296614afd565b5b9060005260206000200180546112ac906149c4565b80601f01602080910402602001604051908101604052809291908181526020018280546112d8906149c4565b80156113255780601f106112fa57610100808354040283529160200191611325565b820191906000526020600020905b81548152906001019060200180831161130857829003601f168201915b5050505050905060006007805461133b906149c4565b80601f0160208091040260200160405190810160405280929190818152602001828054611367906149c4565b80156113b45780601f10611389576101008083540402835291602001916113b4565b820191906000526020600020905b81548152906001019060200180831161139757829003601f168201915b505050505090506000600d85815481106113d1576113d0614afd565b5b906000526020600020015490506000600886815481106113f4576113f3614afd565b5b9060005260206000200160405160200161140e919061417b565b604051602081830303815290604052905060006009878154811061143557611434614afd565b5b9060005260206000200160405160200161144f91906140a0565b604051602081830303815290604052905060006114fe6114f98787873073ffffffffffffffffffffffffffffffffffffffff1663d5c78a288e6040518263ffffffff1660e01b81526004016114a491906145b4565b60206040518083038186803b1580156114bc57600080fd5b505afa1580156114d0573d6000803e3d6000fd5b505050506040513d601f19601f820116820180604052508101906114f49190613854565b612192565b612572565b60405160200161150e9190614296565b6040516020818303038152906040529050600083838360405160200161153693929190614202565b6040516020818303038152906040529050600061155282612572565b604051602001611562919061425f565b60405160208183030381529060405290508098505050505050505050919050565b600061158e82611a5a565b6115cd576040517f08c379a00000000000000000000000000000000000000000000000000000000081526004016115c490614554565b60405180910390fd5b600c82815481106115e1576115e0614afd565b5b90600052602060002001546000109050919050565b600061160182611a5a565b611640576040517f08c379a000000000000000000000000000000000000000000000000000000000815260040161163790614554565b60405180910390fd5b600c828154811061165457611653614afd565b5b90600052602060002001549050919050565b600061167182611a5a565b6116b0576040517f08c379a00000000000000000000000000000000000000000000000000000000081526004016116a790614554565b60405180910390fd5b3373ffffffffffffffffffffffffffffffffffffffff163073ffffffffffffffffffffffffffffffffffffffff16636352211e846040518263ffffffff1660e01b815260040161170091906145b4565b60206040518083038186803b15801561171857600080fd5b505afa15801561172c573d6000803e3d6000fd5b505050506040513d601f19601f820116820180604052508101906117509190613691565b73ffffffffffffffffffffffffffffffffffffffff16146117a6576040517f08c379a000000000000000000000000000000000000000000000000000000000815260040161179d90614574565b60405180910390fd5b600d82815481106117ba576117b9614afd565b5b90600052602060002001549050919050565b6000600560008473ffffffffffffffffffffffffffffffffffffffff1673ffffffffffffffffffffffffffffffffffffffff16815260200190815260200160002060008373ffffffffffffffffffffffffffffffffffffffff1673ffffffffffffffffffffffffffffffffffffffff16815260200190815260200160002060009054906101000a900460ff16905092915050565b611868611e85565b600073ffffffffffffffffffffffffffffffffffffffff168173ffffffffffffffffffffffffffffffffffffffff1614156118d8576040517f08c379a00000000000000000000000000000000000000000000000000000000081526004016118cf906143d4565b60405180910390fd5b6118e181611f03565b50565b60007f01ffc9a7000000000000000000000000000000000000000000000000000000007bffffffffffffffffffffffffffffffffffffffffffffffffffffffff1916827bffffffffffffffffffffffffffffffffffffffffffffffffffffffff1916149050919050565b61195781611a5a565b611996576040517f08c379a000000000000000000000000000000000000000000000000000000000815260040161198d906144d4565b60405180910390fd5b50565b600033905090565b816004600083815260200190815260200160002060006101000a81548173ffffffffffffffffffffffffffffffffffffffff021916908373ffffffffffffffffffffffffffffffffffffffff160217905550808273ffffffffffffffffffffffffffffffffffffffff16611a1483610bfb565b73ffffffffffffffffffffffffffffffffffffffff167f8c5be1e5ebec7d5bd14f71427d1e84f3dd0314c0f7b2291e5b200ac8c7c3b92560405160405180910390a45050565b60008073ffffffffffffffffffffffffffffffffffffffff16611a7c83611e48565b73ffffffffffffffffffffffffffffffffffffffff1614159050919050565b600080611aa783610bfb565b90508073ffffffffffffffffffffffffffffffffffffffff168473ffffffffffffffffffffffffffffffffffffffff161480611ae95750611ae881856117cc565b5b80611b2757508373ffffffffffffffffffffffffffffffffffffffff16611b0f8461062d565b73ffffffffffffffffffffffffffffffffffffffff16145b91505092915050565b8273ffffffffffffffffffffffffffffffffffffffff16611b5082610bfb565b73ffffffffffffffffffffffffffffffffffffffff1614611ba6576040517f08c379a0000000000000000000000000000000000000000000000000000000008152600401611b9d906143f4565b60405180910390fd5b600073ffffffffffffffffffffffffffffffffffffffff168273ffffffffffffffffffffffffffffffffffffffff161415611c16576040517f08c379a0000000000000000000000000000000000000000000000000000000008152600401611c0d90614434565b60405180910390fd5b611c23838383600161270a565b8273ffffffffffffffffffffffffffffffffffffffff16611c4382610bfb565b73ffffffffffffffffffffffffffffffffffffffff1614611c99576040517f08c379a0000000000000000000000000000000000000000000000000000000008152600401611c90906143f4565b60405180910390fd5b6004600082815260200190815260200160002060006101000a81549073ffffffffffffffffffffffffffffffffffffffff02191690556001600360008573ffffffffffffffffffffffffffffffffffffffff1673ffffffffffffffffffffffffffffffffffffffff168152602001908152602001600020600082825403925050819055506001600360008473ffffffffffffffffffffffffffffffffffffffff1673ffffffffffffffffffffffffffffffffffffffff16815260200190815260200160002060008282540192505081905550816002600083815260200190815260200160002060006101000a81548173ffffffffffffffffffffffffffffffffffffffff021916908373ffffffffffffffffffffffffffffffffffffffff160217905550808273ffffffffffffffffffffffffffffffffffffffff168473ffffffffffffffffffffffffffffffffffffffff167fddf252ad1be2c89b69c2b068fc378daa952ba7f163c4a11628f55a4df523b3ef60405160405180910390a4611e258383836001612830565b505050565b611e44828260405180602001604052806000815250612836565b5050565b60006002600083815260200190815260200160002060009054906101000a900473ffffffffffffffffffffffffffffffffffffffff169050919050565b611e8d611999565b73ffffffffffffffffffffffffffffffffffffffff16611eab610d4e565b73ffffffffffffffffffffffffffffffffffffffff1614611f01576040517f08c379a0000000000000000000000000000000000000000000000000000000008152600401611ef8906144b4565b60405180910390fd5b565b6000600660009054906101000a900473ffffffffffffffffffffffffffffffffffffffff16905081600660006101000a81548173ffffffffffffffffffffffffffffffffffffffff021916908373ffffffffffffffffffffffffffffffffffffffff1602179055508173ffffffffffffffffffffffffffffffffffffffff168173ffffffffffffffffffffffffffffffffffffffff167f8be0079c531659141344cd1fd0a4f28419497f9722a3daafe3b4186f6b6457e060405160405180910390a35050565b8173ffffffffffffffffffffffffffffffffffffffff168373ffffffffffffffffffffffffffffffffffffffff161415612038576040517f08c379a000000000000000000000000000000000000000000000000000000000815260040161202f90614454565b60405180910390fd5b80600560008573ffffffffffffffffffffffffffffffffffffffff1673ffffffffffffffffffffffffffffffffffffffff16815260200190815260200160002060008473ffffffffffffffffffffffffffffffffffffffff1673ffffffffffffffffffffffffffffffffffffffff16815260200190815260200160002060006101000a81548160ff0219169083151502179055508173ffffffffffffffffffffffffffffffffffffffff168373ffffffffffffffffffffffffffffffffffffffff167f17307eab39ab6107e8899845ad3d59bd9653f200f220920489ca2b5937696c31836040516121299190614357565b60405180910390a3505050565b612141848484611b30565b61214d84848484612891565b61218c576040517f08c379a0000000000000000000000000000000000000000000000000000000008152600401612183906143b4565b60405180910390fd5b50505050565b606060006121a08686612a28565b90506000600a856121b19190614688565b905060006121cd60405180602001604052806000815250612b07565b905060005b83518110156123505760008482815181106121f0576121ef614afd565b5b602002602001015190506122496122448461223f6040518060400160405280601181526020017f3c747370616e20783d2232302220793d22000000000000000000000000000000815250612b07565b612b35565b612b07565b925061226d6122688461226361225e88612be3565b612b07565b612b35565b612b07565b92506122be6122b9846122b46040518060400160405280600281526020017f223e000000000000000000000000000000000000000000000000000000000000815250612b07565b612b35565b612b07565b92506122da6122d5846122d084612b07565b612b35565b612b07565b925061232b612326846123216040518060400160405280600881526020017f3c2f747370616e3e000000000000000000000000000000000000000000000000815250612b07565b612b35565b612b07565b925060028461233a9190614880565b935050808061234890614a27565b9150506121d2565b50600061235c82612cbb565b60405160200161236c91906141d5565b6040516020818303038152906040529050600061238888612be3565b60405160200161239891906142c3565b604051602081830303815290604052905060006040516020016123ba90614281565b604051602081830303815290604052905087156123f2576040516020016123e09061412e565b60405160208183030381529060405290505b600088612434576040518060400160405280600781526020017f233165393066660000000000000000000000000000000000000000000000000081525061246b565b6040518060400160405280600781526020017f23336362333731000000000000000000000000000000000000000000000000008152505b90506000896124af576040518060400160405280600781526020017f23303062666666000000000000000000000000000000000000000000000000008152506124e6565b6040518060400160405280600781526020017f23366663666166000000000000000000000000000000000000000000000000008152505b90506000826040516020016124fb919061414e565b604051602081830303815290604052905060008260405160200161251f91906141a8565b604051602081830303815290604052905060008683838a8960405160200161254b9594939291906140cd565b6040516020818303038152906040529050809b505050505050505050505050949350505050565b6060600082519050600081141561259b5760405180602001604052806000815250915050612705565b600060036002836125ac9190614688565b6125b691906146de565b60046125c29190614880565b905060006020826125d39190614688565b67ffffffffffffffff8111156125ec576125eb614b2c565b5b6040519080825280601f01601f19166020018201604052801561261e5781602001600182028036833780820191505090505b50905060006040518060600160405280604081526020016154ff604091399050600181016020830160005b868110156126c25760038101905062ffffff818a015116603f8160121c168401518060081b905060ff603f83600c1c1686015116810190508060081b905060ff603f8360061c1686015116810190508060081b905060ff603f831686015116810190508060e01b90508084526004840193505050612649565b5060038606600181146126dc57600281146126ec576126f7565b613d3d60f01b60028303526126f7565b603d60f81b60018303525b508484525050819450505050505b919050565b600181111561282a57600073ffffffffffffffffffffffffffffffffffffffff168473ffffffffffffffffffffffffffffffffffffffff161461279e5780600360008673ffffffffffffffffffffffffffffffffffffffff1673ffffffffffffffffffffffffffffffffffffffff168152602001908152602001600020600082825461279691906148da565b925050819055505b600073ffffffffffffffffffffffffffffffffffffffff168373ffffffffffffffffffffffffffffffffffffffff16146128295780600360008573ffffffffffffffffffffffffffffffffffffffff1673ffffffffffffffffffffffffffffffffffffffff16815260200190815260200160002060008282546128219190614688565b925050819055505b5b50505050565b50505050565b6128408383612d37565b61284d6000848484612891565b61288c576040517f08c379a0000000000000000000000000000000000000000000000000000000008152600401612883906143b4565b60405180910390fd5b505050565b60006128b28473ffffffffffffffffffffffffffffffffffffffff16612f55565b15612a1b578373ffffffffffffffffffffffffffffffffffffffff1663150b7a026128db611999565b8786866040518563ffffffff1660e01b81526004016128fd949392919061430b565b602060405180830381600087803b15801561291757600080fd5b505af192505050801561294857506040513d601f19601f8201168201806040525081019061294591906138ae565b60015b6129cb573d8060008114612978576040519150601f19603f3d011682016040523d82523d6000602084013e61297d565b606091505b506000815114156129c3576040517f08c379a00000000000000000000000000000000000000000000000000000000081526004016129ba906143b4565b60405180910390fd5b805181602001fd5b63150b7a0260e01b7bffffffffffffffffffffffffffffffffffffffffffffffffffffffff1916817bffffffffffffffffffffffffffffffffffffffffffffffffffffffff191614915050612a20565b600190505b949350505050565b60606000612a3584612b07565b90506000612a4284612b07565b905060006001612a528484612f78565b612a5c9190614688565b67ffffffffffffffff811115612a7557612a74614b2c565b5b604051908082528060200260200182016040528015612aa857816020015b6060815260200190600190039081612a935790505b50905060005b8151811015612afa57612ac9612ac48585613020565b612cbb565b828281518110612adc57612adb614afd565b5b60200260200101819052508080612af290614a27565b915050612aae565b5080935050505092915050565b612b0f6134d4565b600060208301905060405180604001604052808451815260200182815250915050919050565b6060600082600001518460000151612b4d9190614688565b67ffffffffffffffff811115612b6657612b65614b2c565b5b6040519080825280601f01601f191660200182016040528015612b985781602001600182028036833780820191505090505b5090506000602082019050612bb6818660200151876000015161303a565b612bd8856000015182612bc99190614688565b8560200151866000015161303a565b819250505092915050565b606060006001612bf2846130e6565b01905060008167ffffffffffffffff811115612c1157612c10614b2c565b5b6040519080825280601f01601f191660200182016040528015612c435781602001600182028036833780820191505090505b509050600082602001820190505b600115612cb0578080600190039150507f3031323334353637383961626364656600000000000000000000000000000000600a86061a8153600a8581612c9a57612c99614a9f565b5b0494506000851415612cab57612cb0565b612c51565b819350505050919050565b60606000826000015167ffffffffffffffff811115612cdd57612cdc614b2c565b5b6040519080825280601f01601f191660200182016040528015612d0f5781602001600182028036833780820191505090505b5090506000602082019050612d2d818560200151866000015161303a565b8192505050919050565b600073ffffffffffffffffffffffffffffffffffffffff168273ffffffffffffffffffffffffffffffffffffffff161415612da7576040517f08c379a0000000000000000000000000000000000000000000000000000000008152600401612d9e90614494565b60405180910390fd5b612db081611a5a565b15612df0576040517f08c379a0000000000000000000000000000000000000000000000000000000008152600401612de790614414565b60405180910390fd5b612dfe60008383600161270a565b612e0781611a5a565b15612e47576040517f08c379a0000000000000000000000000000000000000000000000000000000008152600401612e3e90614414565b60405180910390fd5b6001600360008473ffffffffffffffffffffffffffffffffffffffff1673ffffffffffffffffffffffffffffffffffffffff16815260200190815260200160002060008282540192505081905550816002600083815260200190815260200160002060006101000a81548173ffffffffffffffffffffffffffffffffffffffff021916908373ffffffffffffffffffffffffffffffffffffffff160217905550808273ffffffffffffffffffffffffffffffffffffffff16600073ffffffffffffffffffffffffffffffffffffffff167fddf252ad1be2c89b69c2b068fc378daa952ba7f163c4a11628f55a4df523b3ef60405160405180910390a4612f51600083836001612830565b5050565b6000808273ffffffffffffffffffffffffffffffffffffffff163b119050919050565b6000808260000151612f9c8560000151866020015186600001518760200151613239565b612fa69190614688565b90505b83600001518460200151612fbd9190614688565b8111613019578180612fce90614a27565b9250508260000151613008856020015183612fe991906148da565b8660000151612ff891906148da565b8386600001518760200151613239565b6130129190614688565b9050612fa9565b5092915050565b6130286134d4565b613033838383613383565b5092915050565b5b6020811061307957815183526020836130549190614688565b92506020826130639190614688565b915060208161307291906148da565b905061303b565b60007fffffffffffffffffffffffffffffffffffffffffffffffffffffffffffffffff905060008211156130d05760018260206130b691906148da565b6101006130c39190614762565b6130cd91906148da565b90505b8019835116818551168181178652505050505050565b600080600090507a184f03e93ff9f4daa797ed6e38ed64bf6a1f0100000000000000008310613144577a184f03e93ff9f4daa797ed6e38ed64bf6a1f010000000000000000838161313a57613139614a9f565b5b0492506040810190505b6d04ee2d6d415b85acef81000000008310613181576d04ee2d6d415b85acef8100000000838161317757613176614a9f565b5b0492506020810190505b662386f26fc1000083106131b057662386f26fc1000083816131a6576131a5614a9f565b5b0492506010810190505b6305f5e10083106131d9576305f5e10083816131cf576131ce614a9f565b5b0492506008810190505b61271083106131fe5761271083816131f4576131f3614a9f565b5b0492506004810190505b60648310613221576064838161321757613216614a9f565b5b0492506002810190505b600a8310613230576001810190505b80915050919050565b600080849050600086851161336a576020851161330c5760008086111561329257600186602061326991906148da565b60086132759190614880565b60026132819190614762565b61328b91906148da565b1960001b90505b60008186511690506000878a8a6132a99190614688565b6132b391906148da565b905060008386511690505b8281146132fe578186106132e5578a8a6132d89190614688565b965050505050505061337b565b85806132f090614a27565b9650508386511690506132be565b85965050505050505061337b565b60008585209050600091505b858861332491906148da565b8211613368576000868420905080821415613345578394505050505061337b565b6001846133529190614688565b935050818061336090614a27565b925050613318565b505b86866133769190614688565b925050505b949350505050565b61338b6134d4565b60006133a98560000151866020015186600001518760200151613239565b905084602001518360200181815250508460200151816133c991906148da565b836000018181525050846000015185602001516133e69190614688565b8114156133fd576000856000018181525050613443565b836000015183600001516134119190614688565b8560000181815161342291906148da565b915081815250508360000151816134399190614688565b8560200181815250505b829150509392505050565b82805461345a906149c4565b90600052602060002090601f01602090048101928261347c57600085556134c3565b82601f1061349557803560ff19168380011785556134c3565b828001600101855582156134c3579182015b828111156134c25782358255916020019190600101906134a7565b5b5090506134d091906134ee565b5090565b604051806040016040528060008152602001600081525090565b5b808211156135075760008160009055506001016134ef565b5090565b600061351e613519846145f4565b6145cf565b90508281526020810184848401111561353a57613539614b6a565b5b613545848285614982565b509392505050565b60008135905061355c816154a2565b92915050565b600081519050613571816154a2565b92915050565b600081359050613586816154b9565b92915050565b60008151905061359b816154b9565b92915050565b6000813590506135b0816154d0565b92915050565b6000815190506135c5816154d0565b92915050565b600082601f8301126135e0576135df614b60565b5b81356135f084826020860161350b565b91505092915050565b60008083601f84011261360f5761360e614b60565b5b8235905067ffffffffffffffff81111561362c5761362b614b5b565b5b60208301915083600182028301111561364857613647614b65565b5b9250929050565b60008135905061365e816154e7565b92915050565b60006020828403121561367a57613679614b74565b5b60006136888482850161354d565b91505092915050565b6000602082840312156136a7576136a6614b74565b5b60006136b584828501613562565b91505092915050565b600080604083850312156136d5576136d4614b74565b5b60006136e38582860161354d565b92505060206136f48582860161354d565b9150509250929050565b60008060006060848603121561371757613716614b74565b5b60006137258682870161354d565b93505060206137368682870161354d565b92505060406137478682870161364f565b9150509250925092565b6000806000806080858703121561376b5761376a614b74565b5b60006137798782880161354d565b945050602061378a8782880161354d565b935050604061379b8782880161364f565b925050606085013567ffffffffffffffff8111156137bc576137bb614b6f565b5b6137c8878288016135cb565b91505092959194509250565b600080604083850312156137eb576137ea614b74565b5b60006137f98582860161354d565b925050602061380a85828601613577565b9150509250929050565b6000806040838503121561382b5761382a614b74565b5b60006138398582860161354d565b925050602061384a8582860161364f565b9150509250929050565b60006020828403121561386a57613869614b74565b5b60006138788482850161358c565b91505092915050565b60006020828403121561389757613896614b74565b5b60006138a5848285016135a1565b91505092915050565b6000602082840312156138c4576138c3614b74565b5b60006138d2848285016135b6565b91505092915050565b60008060008060008060006080888a0312156138fa576138f9614b74565b5b600088013567ffffffffffffffff81111561391857613917614b6f565b5b6139248a828b016135f9565b9750975050602088013567ffffffffffffffff81111561394757613946614b6f565b5b6139538a828b016135f9565b9550955050604088013567ffffffffffffffff81111561397657613975614b6f565b5b6139828a828b016135f9565b935093505060606139958a828b0161364f565b91505092959891949750929550565b6000602082840312156139ba576139b9614b74565b5b60006139c88482850161364f565b91505092915050565b600080604083850312156139e8576139e7614b74565b5b60006139f68582860161364f565b9250506020613a078582860161364f565b9150509250929050565b613a1a8161490e565b82525050565b613a2981614920565b82525050565b6000613a3a8261463a565b613a448185614650565b9350613a54818560208601614991565b613a5d81614b79565b840191505092915050565b6000613a738261463a565b613a7d8185614661565b9350613a8d818560208601614991565b80840191505092915050565b6000613aa482614645565b613aae818561466c565b9350613abe818560208601614991565b613ac781614b79565b840191505092915050565b6000613add82614645565b613ae7818561467d565b9350613af7818560208601614991565b80840191505092915050565b60008154613b10816149c4565b613b1a818661467d565b94506001821660008114613b355760018114613b4657613b79565b60ff19831686528186019350613b79565b613b4f85614625565b60005b83811015613b7157815481890152600182019150602081019050613b52565b838801955050505b50505092915050565b6000613b8f602d8361466c565b9150613b9a82614b97565b604082019050919050565b6000613bb260328361466c565b9150613bbd82614be6565b604082019050919050565b6000613bd5600f8361467d565b9150613be082614c35565b600f82019050919050565b6000613bf860748361467d565b9150613c0382614c5e565b607482019050919050565b6000613c1b60268361466c565b9150613c2682614cf9565b604082019050919050565b6000613c3e60258361466c565b9150613c4982614d48565b604082019050919050565b6000613c61601c8361466c565b9150613c6c82614d97565b602082019050919050565b6000613c8460678361467d565b9150613c8f82614dc0565b606782019050919050565b6000613ca760018361467d565b9150613cb282614e5b565b600182019050919050565b6000613cca60248361466c565b9150613cd582614e84565b604082019050919050565b6000613ced60198361466c565b9150613cf882614ed3565b602082019050919050565b6000613d1060318361467d565b9150613d1b82614efc565b603182019050919050565b6000613d3360088361467d565b9150613d3e82614f4b565b600882019050919050565b6000613d5660338361467d565b9150613d6182614f74565b603382019050919050565b6000613d79604c8361467d565b9150613d8482614fc3565b604c82019050919050565b6000613d9c601e8361467d565b9150613da782615038565b601e82019050919050565b6000613dbf60298361466c565b9150613dca82615061565b604082019050919050565b6000613de260018361467d565b9150613ded826150b0565b600182019050919050565b6000613e0560048361467d565b9150613e10826150d9565b600482019050919050565b6000613e2860078361467d565b9150613e3382615102565b600782019050919050565b6000613e4b60208361466c565b9150613e568261512b565b602082019050919050565b6000613e6e60018361467d565b9150613e7982615154565b600182019050919050565b6000613e9160208361466c565b9150613e9c8261517d565b602082019050919050565b6000613eb460018361467d565b9150613ebf826151a6565b600182019050919050565b6000613ed760188361466c565b9150613ee2826151cf565b602082019050919050565b6000613efa60218361466c565b9150613f05826151f8565b604082019050919050565b6000613f1d601d8361467d565b9150613f2882615247565b601d82019050919050565b6000613f4060008361467d565b9150613f4b82615270565b600082019050919050565b6000613f63603d8361466c565b9150613f6e82615273565b604082019050919050565b6000613f86600e8361466c565b9150613f91826152c2565b602082019050919050565b6000613fa960238361467d565b9150613fb4826152eb565b602382019050919050565b6000613fcc60068361467d565b9150613fd78261533a565b600682019050919050565b6000613fef60118361466c565b9150613ffa82615363565b602082019050919050565b6000614012600a8361466c565b915061401d8261538c565b602082019050919050565b600061403560458361467d565b9150614040826153b5565b604582019050919050565b6000614058600e8361466c565b91506140638261542a565b602082019050919050565b600061407b602c8361467d565b915061408682615453565b602c82019050919050565b61409a81614978565b82525050565b60006140ab82613bc8565b91506140b78284613b03565b91506140c282613dd5565b915081905092915050565b60006140d882613beb565b91506140e48288613a68565b91506140f08287613a68565b91506140fc8286613a68565b91506141088285613a68565b91506141148284613a68565b915061411f82613fbf565b91508190509695505050505050565b600061413982613c77565b915061414482614028565b9150819050919050565b600061415982613d03565b91506141658284613ad2565b915061417082613df8565b915081905092915050565b600061418682613d26565b91506141928284613b03565b915061419d82613dd5565b915081905092915050565b60006141b382613d49565b91506141bf8284613ad2565b91506141ca82613df8565b915081905092915050565b60006141e082613d8f565b91506141ec8284613ad2565b91506141f782613e1b565b915081905092915050565b600061420d82613ea7565b91506142198286613a68565b915061422482613c9a565b91506142308285613a68565b915061423b82613c9a565b91506142478284613a68565b915061425282613e61565b9150819050949350505050565b600061426a82613f10565b91506142768284613ad2565b915081905092915050565b600061428c82613f33565b9150819050919050565b60006142a182613f9c565b91506142ad8284613ad2565b91506142b882613dd5565b915081905092915050565b60006142ce8261406e565b91506142da8284613ad2565b91506142e582613d6c565b915081905092915050565b60006020820190506143056000830184613a11565b92915050565b60006080820190506143206000830187613a11565b61432d6020830186613a11565b61433a6040830185614091565b818103606083015261434c8184613a2f565b905095945050505050565b600060208201905061436c6000830184613a20565b92915050565b6000602082019050818103600083015261438c8184613a99565b905092915050565b600060208201905081810360008301526143ad81613b82565b9050919050565b600060208201905081810360008301526143cd81613ba5565b9050919050565b600060208201905081810360008301526143ed81613c0e565b9050919050565b6000602082019050818103600083015261440d81613c31565b9050919050565b6000602082019050818103600083015261442d81613c54565b9050919050565b6000602082019050818103600083015261444d81613cbd565b9050919050565b6000602082019050818103600083015261446d81613ce0565b9050919050565b6000602082019050818103600083015261448d81613db2565b9050919050565b600060208201905081810360008301526144ad81613e3e565b9050919050565b600060208201905081810360008301526144cd81613e84565b9050919050565b600060208201905081810360008301526144ed81613eca565b9050919050565b6000602082019050818103600083015261450d81613eed565b9050919050565b6000602082019050818103600083015261452d81613f56565b9050919050565b6000602082019050818103600083015261454d81613f79565b9050919050565b6000602082019050818103600083015261456d81613fe2565b9050919050565b6000602082019050818103600083015261458d81614005565b9050919050565b600060208201905081810360008301526145ad8161404b565b9050919050565b60006020820190506145c96000830184614091565b92915050565b60006145d96145ea565b90506145e582826149f6565b919050565b6000604051905090565b600067ffffffffffffffff82111561460f5761460e614b2c565b5b61461882614b79565b9050602081019050919050565b60008190508160005260206000209050919050565b600081519050919050565b600081519050919050565b600082825260208201905092915050565b600081905092915050565b600082825260208201905092915050565b600081905092915050565b600061469382614978565b915061469e83614978565b9250827fffffffffffffffffffffffffffffffffffffffffffffffffffffffffffffffff038211156146d3576146d2614a70565b5b828201905092915050565b60006146e982614978565b91506146f483614978565b92508261470457614703614a9f565b5b828204905092915050565b6000808291508390505b60018511156147595780860481111561473557614734614a70565b5b60018516156147445780820291505b808102905061475285614b8a565b9450614719565b94509492505050565b600061476d82614978565b915061477883614978565b92506147a57fffffffffffffffffffffffffffffffffffffffffffffffffffffffffffffffff84846147ad565b905092915050565b6000826147bd5760019050614879565b816147cb5760009050614879565b81600181146147e157600281146147eb5761481a565b6001915050614879565b60ff8411156147fd576147fc614a70565b5b8360020a91508482111561481457614813614a70565b5b50614879565b5060208310610133831016604e8410600b841016171561484f5782820a90508381111561484a57614849614a70565b5b614879565b61485c848484600161470f565b9250905081840481111561487357614872614a70565b5b81810290505b9392505050565b600061488b82614978565b915061489683614978565b9250817fffffffffffffffffffffffffffffffffffffffffffffffffffffffffffffffff04831182151516156148cf576148ce614a70565b5b828202905092915050565b60006148e582614978565b91506148f083614978565b92508282101561490357614902614a70565b5b828203905092915050565b600061491982614958565b9050919050565b60008115159050919050565b60007fffffffff0000000000000000000000000000000000000000000000000000000082169050919050565b600073ffffffffffffffffffffffffffffffffffffffff82169050919050565b6000819050919050565b82818337600083830152505050565b60005b838110156149af578082015181840152602081019050614994565b838111156149be576000848401525b50505050565b600060028204905060018216806149dc57607f821691505b602082108114156149f0576149ef614ace565b5b50919050565b6149ff82614b79565b810181811067ffffffffffffffff82111715614a1e57614a1d614b2c565b5b80604052505050565b6000614a3282614978565b91507fffffffffffffffffffffffffffffffffffffffffffffffffffffffffffffffff821415614a6557614a64614a70565b5b600182019050919050565b7f4e487b7100000000000000000000000000000000000000000000000000000000600052601160045260246000fd5b7f4e487b7100000000000000000000000000000000000000000000000000000000600052601260045260246000fd5b7f4e487b7100000000000000000000000000000000000000000000000000000000600052602260045260246000fd5b7f4e487b7100000000000000000000000000000000000000000000000000000000600052603260045260246000fd5b7f4e487b7100000000000000000000000000000000000000000000000000000000600052604160045260246000fd5b600080fd5b600080fd5b600080fd5b600080fd5b600080fd5b600080fd5b6000601f19601f8301169050919050565b60008160011c9050919050565b7f4552433732313a2063616c6c6572206973206e6f7420746f6b656e206f776e6560008201527f72206f7220617070726f76656400000000000000000000000000000000000000602082015250565b7f4552433732313a207472616e7366657220746f206e6f6e20455243373231526560008201527f63656976657220696d706c656d656e7465720000000000000000000000000000602082015250565b7f226465736372697074696f6e223a220000000000000000000000000000000000600082015250565b7f3c73766720786d6c6e733d22687474703a2f2f7777772e77332e6f72672f323060008201527f30302f73766722207072657365727665417370656374526174696f3d22784d6960208201527f6e594d696e206d656574222076696577426f783d22302030203335302033353060408201527f22206f766572666c6f773d2268696464656e223e000000000000000000000000606082015250565b7f4f776e61626c653a206e6577206f776e657220697320746865207a65726f206160008201527f6464726573730000000000000000000000000000000000000000000000000000602082015250565b7f4552433732313a207472616e736665722066726f6d20696e636f72726563742060008201527f6f776e6572000000000000000000000000000000000000000000000000000000602082015250565b7f4552433732313a20746f6b656e20616c7265616479206d696e74656400000000600082015250565b7f3c7061746820643d224d203137352e333135203334382e393438204c2033353060008201527f203230322e333731204c20333530203238302e363934204c203236372e34303560208201527f20333530204c203137362e31393820333530205a222066696c6c3d222344414160408201527f35323022202f3e00000000000000000000000000000000000000000000000000606082015250565b7f2c00000000000000000000000000000000000000000000000000000000000000600082015250565b7f4552433732313a207472616e7366657220746f20746865207a65726f2061646460008201527f7265737300000000000000000000000000000000000000000000000000000000602082015250565b7f4552433732313a20617070726f766520746f2063616c6c657200000000000000600082015250565b7f3c7265637420783d22302220793d2230222077696474683d223335302220686560008201527f696768743d22333530222066696c6c3d22000000000000000000000000000000602082015250565b7f226e616d65223a22000000000000000000000000000000000000000000000000600082015250565b7f3c7265637420783d2231302220793d223130222077696474683d22333330222060008201527f6865696768743d22333330222066696c6c3d2200000000000000000000000000602082015250565b7f70783b2066696c6c3a233030307d202e6c7b666f6e742d66616d696c793a736160008201527f6e732d73657269663b666f6e742d73697a653a333070783b2066696c6c3a236660208201527f66667d203c2f7374796c653e0000000000000000000000000000000000000000604082015250565b7f3c7465787420783d2231302220793d2231302220636c6173733d2266223e0000600082015250565b7f4552433732313a2061646472657373207a65726f206973206e6f74206120766160008201527f6c6964206f776e65720000000000000000000000000000000000000000000000602082015250565b7f2200000000000000000000000000000000000000000000000000000000000000600082015250565b7f22202f3e00000000000000000000000000000000000000000000000000000000600082015250565b7f3c2f746578743e00000000000000000000000000000000000000000000000000600082015250565b7f4552433732313a206d696e7420746f20746865207a65726f2061646472657373600082015250565b7f7d00000000000000000000000000000000000000000000000000000000000000600082015250565b7f4f776e61626c653a2063616c6c6572206973206e6f7420746865206f776e6572600082015250565b7f7b00000000000000000000000000000000000000000000000000000000000000600082015250565b7f4552433732313a20696e76616c696420746f6b656e2049440000000000000000600082015250565b7f4552433732313a20617070726f76616c20746f2063757272656e74206f776e6560008201527f7200000000000000000000000000000000000000000000000000000000000000602082015250565b7f646174613a6170706c69636174696f6e2f6a736f6e3b6261736536342c000000600082015250565b50565b7f4552433732313a20617070726f76652063616c6c6572206973206e6f7420746f60008201527f6b656e206f776e6572206f7220617070726f76656420666f7220616c6c000000602082015250565b7f616c7265616479206f70656e6564000000000000000000000000000000000000600082015250565b7f22696d616765223a22646174613a696d6167652f7376672b786d6c3b6261736560008201527f36342c0000000000000000000000000000000000000000000000000000000000602082015250565b7f3c2f7376673e0000000000000000000000000000000000000000000000000000600082015250565b7f6e6f6e6578736974656e7420746f6b656e000000000000000000000000000000600082015250565b7f6f776e6572206f6e6c7900000000000000000000000000000000000000000000600082015250565b7f3c7465787420783d222d33302220793d2234323022207472616e73666f726d3d60008201527f22726f74617465282d3430292220636c6173733d226c223e434c4f5345443c2f60208201527f746578743e000000000000000000000000000000000000000000000000000000604082015250565b7f616c726561647920636c6f736564000000000000000000000000000000000000600082015250565b7f3c7374796c653e202e667b666f6e742d66616d696c793a73616e732d7365726960008201527f663b666f6e742d73697a653a0000000000000000000000000000000000000000602082015250565b6154ab8161490e565b81146154b657600080fd5b50565b6154c281614920565b81146154cd57600080fd5b50565b6154d98161492c565b81146154e457600080fd5b50565b6154f081614978565b81146154fb57600080fd5b5056fe4142434445464748494a4b4c4d4e4f505152535455565758595a6162636465666768696a6b6c6d6e6f707172737475767778797a303132333435363738392b2fa2646970667358221220cb59dba31c8c408ec255506ecf512e8892974e30cea5e30de536159243c6497f64736f6c63430008070033",
			"opcodes": "PUSH1 0x80 PUSH1 0x40 MSTORE PUSH1 0x40 MLOAD DUP1 PUSH1 0x40 ADD PUSH1 0x40 MSTORE DUP1 PUSH1 0x2 DUP2 MSTORE PUSH1 0x20 ADD PUSH32 0x2F2F000000000000000000000000000000000000000000000000000000000000 DUP2 MSTORE POP PUSH1 0x7 SWAP1 DUP1 MLOAD SWAP1 PUSH1 0x20 ADD SWAP1 PUSH3 0x51 SWAP3 SWAP2 SWAP1 PUSH3 0x1F4 JUMP JUMPDEST POP CALLVALUE DUP1 ISZERO PUSH3 0x5F JUMPI PUSH1 0x0 DUP1 REVERT JUMPDEST POP PUSH1 0x40 MLOAD DUP1 PUSH1 0x40 ADD PUSH1 0x40 MSTORE DUP1 PUSH1 0xA DUP2 MSTORE PUSH1 0x20 ADD PUSH32 0x316F6E3120546F6B656E00000000000000000000000000000000000000000000 DUP2 MSTORE POP PUSH1 0x40 MLOAD DUP1 PUSH1 0x40 ADD PUSH1 0x40 MSTORE DUP1 PUSH1 0x3 DUP2 MSTORE PUSH1 0x20 ADD PUSH32 0x4F4F540000000000000000000000000000000000000000000000000000000000 DUP2 MSTORE POP DUP2 PUSH1 0x0 SWAP1 DUP1 MLOAD SWAP1 PUSH1 0x20 ADD SWAP1 PUSH3 0xE4 SWAP3 SWAP2 SWAP1 PUSH3 0x1F4 JUMP JUMPDEST POP DUP1 PUSH1 0x1 SWAP1 DUP1 MLOAD SWAP1 PUSH1 0x20 ADD SWAP1 PUSH3 0xFD SWAP3 SWAP2 SWAP1 PUSH3 0x1F4 JUMP JUMPDEST POP POP POP PUSH3 0x120 PUSH3 0x114 PUSH3 0x126 PUSH1 0x20 SHL PUSH1 0x20 SHR JUMP JUMPDEST PUSH3 0x12E PUSH1 0x20 SHL PUSH1 0x20 SHR JUMP JUMPDEST PUSH3 0x309 JUMP JUMPDEST PUSH1 0x0 CALLER SWAP1 POP SWAP1 JUMP JUMPDEST PUSH1 0x0 PUSH1 0x6 PUSH1 0x0 SWAP1 SLOAD SWAP1 PUSH2 0x100 EXP SWAP1 DIV PUSH20 0xFFFFFFFFFFFFFFFFFFFFFFFFFFFFFFFFFFFFFFFF AND SWAP1 POP DUP2 PUSH1 0x6 PUSH1 0x0 PUSH2 0x100 EXP DUP2 SLOAD DUP2 PUSH20 0xFFFFFFFFFFFFFFFFFFFFFFFFFFFFFFFFFFFFFFFF MUL NOT AND SWAP1 DUP4 PUSH20 0xFFFFFFFFFFFFFFFFFFFFFFFFFFFFFFFFFFFFFFFF AND MUL OR SWAP1 SSTORE POP DUP2 PUSH20 0xFFFFFFFFFFFFFFFFFFFFFFFFFFFFFFFFFFFFFFFF AND DUP2 PUSH20 0xFFFFFFFFFFFFFFFFFFFFFFFFFFFFFFFFFFFFFFFF AND PUSH32 0x8BE0079C531659141344CD1FD0A4F28419497F9722A3DAAFE3B4186F6B6457E0 PUSH1 0x40 MLOAD PUSH1 0x40 MLOAD DUP1 SWAP2 SUB SWAP1 LOG3 POP POP JUMP JUMPDEST DUP3 DUP1 SLOAD PUSH3 0x202 SWAP1 PUSH3 0x2A4 JUMP JUMPDEST SWAP1 PUSH1 0x0 MSTORE PUSH1 0x20 PUSH1 0x0 KECCAK256 SWAP1 PUSH1 0x1F ADD PUSH1 0x20 SWAP1 DIV DUP2 ADD SWAP3 DUP3 PUSH3 0x226 JUMPI PUSH1 0x0 DUP6 SSTORE PUSH3 0x272 JUMP JUMPDEST DUP3 PUSH1 0x1F LT PUSH3 0x241 JUMPI DUP1 MLOAD PUSH1 0xFF NOT AND DUP4 DUP1 ADD OR DUP6 SSTORE PUSH3 0x272 JUMP JUMPDEST DUP3 DUP1 ADD PUSH1 0x1 ADD DUP6 SSTORE DUP3 ISZERO PUSH3 0x272 JUMPI SWAP2 DUP3 ADD JUMPDEST DUP3 DUP2 GT ISZERO PUSH3 0x271 JUMPI DUP3 MLOAD DUP3 SSTORE SWAP2 PUSH1 0x20 ADD SWAP2 SWAP1 PUSH1 0x1 ADD SWAP1 PUSH3 0x254 JUMP JUMPDEST JUMPDEST POP SWAP1 POP PUSH3 0x281 SWAP2 SWAP1 PUSH3 0x285 JUMP JUMPDEST POP SWAP1 JUMP JUMPDEST JUMPDEST DUP1 DUP3 GT ISZERO PUSH3 0x2A0 JUMPI PUSH1 0x0 DUP2 PUSH1 0x0 SWAP1 SSTORE POP PUSH1 0x1 ADD PUSH3 0x286 JUMP JUMPDEST POP SWAP1 JUMP JUMPDEST PUSH1 0x0 PUSH1 0x2 DUP3 DIV SWAP1 POP PUSH1 0x1 DUP3 AND DUP1 PUSH3 0x2BD JUMPI PUSH1 0x7F DUP3 AND SWAP2 POP JUMPDEST PUSH1 0x20 DUP3 LT DUP2 EQ ISZERO PUSH3 0x2D4 JUMPI PUSH3 0x2D3 PUSH3 0x2DA JUMP JUMPDEST JUMPDEST POP SWAP2 SWAP1 POP JUMP JUMPDEST PUSH32 0x4E487B7100000000000000000000000000000000000000000000000000000000 PUSH1 0x0 MSTORE PUSH1 0x22 PUSH1 0x4 MSTORE PUSH1 0x24 PUSH1 0x0 REVERT JUMPDEST PUSH2 0x5574 DUP1 PUSH3 0x319 PUSH1 0x0 CODECOPY PUSH1 0x0 RETURN INVALID PUSH1 0x80 PUSH1 0x40 MSTORE CALLVALUE DUP1 ISZERO PUSH2 0x10 JUMPI PUSH1 0x0 DUP1 REVERT JUMPDEST POP PUSH1 0x4 CALLDATASIZE LT PUSH2 0x158 JUMPI PUSH1 0x0 CALLDATALOAD PUSH1 0xE0 SHR DUP1 PUSH4 0x8DA5CB5B GT PUSH2 0xC3 JUMPI DUP1 PUSH4 0xC87B56DD GT PUSH2 0x7C JUMPI DUP1 PUSH4 0xC87B56DD EQ PUSH2 0x3AD JUMPI DUP1 PUSH4 0xD5C78A28 EQ PUSH2 0x3DD JUMPI DUP1 PUSH4 0xE0F23EEB EQ PUSH2 0x40D JUMPI DUP1 PUSH4 0xE284E840 EQ PUSH2 0x43D JUMPI DUP1 PUSH4 0xE985E9C5 EQ PUSH2 0x46D JUMPI DUP1 PUSH4 0xF2FDE38B EQ PUSH2 0x49D JUMPI PUSH2 0x158 JUMP JUMPDEST DUP1 PUSH4 0x8DA5CB5B EQ PUSH2 0x301 JUMPI DUP1 PUSH4 0x95D89B41 EQ PUSH2 0x31F JUMPI DUP1 PUSH4 0xA22CB465 EQ PUSH2 0x33D JUMPI DUP1 PUSH4 0xB609AC61 EQ PUSH2 0x359 JUMPI DUP1 PUSH4 0xB88D4FDE EQ PUSH2 0x375 JUMPI DUP1 PUSH4 0xC57EEB28 EQ PUSH2 0x391 JUMPI PUSH2 0x158 JUMP JUMPDEST DUP1 PUSH4 0x31B6475C GT PUSH2 0x115 JUMPI DUP1 PUSH4 0x31B6475C EQ PUSH2 0x22F JUMPI DUP1 PUSH4 0x42842E0E EQ PUSH2 0x24B JUMPI DUP1 PUSH4 0x60862BB5 EQ PUSH2 0x267 JUMPI DUP1 PUSH4 0x6352211E EQ PUSH2 0x297 JUMPI DUP1 PUSH4 0x70A08231 EQ PUSH2 0x2C7 JUMPI DUP1 PUSH4 0x715018A6 EQ PUSH2 0x2F7 JUMPI PUSH2 0x158 JUMP JUMPDEST DUP1 PUSH4 0x1FFC9A7 EQ PUSH2 0x15D JUMPI DUP1 PUSH4 0x6FDDE03 EQ PUSH2 0x18D JUMPI DUP1 PUSH4 0x81812FC EQ PUSH2 0x1AB JUMPI DUP1 PUSH4 0x95EA7B3 EQ PUSH2 0x1DB JUMPI DUP1 PUSH4 0xAEBEB4E EQ PUSH2 0x1F7 JUMPI DUP1 PUSH4 0x23B872DD EQ PUSH2 0x213 JUMPI JUMPDEST PUSH1 0x0 DUP1 REVERT JUMPDEST PUSH2 0x177 PUSH1 0x4 DUP1 CALLDATASIZE SUB DUP2 ADD SWAP1 PUSH2 0x172 SWAP2 SWAP1 PUSH2 0x3881 JUMP JUMPDEST PUSH2 0x4B9 JUMP JUMPDEST PUSH1 0x40 MLOAD PUSH2 0x184 SWAP2 SWAP1 PUSH2 0x4357 JUMP JUMPDEST PUSH1 0x40 MLOAD DUP1 SWAP2 SUB SWAP1 RETURN JUMPDEST PUSH2 0x195 PUSH2 0x59B JUMP JUMPDEST PUSH1 0x40 MLOAD PUSH2 0x1A2 SWAP2 SWAP1 PUSH2 0x4372 JUMP JUMPDEST PUSH1 0x40 MLOAD DUP1 SWAP2 SUB SWAP1 RETURN JUMPDEST PUSH2 0x1C5 PUSH1 0x4 DUP1 CALLDATASIZE SUB DUP2 ADD SWAP1 PUSH2 0x1C0 SWAP2 SWAP1 PUSH2 0x39A4 JUMP JUMPDEST PUSH2 0x62D JUMP JUMPDEST PUSH1 0x40 MLOAD PUSH2 0x1D2 SWAP2 SWAP1 PUSH2 0x42F0 JUMP JUMPDEST PUSH1 0x40 MLOAD DUP1 SWAP2 SUB SWAP1 RETURN JUMPDEST PUSH2 0x1F5 PUSH1 0x4 DUP1 CALLDATASIZE SUB DUP2 ADD SWAP1 PUSH2 0x1F0 SWAP2 SWAP1 PUSH2 0x3814 JUMP JUMPDEST PUSH2 0x673 JUMP JUMPDEST STOP JUMPDEST PUSH2 0x211 PUSH1 0x4 DUP1 CALLDATASIZE SUB DUP2 ADD SWAP1 PUSH2 0x20C SWAP2 SWAP1 PUSH2 0x39A4 JUMP JUMPDEST PUSH2 0x78B JUMP JUMPDEST STOP JUMPDEST PUSH2 0x22D PUSH1 0x4 DUP1 CALLDATASIZE SUB DUP2 ADD SWAP1 PUSH2 0x228 SWAP2 SWAP1 PUSH2 0x36FE JUMP JUMPDEST PUSH2 0x9B7 JUMP JUMPDEST STOP JUMPDEST PUSH2 0x249 PUSH1 0x4 DUP1 CALLDATASIZE SUB DUP2 ADD SWAP1 PUSH2 0x244 SWAP2 SWAP1 PUSH2 0x38DB JUMP JUMPDEST PUSH2 0xA17 JUMP JUMPDEST STOP JUMPDEST PUSH2 0x265 PUSH1 0x4 DUP1 CALLDATASIZE SUB DUP2 ADD SWAP1 PUSH2 0x260 SWAP2 SWAP1 PUSH2 0x36FE JUMP JUMPDEST PUSH2 0xB6B JUMP JUMPDEST STOP JUMPDEST PUSH2 0x281 PUSH1 0x4 DUP1 CALLDATASIZE SUB DUP2 ADD SWAP1 PUSH2 0x27C SWAP2 SWAP1 PUSH2 0x39A4 JUMP JUMPDEST PUSH2 0xB8B JUMP JUMPDEST PUSH1 0x40 MLOAD PUSH2 0x28E SWAP2 SWAP1 PUSH2 0x45B4 JUMP JUMPDEST PUSH1 0x40 MLOAD DUP1 SWAP2 SUB SWAP1 RETURN JUMPDEST PUSH2 0x2B1 PUSH1 0x4 DUP1 CALLDATASIZE SUB DUP2 ADD SWAP1 PUSH2 0x2AC SWAP2 SWAP1 PUSH2 0x39A4 JUMP JUMPDEST PUSH2 0xBFB JUMP JUMPDEST PUSH1 0x40 MLOAD PUSH2 0x2BE SWAP2 SWAP1 PUSH2 0x42F0 JUMP JUMPDEST PUSH1 0x40 MLOAD DUP1 SWAP2 SUB SWAP1 RETURN JUMPDEST PUSH2 0x2E1 PUSH1 0x4 DUP1 CALLDATASIZE SUB DUP2 ADD SWAP1 PUSH2 0x2DC SWAP2 SWAP1 PUSH2 0x3664 JUMP JUMPDEST PUSH2 0xC82 JUMP JUMPDEST PUSH1 0x40 MLOAD PUSH2 0x2EE SWAP2 SWAP1 PUSH2 0x45B4 JUMP JUMPDEST PUSH1 0x40 MLOAD DUP1 SWAP2 SUB SWAP1 RETURN JUMPDEST PUSH2 0x2FF PUSH2 0xD3A JUMP JUMPDEST STOP JUMPDEST PUSH2 0x309 PUSH2 0xD4E JUMP JUMPDEST PUSH1 0x40 MLOAD PUSH2 0x316 SWAP2 SWAP1 PUSH2 0x42F0 JUMP JUMPDEST PUSH1 0x40 MLOAD DUP1 SWAP2 SUB SWAP1 RETURN JUMPDEST PUSH2 0x327 PUSH2 0xD78 JUMP JUMPDEST PUSH1 0x40 MLOAD PUSH2 0x334 SWAP2 SWAP1 PUSH2 0x4372 JUMP JUMPDEST PUSH1 0x40 MLOAD DUP1 SWAP2 SUB SWAP1 RETURN JUMPDEST PUSH2 0x357 PUSH1 0x4 DUP1 CALLDATASIZE SUB DUP2 ADD SWAP1 PUSH2 0x352 SWAP2 SWAP1 PUSH2 0x37D4 JUMP JUMPDEST PUSH2 0xE0A JUMP JUMPDEST STOP JUMPDEST PUSH2 0x373 PUSH1 0x4 DUP1 CALLDATASIZE SUB DUP2 ADD SWAP1 PUSH2 0x36E SWAP2 SWAP1 PUSH2 0x39A4 JUMP JUMPDEST PUSH2 0xE20 JUMP JUMPDEST STOP JUMPDEST PUSH2 0x38F PUSH1 0x4 DUP1 CALLDATASIZE SUB DUP2 ADD SWAP1 PUSH2 0x38A SWAP2 SWAP1 PUSH2 0x3751 JUMP JUMPDEST PUSH2 0x1070 JUMP JUMPDEST STOP JUMPDEST PUSH2 0x3AB PUSH1 0x4 DUP1 CALLDATASIZE SUB DUP2 ADD SWAP1 PUSH2 0x3A6 SWAP2 SWAP1 PUSH2 0x39D1 JUMP JUMPDEST PUSH2 0x10D2 JUMP JUMPDEST STOP JUMPDEST PUSH2 0x3C7 PUSH1 0x4 DUP1 CALLDATASIZE SUB DUP2 ADD SWAP1 PUSH2 0x3C2 SWAP2 SWAP1 PUSH2 0x39A4 JUMP JUMPDEST PUSH2 0x1237 JUMP JUMPDEST PUSH1 0x40 MLOAD PUSH2 0x3D4 SWAP2 SWAP1 PUSH2 0x4372 JUMP JUMPDEST PUSH1 0x40 MLOAD DUP1 SWAP2 SUB SWAP1 RETURN JUMPDEST PUSH2 0x3F7 PUSH1 0x4 DUP1 CALLDATASIZE SUB DUP2 ADD SWAP1 PUSH2 0x3F2 SWAP2 SWAP1 PUSH2 0x39A4 JUMP JUMPDEST PUSH2 0x1583 JUMP JUMPDEST PUSH1 0x40 MLOAD PUSH2 0x404 SWAP2 SWAP1 PUSH2 0x4357 JUMP JUMPDEST PUSH1 0x40 MLOAD DUP1 SWAP2 SUB SWAP1 RETURN JUMPDEST PUSH2 0x427 PUSH1 0x4 DUP1 CALLDATASIZE SUB DUP2 ADD SWAP1 PUSH2 0x422 SWAP2 SWAP1 PUSH2 0x39A4 JUMP JUMPDEST PUSH2 0x15F6 JUMP JUMPDEST PUSH1 0x40 MLOAD PUSH2 0x434 SWAP2 SWAP1 PUSH2 0x45B4 JUMP JUMPDEST PUSH1 0x40 MLOAD DUP1 SWAP2 SUB SWAP1 RETURN JUMPDEST PUSH2 0x457 PUSH1 0x4 DUP1 CALLDATASIZE SUB DUP2 ADD SWAP1 PUSH2 0x452 SWAP2 SWAP1 PUSH2 0x39A4 JUMP JUMPDEST PUSH2 0x1666 JUMP JUMPDEST PUSH1 0x40 MLOAD PUSH2 0x464 SWAP2 SWAP1 PUSH2 0x45B4 JUMP JUMPDEST PUSH1 0x40 MLOAD DUP1 SWAP2 SUB SWAP1 RETURN JUMPDEST PUSH2 0x487 PUSH1 0x4 DUP1 CALLDATASIZE SUB DUP2 ADD SWAP1 PUSH2 0x482 SWAP2 SWAP1 PUSH2 0x36BE JUMP JUMPDEST PUSH2 0x17CC JUMP JUMPDEST PUSH1 0x40 MLOAD PUSH2 0x494 SWAP2 SWAP1 PUSH2 0x4357 JUMP JUMPDEST PUSH1 0x40 MLOAD DUP1 SWAP2 SUB SWAP1 RETURN JUMPDEST PUSH2 0x4B7 PUSH1 0x4 DUP1 CALLDATASIZE SUB DUP2 ADD SWAP1 PUSH2 0x4B2 SWAP2 SWAP1 PUSH2 0x3664 JUMP JUMPDEST PUSH2 0x1860 JUMP JUMPDEST STOP JUMPDEST PUSH1 0x0 PUSH32 0x80AC58CD00000000000000000000000000000000000000000000000000000000 PUSH28 0xFFFFFFFFFFFFFFFFFFFFFFFFFFFFFFFFFFFFFFFFFFFFFFFFFFFFFFFF NOT AND DUP3 PUSH28 0xFFFFFFFFFFFFFFFFFFFFFFFFFFFFFFFFFFFFFFFFFFFFFFFFFFFFFFFF NOT AND EQ DUP1 PUSH2 0x584 JUMPI POP PUSH32 0x5B5E139F00000000000000000000000000000000000000000000000000000000 PUSH28 0xFFFFFFFFFFFFFFFFFFFFFFFFFFFFFFFFFFFFFFFFFFFFFFFFFFFFFFFF NOT AND DUP3 PUSH28 0xFFFFFFFFFFFFFFFFFFFFFFFFFFFFFFFFFFFFFFFFFFFFFFFFFFFFFFFF NOT AND EQ JUMPDEST DUP1 PUSH2 0x594 JUMPI POP PUSH2 0x593 DUP3 PUSH2 0x18E4 JUMP JUMPDEST JUMPDEST SWAP1 POP SWAP2 SWAP1 POP JUMP JUMPDEST PUSH1 0x60 PUSH1 0x0 DUP1 SLOAD PUSH2 0x5AA SWAP1 PUSH2 0x49C4 JUMP JUMPDEST DUP1 PUSH1 0x1F ADD PUSH1 0x20 DUP1 SWAP2 DIV MUL PUSH1 0x20 ADD PUSH1 0x40 MLOAD SWAP1 DUP2 ADD PUSH1 0x40 MSTORE DUP1 SWAP3 SWAP2 SWAP1 DUP2 DUP2 MSTORE PUSH1 0x20 ADD DUP3 DUP1 SLOAD PUSH2 0x5D6 SWAP1 PUSH2 0x49C4 JUMP JUMPDEST DUP1 ISZERO PUSH2 0x623 JUMPI DUP1 PUSH1 0x1F LT PUSH2 0x5F8 JUMPI PUSH2 0x100 DUP1 DUP4 SLOAD DIV MUL DUP4 MSTORE SWAP2 PUSH1 0x20 ADD SWAP2 PUSH2 0x623 JUMP JUMPDEST DUP3 ADD SWAP2 SWAP1 PUSH1 0x0 MSTORE PUSH1 0x20 PUSH1 0x0 KECCAK256 SWAP1 JUMPDEST DUP2 SLOAD DUP2 MSTORE SWAP1 PUSH1 0x1 ADD SWAP1 PUSH1 0x20 ADD DUP1 DUP4 GT PUSH2 0x606 JUMPI DUP3 SWAP1 SUB PUSH1 0x1F AND DUP3 ADD SWAP2 JUMPDEST POP POP POP POP POP SWAP1 POP SWAP1 JUMP JUMPDEST PUSH1 0x0 PUSH2 0x638 DUP3 PUSH2 0x194E JUMP JUMPDEST PUSH1 0x4 PUSH1 0x0 DUP4 DUP2 MSTORE PUSH1 0x20 ADD SWAP1 DUP2 MSTORE PUSH1 0x20 ADD PUSH1 0x0 KECCAK256 PUSH1 0x0 SWAP1 SLOAD SWAP1 PUSH2 0x100 EXP SWAP1 DIV PUSH20 0xFFFFFFFFFFFFFFFFFFFFFFFFFFFFFFFFFFFFFFFF AND SWAP1 POP SWAP2 SWAP1 POP JUMP JUMPDEST PUSH1 0x0 PUSH2 0x67E DUP3 PUSH2 0xBFB JUMP JUMPDEST SWAP1 POP DUP1 PUSH20 0xFFFFFFFFFFFFFFFFFFFFFFFFFFFFFFFFFFFFFFFF AND DUP4 PUSH20 0xFFFFFFFFFFFFFFFFFFFFFFFFFFFFFFFFFFFFFFFF AND EQ ISZERO PUSH2 0x6EF JUMPI PUSH1 0x40 MLOAD PUSH32 0x8C379A000000000000000000000000000000000000000000000000000000000 DUP2 MSTORE PUSH1 0x4 ADD PUSH2 0x6E6 SWAP1 PUSH2 0x44F4 JUMP JUMPDEST PUSH1 0x40 MLOAD DUP1 SWAP2 SUB SWAP1 REVERT JUMPDEST DUP1 PUSH20 0xFFFFFFFFFFFFFFFFFFFFFFFFFFFFFFFFFFFFFFFF AND PUSH2 0x70E PUSH2 0x1999 JUMP JUMPDEST PUSH20 0xFFFFFFFFFFFFFFFFFFFFFFFFFFFFFFFFFFFFFFFF AND EQ DUP1 PUSH2 0x73D JUMPI POP PUSH2 0x73C DUP2 PUSH2 0x737 PUSH2 0x1999 JUMP JUMPDEST PUSH2 0x17CC JUMP JUMPDEST JUMPDEST PUSH2 0x77C JUMPI PUSH1 0x40 MLOAD PUSH32 0x8C379A000000000000000000000000000000000000000000000000000000000 DUP2 MSTORE PUSH1 0x4 ADD PUSH2 0x773 SWAP1 PUSH2 0x4514 JUMP JUMPDEST PUSH1 0x40 MLOAD DUP1 SWAP2 SUB SWAP1 REVERT JUMPDEST PUSH2 0x786 DUP4 DUP4 PUSH2 0x19A1 JUMP JUMPDEST POP POP POP JUMP JUMPDEST PUSH2 0x794 DUP2 PUSH2 0x1A5A JUMP JUMPDEST PUSH2 0x7D3 JUMPI PUSH1 0x40 MLOAD PUSH32 0x8C379A000000000000000000000000000000000000000000000000000000000 DUP2 MSTORE PUSH1 0x4 ADD PUSH2 0x7CA SWAP1 PUSH2 0x4554 JUMP JUMPDEST PUSH1 0x40 MLOAD DUP1 SWAP2 SUB SWAP1 REVERT JUMPDEST CALLER PUSH20 0xFFFFFFFFFFFFFFFFFFFFFFFFFFFFFFFFFFFFFFFF AND ADDRESS PUSH20 0xFFFFFFFFFFFFFFFFFFFFFFFFFFFFFFFFFFFFFFFF AND PUSH4 0x6352211E DUP4 PUSH1 0x40 MLOAD DUP3 PUSH4 0xFFFFFFFF AND PUSH1 0xE0 SHL DUP2 MSTORE PUSH1 0x4 ADD PUSH2 0x823 SWAP2 SWAP1 PUSH2 0x45B4 JUMP JUMPDEST PUSH1 0x20 PUSH1 0x40 MLOAD DUP1 DUP4 SUB DUP2 DUP7 DUP1 EXTCODESIZE ISZERO DUP1 ISZERO PUSH2 0x83B JUMPI PUSH1 0x0 DUP1 REVERT JUMPDEST POP GAS STATICCALL ISZERO DUP1 ISZERO PUSH2 0x84F JUMPI RETURNDATASIZE PUSH1 0x0 DUP1 RETURNDATACOPY RETURNDATASIZE PUSH1 0x0 REVERT JUMPDEST POP POP POP POP PUSH1 0x40 MLOAD RETURNDATASIZE PUSH1 0x1F NOT PUSH1 0x1F DUP3 ADD AND DUP3 ADD DUP1 PUSH1 0x40 MSTORE POP DUP2 ADD SWAP1 PUSH2 0x873 SWAP2 SWAP1 PUSH2 0x3691 JUMP JUMPDEST PUSH20 0xFFFFFFFFFFFFFFFFFFFFFFFFFFFFFFFFFFFFFFFF AND EQ PUSH2 0x8C9 JUMPI PUSH1 0x40 MLOAD PUSH32 0x8C379A000000000000000000000000000000000000000000000000000000000 DUP2 MSTORE PUSH1 0x4 ADD PUSH2 0x8C0 SWAP1 PUSH2 0x4574 JUMP JUMPDEST PUSH1 0x40 MLOAD DUP1 SWAP2 SUB SWAP1 REVERT JUMPDEST ADDRESS PUSH20 0xFFFFFFFFFFFFFFFFFFFFFFFFFFFFFFFFFFFFFFFF AND PUSH4 0xD5C78A28 DUP3 PUSH1 0x40 MLOAD DUP3 PUSH4 0xFFFFFFFF AND PUSH1 0xE0 SHL DUP2 MSTORE PUSH1 0x4 ADD PUSH2 0x902 SWAP2 SWAP1 PUSH2 0x45B4 JUMP JUMPDEST PUSH1 0x20 PUSH1 0x40 MLOAD DUP1 DUP4 SUB DUP2 DUP7 DUP1 EXTCODESIZE ISZERO DUP1 ISZERO PUSH2 0x91A JUMPI PUSH1 0x0 DUP1 REVERT JUMPDEST POP GAS STATICCALL ISZERO DUP1 ISZERO PUSH2 0x92E JUMPI RETURNDATASIZE PUSH1 0x0 DUP1 RETURNDATACOPY RETURNDATASIZE PUSH1 0x0 REVERT JUMPDEST POP POP POP POP PUSH1 0x40 MLOAD RETURNDATASIZE PUSH1 0x1F NOT PUSH1 0x1F DUP3 ADD AND DUP3 ADD DUP1 PUSH1 0x40 MSTORE POP DUP2 ADD SWAP1 PUSH2 0x952 SWAP2 SWAP1 PUSH2 0x3854 JUMP JUMPDEST PUSH2 0x991 JUMPI PUSH1 0x40 MLOAD PUSH32 0x8C379A000000000000000000000000000000000000000000000000000000000 DUP2 MSTORE PUSH1 0x4 ADD PUSH2 0x988 SWAP1 PUSH2 0x4594 JUMP JUMPDEST PUSH1 0x40 MLOAD DUP1 SWAP2 SUB SWAP1 REVERT JUMPDEST TIMESTAMP PUSH1 0xC DUP3 DUP2 SLOAD DUP2 LT PUSH2 0x9A6 JUMPI PUSH2 0x9A5 PUSH2 0x4AFD JUMP JUMPDEST JUMPDEST SWAP1 PUSH1 0x0 MSTORE PUSH1 0x20 PUSH1 0x0 KECCAK256 ADD DUP2 SWAP1 SSTORE POP POP JUMP JUMPDEST PUSH2 0x9C8 PUSH2 0x9C2 PUSH2 0x1999 JUMP JUMPDEST DUP3 PUSH2 0x1A9B JUMP JUMPDEST PUSH2 0xA07 JUMPI PUSH1 0x40 MLOAD PUSH32 0x8C379A000000000000000000000000000000000000000000000000000000000 DUP2 MSTORE PUSH1 0x4 ADD PUSH2 0x9FE SWAP1 PUSH2 0x4394 JUMP JUMPDEST PUSH1 0x40 MLOAD DUP1 SWAP2 SUB SWAP1 REVERT JUMPDEST PUSH2 0xA12 DUP4 DUP4 DUP4 PUSH2 0x1B30 JUMP JUMPDEST POP POP POP JUMP JUMPDEST PUSH1 0x0 PUSH1 0x8 DUP1 SLOAD SWAP1 POP SWAP1 POP PUSH2 0xA2B CALLER DUP3 PUSH2 0x1E2A JUMP JUMPDEST PUSH1 0x8 DUP9 DUP9 SWAP1 SWAP2 DUP1 PUSH1 0x1 DUP2 SLOAD ADD DUP1 DUP3 SSTORE DUP1 SWAP2 POP POP PUSH1 0x1 SWAP1 SUB SWAP1 PUSH1 0x0 MSTORE PUSH1 0x20 PUSH1 0x0 KECCAK256 ADD PUSH1 0x0 SWAP1 SWAP2 SWAP3 SWAP1 SWAP2 SWAP3 SWAP1 SWAP2 SWAP3 SWAP1 SWAP2 SWAP3 POP SWAP2 SWAP1 PUSH2 0xA68 SWAP3 SWAP2 SWAP1 PUSH2 0x344E JUMP JUMPDEST POP PUSH1 0x9 DUP7 DUP7 SWAP1 SWAP2 DUP1 PUSH1 0x1 DUP2 SLOAD ADD DUP1 DUP3 SSTORE DUP1 SWAP2 POP POP PUSH1 0x1 SWAP1 SUB SWAP1 PUSH1 0x0 MSTORE PUSH1 0x20 PUSH1 0x0 KECCAK256 ADD PUSH1 0x0 SWAP1 SWAP2 SWAP3 SWAP1 SWAP2 SWAP3 SWAP1 SWAP2 SWAP3 SWAP1 SWAP2 SWAP3 POP SWAP2 SWAP1 PUSH2 0xAA6 SWAP3 SWAP2 SWAP1 PUSH2 0x344E JUMP JUMPDEST POP PUSH1 0xA DUP5 DUP5 SWAP1 SWAP2 DUP1 PUSH1 0x1 DUP2 SLOAD ADD DUP1 DUP3 SSTORE DUP1 SWAP2 POP POP PUSH1 0x1 SWAP1 SUB SWAP1 PUSH1 0x0 MSTORE PUSH1 0x20 PUSH1 0x0 KECCAK256 ADD PUSH1 0x0 SWAP1 SWAP2 SWAP3 SWAP1 SWAP2 SWAP3 SWAP1 SWAP2 SWAP3 SWAP1 SWAP2 SWAP3 POP SWAP2 SWAP1 PUSH2 0xAE4 SWAP3 SWAP2 SWAP1 PUSH2 0x344E JUMP JUMPDEST POP PUSH1 0xD DUP3 SWAP1 DUP1 PUSH1 0x1 DUP2 SLOAD ADD DUP1 DUP3 SSTORE DUP1 SWAP2 POP POP PUSH1 0x1 SWAP1 SUB SWAP1 PUSH1 0x0 MSTORE PUSH1 0x20 PUSH1 0x0 KECCAK256 ADD PUSH1 0x0 SWAP1 SWAP2 SWAP1 SWAP2 SWAP1 SWAP2 POP SSTORE PUSH1 0xC PUSH1 0x0 SWAP1 DUP1 PUSH1 0x1 DUP2 SLOAD ADD DUP1 DUP3 SSTORE DUP1 SWAP2 POP POP PUSH1 0x1 SWAP1 SUB SWAP1 PUSH1 0x0 MSTORE PUSH1 0x20 PUSH1 0x0 KECCAK256 ADD PUSH1 0x0 SWAP1 SWAP2 SWAP1 SWAP2 SWAP1 SWAP2 POP SSTORE PUSH1 0xB TIMESTAMP SWAP1 DUP1 PUSH1 0x1 DUP2 SLOAD ADD DUP1 DUP3 SSTORE DUP1 SWAP2 POP POP PUSH1 0x1 SWAP1 SUB SWAP1 PUSH1 0x0 MSTORE PUSH1 0x20 PUSH1 0x0 KECCAK256 ADD PUSH1 0x0 SWAP1 SWAP2 SWAP1 SWAP2 SWAP1 SWAP2 POP SSTORE POP POP POP POP POP POP POP POP JUMP JUMPDEST PUSH2 0xB86 DUP4 DUP4 DUP4 PUSH1 0x40 MLOAD DUP1 PUSH1 0x20 ADD PUSH1 0x40 MSTORE DUP1 PUSH1 0x0 DUP2 MSTORE POP PUSH2 0x1070 JUMP JUMPDEST POP POP POP JUMP JUMPDEST PUSH1 0x0 PUSH2 0xB96 DUP3 PUSH2 0x1A5A JUMP JUMPDEST PUSH2 0xBD5 JUMPI PUSH1 0x40 MLOAD PUSH32 0x8C379A000000000000000000000000000000000000000000000000000000000 DUP2 MSTORE PUSH1 0x4 ADD PUSH2 0xBCC SWAP1 PUSH2 0x4554 JUMP JUMPDEST PUSH1 0x40 MLOAD DUP1 SWAP2 SUB SWAP1 REVERT JUMPDEST PUSH1 0xB DUP3 DUP2 SLOAD DUP2 LT PUSH2 0xBE9 JUMPI PUSH2 0xBE8 PUSH2 0x4AFD JUMP JUMPDEST JUMPDEST SWAP1 PUSH1 0x0 MSTORE PUSH1 0x20 PUSH1 0x0 KECCAK256 ADD SLOAD SWAP1 POP SWAP2 SWAP1 POP JUMP JUMPDEST PUSH1 0x0 DUP1 PUSH2 0xC07 DUP4 PUSH2 0x1E48 JUMP JUMPDEST SWAP1 POP PUSH1 0x0 PUSH20 0xFFFFFFFFFFFFFFFFFFFFFFFFFFFFFFFFFFFFFFFF AND DUP2 PUSH20 0xFFFFFFFFFFFFFFFFFFFFFFFFFFFFFFFFFFFFFFFF AND EQ ISZERO PUSH2 0xC79 JUMPI PUSH1 0x40 MLOAD PUSH32 0x8C379A000000000000000000000000000000000000000000000000000000000 DUP2 MSTORE PUSH1 0x4 ADD PUSH2 0xC70 SWAP1 PUSH2 0x44D4 JUMP JUMPDEST PUSH1 0x40 MLOAD DUP1 SWAP2 SUB SWAP1 REVERT JUMPDEST DUP1 SWAP2 POP POP SWAP2 SWAP1 POP JUMP JUMPDEST PUSH1 0x0 DUP1 PUSH20 0xFFFFFFFFFFFFFFFFFFFFFFFFFFFFFFFFFFFFFFFF AND DUP3 PUSH20 0xFFFFFFFFFFFFFFFFFFFFFFFFFFFFFFFFFFFFFFFF AND EQ ISZERO PUSH2 0xCF3 JUMPI PUSH1 0x40 MLOAD PUSH32 0x8C379A000000000000000000000000000000000000000000000000000000000 DUP2 MSTORE PUSH1 0x4 ADD PUSH2 0xCEA SWAP1 PUSH2 0x4474 JUMP JUMPDEST PUSH1 0x40 MLOAD DUP1 SWAP2 SUB SWAP1 REVERT JUMPDEST PUSH1 0x3 PUSH1 0x0 DUP4 PUSH20 0xFFFFFFFFFFFFFFFFFFFFFFFFFFFFFFFFFFFFFFFF AND PUSH20 0xFFFFFFFFFFFFFFFFFFFFFFFFFFFFFFFFFFFFFFFF AND DUP2 MSTORE PUSH1 0x20 ADD SWAP1 DUP2 MSTORE PUSH1 0x20 ADD PUSH1 0x0 KECCAK256 SLOAD SWAP1 POP SWAP2 SWAP1 POP JUMP JUMPDEST PUSH2 0xD42 PUSH2 0x1E85 JUMP JUMPDEST PUSH2 0xD4C PUSH1 0x0 PUSH2 0x1F03 JUMP JUMPDEST JUMP JUMPDEST PUSH1 0x0 PUSH1 0x6 PUSH1 0x0 SWAP1 SLOAD SWAP1 PUSH2 0x100 EXP SWAP1 DIV PUSH20 0xFFFFFFFFFFFFFFFFFFFFFFFFFFFFFFFFFFFFFFFF AND SWAP1 POP SWAP1 JUMP JUMPDEST PUSH1 0x60 PUSH1 0x1 DUP1 SLOAD PUSH2 0xD87 SWAP1 PUSH2 0x49C4 JUMP JUMPDEST DUP1 PUSH1 0x1F ADD PUSH1 0x20 DUP1 SWAP2 DIV MUL PUSH1 0x20 ADD PUSH1 0x40 MLOAD SWAP1 DUP2 ADD PUSH1 0x40 MSTORE DUP1 SWAP3 SWAP2 SWAP1 DUP2 DUP2 MSTORE PUSH1 0x20 ADD DUP3 DUP1 SLOAD PUSH2 0xDB3 SWAP1 PUSH2 0x49C4 JUMP JUMPDEST DUP1 ISZERO PUSH2 0xE00 JUMPI DUP1 PUSH1 0x1F LT PUSH2 0xDD5 JUMPI PUSH2 0x100 DUP1 DUP4 SLOAD DIV MUL DUP4 MSTORE SWAP2 PUSH1 0x20 ADD SWAP2 PUSH2 0xE00 JUMP JUMPDEST DUP3 ADD SWAP2 SWAP1 PUSH1 0x0 MSTORE PUSH1 0x20 PUSH1 0x0 KECCAK256 SWAP1 JUMPDEST DUP2 SLOAD DUP2 MSTORE SWAP1 PUSH1 0x1 ADD SWAP1 PUSH1 0x20 ADD DUP1 DUP4 GT PUSH2 0xDE3 JUMPI DUP3 SWAP1 SUB PUSH1 0x1F AND DUP3 ADD SWAP2 JUMPDEST POP POP POP POP POP SWAP1 POP SWAP1 JUMP JUMPDEST PUSH2 0xE1C PUSH2 0xE15 PUSH2 0x1999 JUMP JUMPDEST DUP4 DUP4 PUSH2 0x1FC9 JUMP JUMPDEST POP POP JUMP JUMPDEST PUSH2 0xE29 DUP2 PUSH2 0x1A5A JUMP JUMPDEST PUSH2 0xE68 JUMPI PUSH1 0x40 MLOAD PUSH32 0x8C379A000000000000000000000000000000000000000000000000000000000 DUP2 MSTORE PUSH1 0x4 ADD PUSH2 0xE5F SWAP1 PUSH2 0x4554 JUMP JUMPDEST PUSH1 0x40 MLOAD DUP1 SWAP2 SUB SWAP1 REVERT JUMPDEST CALLER PUSH20 0xFFFFFFFFFFFFFFFFFFFFFFFFFFFFFFFFFFFFFFFF AND ADDRESS PUSH20 0xFFFFFFFFFFFFFFFFFFFFFFFFFFFFFFFFFFFFFFFF AND PUSH4 0x6352211E DUP4 PUSH1 0x40 MLOAD DUP3 PUSH4 0xFFFFFFFF AND PUSH1 0xE0 SHL DUP2 MSTORE PUSH1 0x4 ADD PUSH2 0xEB8 SWAP2 SWAP1 PUSH2 0x45B4 JUMP JUMPDEST PUSH1 0x20 PUSH1 0x40 MLOAD DUP1 DUP4 SUB DUP2 DUP7 DUP1 EXTCODESIZE ISZERO DUP1 ISZERO PUSH2 0xED0 JUMPI PUSH1 0x0 DUP1 REVERT JUMPDEST POP GAS STATICCALL ISZERO DUP1 ISZERO PUSH2 0xEE4 JUMPI RETURNDATASIZE PUSH1 0x0 DUP1 RETURNDATACOPY RETURNDATASIZE PUSH1 0x0 REVERT JUMPDEST POP POP POP POP PUSH1 0x40 MLOAD RETURNDATASIZE PUSH1 0x1F NOT PUSH1 0x1F DUP3 ADD AND DUP3 ADD DUP1 PUSH1 0x40 MSTORE POP DUP2 ADD SWAP1 PUSH2 0xF08 SWAP2 SWAP1 PUSH2 0x3691 JUMP JUMPDEST PUSH20 0xFFFFFFFFFFFFFFFFFFFFFFFFFFFFFFFFFFFFFFFF AND EQ PUSH2 0xF5E JUMPI PUSH1 0x40 MLOAD PUSH32 0x8C379A000000000000000000000000000000000000000000000000000000000 DUP2 MSTORE PUSH1 0x4 ADD PUSH2 0xF55 SWAP1 PUSH2 0x4574 JUMP JUMPDEST PUSH1 0x40 MLOAD DUP1 SWAP2 SUB SWAP1 REVERT JUMPDEST ADDRESS PUSH20 0xFFFFFFFFFFFFFFFFFFFFFFFFFFFFFFFFFFFFFFFF AND PUSH4 0xD5C78A28 DUP3 PUSH1 0x40 MLOAD DUP3 PUSH4 0xFFFFFFFF AND PUSH1 0xE0 SHL DUP2 MSTORE PUSH1 0x4 ADD PUSH2 0xF97 SWAP2 SWAP1 PUSH2 0x45B4 JUMP JUMPDEST PUSH1 0x20 PUSH1 0x40 MLOAD DUP1 DUP4 SUB DUP2 DUP7 DUP1 EXTCODESIZE ISZERO DUP1 ISZERO PUSH2 0xFAF JUMPI PUSH1 0x0 DUP1 REVERT JUMPDEST POP GAS STATICCALL ISZERO DUP1 ISZERO PUSH2 0xFC3 JUMPI RETURNDATASIZE PUSH1 0x0 DUP1 RETURNDATACOPY RETURNDATASIZE PUSH1 0x0 REVERT JUMPDEST POP POP POP POP PUSH1 0x40 MLOAD RETURNDATASIZE PUSH1 0x1F NOT PUSH1 0x1F DUP3 ADD AND DUP3 ADD DUP1 PUSH1 0x40 MSTORE POP DUP2 ADD SWAP1 PUSH2 0xFE7 SWAP2 SWAP1 PUSH2 0x3854 JUMP JUMPDEST PUSH2 0x1026 JUMPI PUSH1 0x40 MLOAD PUSH32 0x8C379A000000000000000000000000000000000000000000000000000000000 DUP2 MSTORE PUSH1 0x4 ADD PUSH2 0x101D SWAP1 PUSH2 0x4534 JUMP JUMPDEST PUSH1 0x40 MLOAD DUP1 SWAP2 SUB SWAP1 REVERT JUMPDEST PUSH1 0x0 PUSH1 0xC DUP3 DUP2 SLOAD DUP2 LT PUSH2 0x103C JUMPI PUSH2 0x103B PUSH2 0x4AFD JUMP JUMPDEST JUMPDEST SWAP1 PUSH1 0x0 MSTORE PUSH1 0x20 PUSH1 0x0 KECCAK256 ADD DUP2 SWAP1 SSTORE POP TIMESTAMP PUSH1 0xB DUP3 DUP2 SLOAD DUP2 LT PUSH2 0x105F JUMPI PUSH2 0x105E PUSH2 0x4AFD JUMP JUMPDEST JUMPDEST SWAP1 PUSH1 0x0 MSTORE PUSH1 0x20 PUSH1 0x0 KECCAK256 ADD DUP2 SWAP1 SSTORE POP POP JUMP JUMPDEST PUSH2 0x1081 PUSH2 0x107B PUSH2 0x1999 JUMP JUMPDEST DUP4 PUSH2 0x1A9B JUMP JUMPDEST PUSH2 0x10C0 JUMPI PUSH1 0x40 MLOAD PUSH32 0x8C379A000000000000000000000000000000000000000000000000000000000 DUP2 MSTORE PUSH1 0x4 ADD PUSH2 0x10B7 SWAP1 PUSH2 0x4394 JUMP JUMPDEST PUSH1 0x40 MLOAD DUP1 SWAP2 SUB SWAP1 REVERT JUMPDEST PUSH2 0x10CC DUP5 DUP5 DUP5 DUP5 PUSH2 0x2136 JUMP JUMPDEST POP POP POP POP JUMP JUMPDEST PUSH2 0x10DB DUP3 PUSH2 0x1A5A JUMP JUMPDEST PUSH2 0x111A JUMPI PUSH1 0x40 MLOAD PUSH32 0x8C379A000000000000000000000000000000000000000000000000000000000 DUP2 MSTORE PUSH1 0x4 ADD PUSH2 0x1111 SWAP1 PUSH2 0x4554 JUMP JUMPDEST PUSH1 0x40 MLOAD DUP1 SWAP2 SUB SWAP1 REVERT JUMPDEST CALLER PUSH20 0xFFFFFFFFFFFFFFFFFFFFFFFFFFFFFFFFFFFFFFFF AND ADDRESS PUSH20 0xFFFFFFFFFFFFFFFFFFFFFFFFFFFFFFFFFFFFFFFF AND PUSH4 0x6352211E DUP5 PUSH1 0x40 MLOAD DUP3 PUSH4 0xFFFFFFFF AND PUSH1 0xE0 SHL DUP2 MSTORE PUSH1 0x4 ADD PUSH2 0x116A SWAP2 SWAP1 PUSH2 0x45B4 JUMP JUMPDEST PUSH1 0x20 PUSH1 0x40 MLOAD DUP1 DUP4 SUB DUP2 DUP7 DUP1 EXTCODESIZE ISZERO DUP1 ISZERO PUSH2 0x1182 JUMPI PUSH1 0x0 DUP1 REVERT JUMPDEST POP GAS STATICCALL ISZERO DUP1 ISZERO PUSH2 0x1196 JUMPI RETURNDATASIZE PUSH1 0x0 DUP1 RETURNDATACOPY RETURNDATASIZE PUSH1 0x0 REVERT JUMPDEST POP POP POP POP PUSH1 0x40 MLOAD RETURNDATASIZE PUSH1 0x1F NOT PUSH1 0x1F DUP3 ADD AND DUP3 ADD DUP1 PUSH1 0x40 MSTORE POP DUP2 ADD SWAP1 PUSH2 0x11BA SWAP2 SWAP1 PUSH2 0x3691 JUMP JUMPDEST PUSH20 0xFFFFFFFFFFFFFFFFFFFFFFFFFFFFFFFFFFFFFFFF AND EQ PUSH2 0x1210 JUMPI PUSH1 0x40 MLOAD PUSH32 0x8C379A000000000000000000000000000000000000000000000000000000000 DUP2 MSTORE PUSH1 0x4 ADD PUSH2 0x1207 SWAP1 PUSH2 0x4574 JUMP JUMPDEST PUSH1 0x40 MLOAD DUP1 SWAP2 SUB SWAP1 REVERT JUMPDEST DUP1 PUSH1 0xD DUP4 DUP2 SLOAD DUP2 LT PUSH2 0x1225 JUMPI PUSH2 0x1224 PUSH2 0x4AFD JUMP JUMPDEST JUMPDEST SWAP1 PUSH1 0x0 MSTORE PUSH1 0x20 PUSH1 0x0 KECCAK256 ADD DUP2 SWAP1 SSTORE POP POP POP JUMP JUMPDEST PUSH1 0x60 PUSH2 0x1242 DUP3 PUSH2 0x1A5A JUMP JUMPDEST PUSH2 0x1281 JUMPI PUSH1 0x40 MLOAD PUSH32 0x8C379A000000000000000000000000000000000000000000000000000000000 DUP2 MSTORE PUSH1 0x4 ADD PUSH2 0x1278 SWAP1 PUSH2 0x4554 JUMP JUMPDEST PUSH1 0x40 MLOAD DUP1 SWAP2 SUB SWAP1 REVERT JUMPDEST PUSH1 0x0 PUSH1 0xA DUP4 DUP2 SLOAD DUP2 LT PUSH2 0x1297 JUMPI PUSH2 0x1296 PUSH2 0x4AFD JUMP JUMPDEST JUMPDEST SWAP1 PUSH1 0x0 MSTORE PUSH1 0x20 PUSH1 0x0 KECCAK256 ADD DUP1 SLOAD PUSH2 0x12AC SWAP1 PUSH2 0x49C4 JUMP JUMPDEST DUP1 PUSH1 0x1F ADD PUSH1 0x20 DUP1 SWAP2 DIV MUL PUSH1 0x20 ADD PUSH1 0x40 MLOAD SWAP1 DUP2 ADD PUSH1 0x40 MSTORE DUP1 SWAP3 SWAP2 SWAP1 DUP2 DUP2 MSTORE PUSH1 0x20 ADD DUP3 DUP1 SLOAD PUSH2 0x12D8 SWAP1 PUSH2 0x49C4 JUMP JUMPDEST DUP1 ISZERO PUSH2 0x1325 JUMPI DUP1 PUSH1 0x1F LT PUSH2 0x12FA JUMPI PUSH2 0x100 DUP1 DUP4 SLOAD DIV MUL DUP4 MSTORE SWAP2 PUSH1 0x20 ADD SWAP2 PUSH2 0x1325 JUMP JUMPDEST DUP3 ADD SWAP2 SWAP1 PUSH1 0x0 MSTORE PUSH1 0x20 PUSH1 0x0 KECCAK256 SWAP1 JUMPDEST DUP2 SLOAD DUP2 MSTORE SWAP1 PUSH1 0x1 ADD SWAP1 PUSH1 0x20 ADD DUP1 DUP4 GT PUSH2 0x1308 JUMPI DUP3 SWAP1 SUB PUSH1 0x1F AND DUP3 ADD SWAP2 JUMPDEST POP POP POP POP POP SWAP1 POP PUSH1 0x0 PUSH1 0x7 DUP1 SLOAD PUSH2 0x133B SWAP1 PUSH2 0x49C4 JUMP JUMPDEST DUP1 PUSH1 0x1F ADD PUSH1 0x20 DUP1 SWAP2 DIV MUL PUSH1 0x20 ADD PUSH1 0x40 MLOAD SWAP1 DUP2 ADD PUSH1 0x40 MSTORE DUP1 SWAP3 SWAP2 SWAP1 DUP2 DUP2 MSTORE PUSH1 0x20 ADD DUP3 DUP1 SLOAD PUSH2 0x1367 SWAP1 PUSH2 0x49C4 JUMP JUMPDEST DUP1 ISZERO PUSH2 0x13B4 JUMPI DUP1 PUSH1 0x1F LT PUSH2 0x1389 JUMPI PUSH2 0x100 DUP1 DUP4 SLOAD DIV MUL DUP4 MSTORE SWAP2 PUSH1 0x20 ADD SWAP2 PUSH2 0x13B4 JUMP JUMPDEST DUP3 ADD SWAP2 SWAP1 PUSH1 0x0 MSTORE PUSH1 0x20 PUSH1 0x0 KECCAK256 SWAP1 JUMPDEST DUP2 SLOAD DUP2 MSTORE SWAP1 PUSH1 0x1 ADD SWAP1 PUSH1 0x20 ADD DUP1 DUP4 GT PUSH2 0x1397 JUMPI DUP3 SWAP1 SUB PUSH1 0x1F AND DUP3 ADD SWAP2 JUMPDEST POP POP POP POP POP SWAP1 POP PUSH1 0x0 PUSH1 0xD DUP6 DUP2 SLOAD DUP2 LT PUSH2 0x13D1 JUMPI PUSH2 0x13D0 PUSH2 0x4AFD JUMP JUMPDEST JUMPDEST SWAP1 PUSH1 0x0 MSTORE PUSH1 0x20 PUSH1 0x0 KECCAK256 ADD SLOAD SWAP1 POP PUSH1 0x0 PUSH1 0x8 DUP7 DUP2 SLOAD DUP2 LT PUSH2 0x13F4 JUMPI PUSH2 0x13F3 PUSH2 0x4AFD JUMP JUMPDEST JUMPDEST SWAP1 PUSH1 0x0 MSTORE PUSH1 0x20 PUSH1 0x0 KECCAK256 ADD PUSH1 0x40 MLOAD PUSH1 0x20 ADD PUSH2 0x140E SWAP2 SWAP1 PUSH2 0x417B JUMP JUMPDEST PUSH1 0x40 MLOAD PUSH1 0x20 DUP2 DUP4 SUB SUB DUP2 MSTORE SWAP1 PUSH1 0x40 MSTORE SWAP1 POP PUSH1 0x0 PUSH1 0x9 DUP8 DUP2 SLOAD DUP2 LT PUSH2 0x1435 JUMPI PUSH2 0x1434 PUSH2 0x4AFD JUMP JUMPDEST JUMPDEST SWAP1 PUSH1 0x0 MSTORE PUSH1 0x20 PUSH1 0x0 KECCAK256 ADD PUSH1 0x40 MLOAD PUSH1 0x20 ADD PUSH2 0x144F SWAP2 SWAP1 PUSH2 0x40A0 JUMP JUMPDEST PUSH1 0x40 MLOAD PUSH1 0x20 DUP2 DUP4 SUB SUB DUP2 MSTORE SWAP1 PUSH1 0x40 MSTORE SWAP1 POP PUSH1 0x0 PUSH2 0x14FE PUSH2 0x14F9 DUP8 DUP8 DUP8 ADDRESS PUSH20 0xFFFFFFFFFFFFFFFFFFFFFFFFFFFFFFFFFFFFFFFF AND PUSH4 0xD5C78A28 DUP15 PUSH1 0x40 MLOAD DUP3 PUSH4 0xFFFFFFFF AND PUSH1 0xE0 SHL DUP2 MSTORE PUSH1 0x4 ADD PUSH2 0x14A4 SWAP2 SWAP1 PUSH2 0x45B4 JUMP JUMPDEST PUSH1 0x20 PUSH1 0x40 MLOAD DUP1 DUP4 SUB DUP2 DUP7 DUP1 EXTCODESIZE ISZERO DUP1 ISZERO PUSH2 0x14BC JUMPI PUSH1 0x0 DUP1 REVERT JUMPDEST POP GAS STATICCALL ISZERO DUP1 ISZERO PUSH2 0x14D0 JUMPI RETURNDATASIZE PUSH1 0x0 DUP1 RETURNDATACOPY RETURNDATASIZE PUSH1 0x0 REVERT JUMPDEST POP POP POP POP PUSH1 0x40 MLOAD RETURNDATASIZE PUSH1 0x1F NOT PUSH1 0x1F DUP3 ADD AND DUP3 ADD DUP1 PUSH1 0x40 MSTORE POP DUP2 ADD SWAP1 PUSH2 0x14F4 SWAP2 SWAP1 PUSH2 0x3854 JUMP JUMPDEST PUSH2 0x2192 JUMP JUMPDEST PUSH2 0x2572 JUMP JUMPDEST PUSH1 0x40 MLOAD PUSH1 0x20 ADD PUSH2 0x150E SWAP2 SWAP1 PUSH2 0x4296 JUMP JUMPDEST PUSH1 0x40 MLOAD PUSH1 0x20 DUP2 DUP4 SUB SUB DUP2 MSTORE SWAP1 PUSH1 0x40 MSTORE SWAP1 POP PUSH1 0x0 DUP4 DUP4 DUP4 PUSH1 0x40 MLOAD PUSH1 0x20 ADD PUSH2 0x1536 SWAP4 SWAP3 SWAP2 SWAP1 PUSH2 0x4202 JUMP JUMPDEST PUSH1 0x40 MLOAD PUSH1 0x20 DUP2 DUP4 SUB SUB DUP2 MSTORE SWAP1 PUSH1 0x40 MSTORE SWAP1 POP PUSH1 0x0 PUSH2 0x1552 DUP3 PUSH2 0x2572 JUMP JUMPDEST PUSH1 0x40 MLOAD PUSH1 0x20 ADD PUSH2 0x1562 SWAP2 SWAP1 PUSH2 0x425F JUMP JUMPDEST PUSH1 0x40 MLOAD PUSH1 0x20 DUP2 DUP4 SUB SUB DUP2 MSTORE SWAP1 PUSH1 0x40 MSTORE SWAP1 POP DUP1 SWAP9 POP POP POP POP POP POP POP POP POP SWAP2 SWAP1 POP JUMP JUMPDEST PUSH1 0x0 PUSH2 0x158E DUP3 PUSH2 0x1A5A JUMP JUMPDEST PUSH2 0x15CD JUMPI PUSH1 0x40 MLOAD PUSH32 0x8C379A000000000000000000000000000000000000000000000000000000000 DUP2 MSTORE PUSH1 0x4 ADD PUSH2 0x15C4 SWAP1 PUSH2 0x4554 JUMP JUMPDEST PUSH1 0x40 MLOAD DUP1 SWAP2 SUB SWAP1 REVERT JUMPDEST PUSH1 0xC DUP3 DUP2 SLOAD DUP2 LT PUSH2 0x15E1 JUMPI PUSH2 0x15E0 PUSH2 0x4AFD JUMP JUMPDEST JUMPDEST SWAP1 PUSH1 0x0 MSTORE PUSH1 0x20 PUSH1 0x0 KECCAK256 ADD SLOAD PUSH1 0x0 LT SWAP1 POP SWAP2 SWAP1 POP JUMP JUMPDEST PUSH1 0x0 PUSH2 0x1601 DUP3 PUSH2 0x1A5A JUMP JUMPDEST PUSH2 0x1640 JUMPI PUSH1 0x40 MLOAD PUSH32 0x8C379A000000000000000000000000000000000000000000000000000000000 DUP2 MSTORE PUSH1 0x4 ADD PUSH2 0x1637 SWAP1 PUSH2 0x4554 JUMP JUMPDEST PUSH1 0x40 MLOAD DUP1 SWAP2 SUB SWAP1 REVERT JUMPDEST PUSH1 0xC DUP3 DUP2 SLOAD DUP2 LT PUSH2 0x1654 JUMPI PUSH2 0x1653 PUSH2 0x4AFD JUMP JUMPDEST JUMPDEST SWAP1 PUSH1 0x0 MSTORE PUSH1 0x20 PUSH1 0x0 KECCAK256 ADD SLOAD SWAP1 POP SWAP2 SWAP1 POP JUMP JUMPDEST PUSH1 0x0 PUSH2 0x1671 DUP3 PUSH2 0x1A5A JUMP JUMPDEST PUSH2 0x16B0 JUMPI PUSH1 0x40 MLOAD PUSH32 0x8C379A000000000000000000000000000000000000000000000000000000000 DUP2 MSTORE PUSH1 0x4 ADD PUSH2 0x16A7 SWAP1 PUSH2 0x4554 JUMP JUMPDEST PUSH1 0x40 MLOAD DUP1 SWAP2 SUB SWAP1 REVERT JUMPDEST CALLER PUSH20 0xFFFFFFFFFFFFFFFFFFFFFFFFFFFFFFFFFFFFFFFF AND ADDRESS PUSH20 0xFFFFFFFFFFFFFFFFFFFFFFFFFFFFFFFFFFFFFFFF AND PUSH4 0x6352211E DUP5 PUSH1 0x40 MLOAD DUP3 PUSH4 0xFFFFFFFF AND PUSH1 0xE0 SHL DUP2 MSTORE PUSH1 0x4 ADD PUSH2 0x1700 SWAP2 SWAP1 PUSH2 0x45B4 JUMP JUMPDEST PUSH1 0x20 PUSH1 0x40 MLOAD DUP1 DUP4 SUB DUP2 DUP7 DUP1 EXTCODESIZE ISZERO DUP1 ISZERO PUSH2 0x1718 JUMPI PUSH1 0x0 DUP1 REVERT JUMPDEST POP GAS STATICCALL ISZERO DUP1 ISZERO PUSH2 0x172C JUMPI RETURNDATASIZE PUSH1 0x0 DUP1 RETURNDATACOPY RETURNDATASIZE PUSH1 0x0 REVERT JUMPDEST POP POP POP POP PUSH1 0x40 MLOAD RETURNDATASIZE PUSH1 0x1F NOT PUSH1 0x1F DUP3 ADD AND DUP3 ADD DUP1 PUSH1 0x40 MSTORE POP DUP2 ADD SWAP1 PUSH2 0x1750 SWAP2 SWAP1 PUSH2 0x3691 JUMP JUMPDEST PUSH20 0xFFFFFFFFFFFFFFFFFFFFFFFFFFFFFFFFFFFFFFFF AND EQ PUSH2 0x17A6 JUMPI PUSH1 0x40 MLOAD PUSH32 0x8C379A000000000000000000000000000000000000000000000000000000000 DUP2 MSTORE PUSH1 0x4 ADD PUSH2 0x179D SWAP1 PUSH2 0x4574 JUMP JUMPDEST PUSH1 0x40 MLOAD DUP1 SWAP2 SUB SWAP1 REVERT JUMPDEST PUSH1 0xD DUP3 DUP2 SLOAD DUP2 LT PUSH2 0x17BA JUMPI PUSH2 0x17B9 PUSH2 0x4AFD JUMP JUMPDEST JUMPDEST SWAP1 PUSH1 0x0 MSTORE PUSH1 0x20 PUSH1 0x0 KECCAK256 ADD SLOAD SWAP1 POP SWAP2 SWAP1 POP JUMP JUMPDEST PUSH1 0x0 PUSH1 0x5 PUSH1 0x0 DUP5 PUSH20 0xFFFFFFFFFFFFFFFFFFFFFFFFFFFFFFFFFFFFFFFF AND PUSH20 0xFFFFFFFFFFFFFFFFFFFFFFFFFFFFFFFFFFFFFFFF AND DUP2 MSTORE PUSH1 0x20 ADD SWAP1 DUP2 MSTORE PUSH1 0x20 ADD PUSH1 0x0 KECCAK256 PUSH1 0x0 DUP4 PUSH20 0xFFFFFFFFFFFFFFFFFFFFFFFFFFFFFFFFFFFFFFFF AND PUSH20 0xFFFFFFFFFFFFFFFFFFFFFFFFFFFFFFFFFFFFFFFF AND DUP2 MSTORE PUSH1 0x20 ADD SWAP1 DUP2 MSTORE PUSH1 0x20 ADD PUSH1 0x0 KECCAK256 PUSH1 0x0 SWAP1 SLOAD SWAP1 PUSH2 0x100 EXP SWAP1 DIV PUSH1 0xFF AND SWAP1 POP SWAP3 SWAP2 POP POP JUMP JUMPDEST PUSH2 0x1868 PUSH2 0x1E85 JUMP JUMPDEST PUSH1 0x0 PUSH20 0xFFFFFFFFFFFFFFFFFFFFFFFFFFFFFFFFFFFFFFFF AND DUP2 PUSH20 0xFFFFFFFFFFFFFFFFFFFFFFFFFFFFFFFFFFFFFFFF AND EQ ISZERO PUSH2 0x18D8 JUMPI PUSH1 0x40 MLOAD PUSH32 0x8C379A000000000000000000000000000000000000000000000000000000000 DUP2 MSTORE PUSH1 0x4 ADD PUSH2 0x18CF SWAP1 PUSH2 0x43D4 JUMP JUMPDEST PUSH1 0x40 MLOAD DUP1 SWAP2 SUB SWAP1 REVERT JUMPDEST PUSH2 0x18E1 DUP2 PUSH2 0x1F03 JUMP JUMPDEST POP JUMP JUMPDEST PUSH1 0x0 PUSH32 0x1FFC9A700000000000000000000000000000000000000000000000000000000 PUSH28 0xFFFFFFFFFFFFFFFFFFFFFFFFFFFFFFFFFFFFFFFFFFFFFFFFFFFFFFFF NOT AND DUP3 PUSH28 0xFFFFFFFFFFFFFFFFFFFFFFFFFFFFFFFFFFFFFFFFFFFFFFFFFFFFFFFF NOT AND EQ SWAP1 POP SWAP2 SWAP1 POP JUMP JUMPDEST PUSH2 0x1957 DUP2 PUSH2 0x1A5A JUMP JUMPDEST PUSH2 0x1996 JUMPI PUSH1 0x40 MLOAD PUSH32 0x8C379A000000000000000000000000000000000000000000000000000000000 DUP2 MSTORE PUSH1 0x4 ADD PUSH2 0x198D SWAP1 PUSH2 0x44D4 JUMP JUMPDEST PUSH1 0x40 MLOAD DUP1 SWAP2 SUB SWAP1 REVERT JUMPDEST POP JUMP JUMPDEST PUSH1 0x0 CALLER SWAP1 POP SWAP1 JUMP JUMPDEST DUP2 PUSH1 0x4 PUSH1 0x0 DUP4 DUP2 MSTORE PUSH1 0x20 ADD SWAP1 DUP2 MSTORE PUSH1 0x20 ADD PUSH1 0x0 KECCAK256 PUSH1 0x0 PUSH2 0x100 EXP DUP2 SLOAD DUP2 PUSH20 0xFFFFFFFFFFFFFFFFFFFFFFFFFFFFFFFFFFFFFFFF MUL NOT AND SWAP1 DUP4 PUSH20 0xFFFFFFFFFFFFFFFFFFFFFFFFFFFFFFFFFFFFFFFF AND MUL OR SWAP1 SSTORE POP DUP1 DUP3 PUSH20 0xFFFFFFFFFFFFFFFFFFFFFFFFFFFFFFFFFFFFFFFF AND PUSH2 0x1A14 DUP4 PUSH2 0xBFB JUMP JUMPDEST PUSH20 0xFFFFFFFFFFFFFFFFFFFFFFFFFFFFFFFFFFFFFFFF AND PUSH32 0x8C5BE1E5EBEC7D5BD14F71427D1E84F3DD0314C0F7B2291E5B200AC8C7C3B925 PUSH1 0x40 MLOAD PUSH1 0x40 MLOAD DUP1 SWAP2 SUB SWAP1 LOG4 POP POP JUMP JUMPDEST PUSH1 0x0 DUP1 PUSH20 0xFFFFFFFFFFFFFFFFFFFFFFFFFFFFFFFFFFFFFFFF AND PUSH2 0x1A7C DUP4 PUSH2 0x1E48 JUMP JUMPDEST PUSH20 0xFFFFFFFFFFFFFFFFFFFFFFFFFFFFFFFFFFFFFFFF AND EQ ISZERO SWAP1 POP SWAP2 SWAP1 POP JUMP JUMPDEST PUSH1 0x0 DUP1 PUSH2 0x1AA7 DUP4 PUSH2 0xBFB JUMP JUMPDEST SWAP1 POP DUP1 PUSH20 0xFFFFFFFFFFFFFFFFFFFFFFFFFFFFFFFFFFFFFFFF AND DUP5 PUSH20 0xFFFFFFFFFFFFFFFFFFFFFFFFFFFFFFFFFFFFFFFF AND EQ DUP1 PUSH2 0x1AE9 JUMPI POP PUSH2 0x1AE8 DUP2 DUP6 PUSH2 0x17CC JUMP JUMPDEST JUMPDEST DUP1 PUSH2 0x1B27 JUMPI POP DUP4 PUSH20 0xFFFFFFFFFFFFFFFFFFFFFFFFFFFFFFFFFFFFFFFF AND PUSH2 0x1B0F DUP5 PUSH2 0x62D JUMP JUMPDEST PUSH20 0xFFFFFFFFFFFFFFFFFFFFFFFFFFFFFFFFFFFFFFFF AND EQ JUMPDEST SWAP2 POP POP SWAP3 SWAP2 POP POP JUMP JUMPDEST DUP3 PUSH20 0xFFFFFFFFFFFFFFFFFFFFFFFFFFFFFFFFFFFFFFFF AND PUSH2 0x1B50 DUP3 PUSH2 0xBFB JUMP JUMPDEST PUSH20 0xFFFFFFFFFFFFFFFFFFFFFFFFFFFFFFFFFFFFFFFF AND EQ PUSH2 0x1BA6 JUMPI PUSH1 0x40 MLOAD PUSH32 0x8C379A000000000000000000000000000000000000000000000000000000000 DUP2 MSTORE PUSH1 0x4 ADD PUSH2 0x1B9D SWAP1 PUSH2 0x43F4 JUMP JUMPDEST PUSH1 0x40 MLOAD DUP1 SWAP2 SUB SWAP1 REVERT JUMPDEST PUSH1 0x0 PUSH20 0xFFFFFFFFFFFFFFFFFFFFFFFFFFFFFFFFFFFFFFFF AND DUP3 PUSH20 0xFFFFFFFFFFFFFFFFFFFFFFFFFFFFFFFFFFFFFFFF AND EQ ISZERO PUSH2 0x1C16 JUMPI PUSH1 0x40 MLOAD PUSH32 0x8C379A000000000000000000000000000000000000000000000000000000000 DUP2 MSTORE PUSH1 0x4 ADD PUSH2 0x1C0D SWAP1 PUSH2 0x4434 JUMP JUMPDEST PUSH1 0x40 MLOAD DUP1 SWAP2 SUB SWAP1 REVERT JUMPDEST PUSH2 0x1C23 DUP4 DUP4 DUP4 PUSH1 0x1 PUSH2 0x270A JUMP JUMPDEST DUP3 PUSH20 0xFFFFFFFFFFFFFFFFFFFFFFFFFFFFFFFFFFFFFFFF AND PUSH2 0x1C43 DUP3 PUSH2 0xBFB JUMP JUMPDEST PUSH20 0xFFFFFFFFFFFFFFFFFFFFFFFFFFFFFFFFFFFFFFFF AND EQ PUSH2 0x1C99 JUMPI PUSH1 0x40 MLOAD PUSH32 0x8C379A000000000000000000000000000000000000000000000000000000000 DUP2 MSTORE PUSH1 0x4 ADD PUSH2 0x1C90 SWAP1 PUSH2 0x43F4 JUMP JUMPDEST PUSH1 0x40 MLOAD DUP1 SWAP2 SUB SWAP1 REVERT JUMPDEST PUSH1 0x4 PUSH1 0x0 DUP3 DUP2 MSTORE PUSH1 0x20 ADD SWAP1 DUP2 MSTORE PUSH1 0x20 ADD PUSH1 0x0 KECCAK256 PUSH1 0x0 PUSH2 0x100 EXP DUP2 SLOAD SWAP1 PUSH20 0xFFFFFFFFFFFFFFFFFFFFFFFFFFFFFFFFFFFFFFFF MUL NOT AND SWAP1 SSTORE PUSH1 0x1 PUSH1 0x3 PUSH1 0x0 DUP6 PUSH20 0xFFFFFFFFFFFFFFFFFFFFFFFFFFFFFFFFFFFFFFFF AND PUSH20 0xFFFFFFFFFFFFFFFFFFFFFFFFFFFFFFFFFFFFFFFF AND DUP2 MSTORE PUSH1 0x20 ADD SWAP1 DUP2 MSTORE PUSH1 0x20 ADD PUSH1 0x0 KECCAK256 PUSH1 0x0 DUP3 DUP3 SLOAD SUB SWAP3 POP POP DUP2 SWAP1 SSTORE POP PUSH1 0x1 PUSH1 0x3 PUSH1 0x0 DUP5 PUSH20 0xFFFFFFFFFFFFFFFFFFFFFFFFFFFFFFFFFFFFFFFF AND PUSH20 0xFFFFFFFFFFFFFFFFFFFFFFFFFFFFFFFFFFFFFFFF AND DUP2 MSTORE PUSH1 0x20 ADD SWAP1 DUP2 MSTORE PUSH1 0x20 ADD PUSH1 0x0 KECCAK256 PUSH1 0x0 DUP3 DUP3 SLOAD ADD SWAP3 POP POP DUP2 SWAP1 SSTORE POP DUP2 PUSH1 0x2 PUSH1 0x0 DUP4 DUP2 MSTORE PUSH1 0x20 ADD SWAP1 DUP2 MSTORE PUSH1 0x20 ADD PUSH1 0x0 KECCAK256 PUSH1 0x0 PUSH2 0x100 EXP DUP2 SLOAD DUP2 PUSH20 0xFFFFFFFFFFFFFFFFFFFFFFFFFFFFFFFFFFFFFFFF MUL NOT AND SWAP1 DUP4 PUSH20 0xFFFFFFFFFFFFFFFFFFFFFFFFFFFFFFFFFFFFFFFF AND MUL OR SWAP1 SSTORE POP DUP1 DUP3 PUSH20 0xFFFFFFFFFFFFFFFFFFFFFFFFFFFFFFFFFFFFFFFF AND DUP5 PUSH20 0xFFFFFFFFFFFFFFFFFFFFFFFFFFFFFFFFFFFFFFFF AND PUSH32 0xDDF252AD1BE2C89B69C2B068FC378DAA952BA7F163C4A11628F55A4DF523B3EF PUSH1 0x40 MLOAD PUSH1 0x40 MLOAD DUP1 SWAP2 SUB SWAP1 LOG4 PUSH2 0x1E25 DUP4 DUP4 DUP4 PUSH1 0x1 PUSH2 0x2830 JUMP JUMPDEST POP POP POP JUMP JUMPDEST PUSH2 0x1E44 DUP3 DUP3 PUSH1 0x40 MLOAD DUP1 PUSH1 0x20 ADD PUSH1 0x40 MSTORE DUP1 PUSH1 0x0 DUP2 MSTORE POP PUSH2 0x2836 JUMP JUMPDEST POP POP JUMP JUMPDEST PUSH1 0x0 PUSH1 0x2 PUSH1 0x0 DUP4 DUP2 MSTORE PUSH1 0x20 ADD SWAP1 DUP2 MSTORE PUSH1 0x20 ADD PUSH1 0x0 KECCAK256 PUSH1 0x0 SWAP1 SLOAD SWAP1 PUSH2 0x100 EXP SWAP1 DIV PUSH20 0xFFFFFFFFFFFFFFFFFFFFFFFFFFFFFFFFFFFFFFFF AND SWAP1 POP SWAP2 SWAP1 POP JUMP JUMPDEST PUSH2 0x1E8D PUSH2 0x1999 JUMP JUMPDEST PUSH20 0xFFFFFFFFFFFFFFFFFFFFFFFFFFFFFFFFFFFFFFFF AND PUSH2 0x1EAB PUSH2 0xD4E JUMP JUMPDEST PUSH20 0xFFFFFFFFFFFFFFFFFFFFFFFFFFFFFFFFFFFFFFFF AND EQ PUSH2 0x1F01 JUMPI PUSH1 0x40 MLOAD PUSH32 0x8C379A000000000000000000000000000000000000000000000000000000000 DUP2 MSTORE PUSH1 0x4 ADD PUSH2 0x1EF8 SWAP1 PUSH2 0x44B4 JUMP JUMPDEST PUSH1 0x40 MLOAD DUP1 SWAP2 SUB SWAP1 REVERT JUMPDEST JUMP JUMPDEST PUSH1 0x0 PUSH1 0x6 PUSH1 0x0 SWAP1 SLOAD SWAP1 PUSH2 0x100 EXP SWAP1 DIV PUSH20 0xFFFFFFFFFFFFFFFFFFFFFFFFFFFFFFFFFFFFFFFF AND SWAP1 POP DUP2 PUSH1 0x6 PUSH1 0x0 PUSH2 0x100 EXP DUP2 SLOAD DUP2 PUSH20 0xFFFFFFFFFFFFFFFFFFFFFFFFFFFFFFFFFFFFFFFF MUL NOT AND SWAP1 DUP4 PUSH20 0xFFFFFFFFFFFFFFFFFFFFFFFFFFFFFFFFFFFFFFFF AND MUL OR SWAP1 SSTORE POP DUP2 PUSH20 0xFFFFFFFFFFFFFFFFFFFFFFFFFFFFFFFFFFFFFFFF AND DUP2 PUSH20 0xFFFFFFFFFFFFFFFFFFFFFFFFFFFFFFFFFFFFFFFF AND PUSH32 0x8BE0079C531659141344CD1FD0A4F28419497F9722A3DAAFE3B4186F6B6457E0 PUSH1 0x40 MLOAD PUSH1 0x40 MLOAD DUP1 SWAP2 SUB SWAP1 LOG3 POP POP JUMP JUMPDEST DUP2 PUSH20 0xFFFFFFFFFFFFFFFFFFFFFFFFFFFFFFFFFFFFFFFF AND DUP4 PUSH20 0xFFFFFFFFFFFFFFFFFFFFFFFFFFFFFFFFFFFFFFFF AND EQ ISZERO PUSH2 0x2038 JUMPI PUSH1 0x40 MLOAD PUSH32 0x8C379A000000000000000000000000000000000000000000000000000000000 DUP2 MSTORE PUSH1 0x4 ADD PUSH2 0x202F SWAP1 PUSH2 0x4454 JUMP JUMPDEST PUSH1 0x40 MLOAD DUP1 SWAP2 SUB SWAP1 REVERT JUMPDEST DUP1 PUSH1 0x5 PUSH1 0x0 DUP6 PUSH20 0xFFFFFFFFFFFFFFFFFFFFFFFFFFFFFFFFFFFFFFFF AND PUSH20 0xFFFFFFFFFFFFFFFFFFFFFFFFFFFFFFFFFFFFFFFF AND DUP2 MSTORE PUSH1 0x20 ADD SWAP1 DUP2 MSTORE PUSH1 0x20 ADD PUSH1 0x0 KECCAK256 PUSH1 0x0 DUP5 PUSH20 0xFFFFFFFFFFFFFFFFFFFFFFFFFFFFFFFFFFFFFFFF AND PUSH20 0xFFFFFFFFFFFFFFFFFFFFFFFFFFFFFFFFFFFFFFFF AND DUP2 MSTORE PUSH1 0x20 ADD SWAP1 DUP2 MSTORE PUSH1 0x20 ADD PUSH1 0x0 KECCAK256 PUSH1 0x0 PUSH2 0x100 EXP DUP2 SLOAD DUP2 PUSH1 0xFF MUL NOT AND SWAP1 DUP4 ISZERO ISZERO MUL OR SWAP1 SSTORE POP DUP2 PUSH20 0xFFFFFFFFFFFFFFFFFFFFFFFFFFFFFFFFFFFFFFFF AND DUP4 PUSH20 0xFFFFFFFFFFFFFFFFFFFFFFFFFFFFFFFFFFFFFFFF AND PUSH32 0x17307EAB39AB6107E8899845AD3D59BD9653F200F220920489CA2B5937696C31 DUP4 PUSH1 0x40 MLOAD PUSH2 0x2129 SWAP2 SWAP1 PUSH2 0x4357 JUMP JUMPDEST PUSH1 0x40 MLOAD DUP1 SWAP2 SUB SWAP1 LOG3 POP POP POP JUMP JUMPDEST PUSH2 0x2141 DUP5 DUP5 DUP5 PUSH2 0x1B30 JUMP JUMPDEST PUSH2 0x214D DUP5 DUP5 DUP5 DUP5 PUSH2 0x2891 JUMP JUMPDEST PUSH2 0x218C JUMPI PUSH1 0x40 MLOAD PUSH32 0x8C379A000000000000000000000000000000000000000000000000000000000 DUP2 MSTORE PUSH1 0x4 ADD PUSH2 0x2183 SWAP1 PUSH2 0x43B4 JUMP JUMPDEST PUSH1 0x40 MLOAD DUP1 SWAP2 SUB SWAP1 REVERT JUMPDEST POP POP POP POP JUMP JUMPDEST PUSH1 0x60 PUSH1 0x0 PUSH2 0x21A0 DUP7 DUP7 PUSH2 0x2A28 JUMP JUMPDEST SWAP1 POP PUSH1 0x0 PUSH1 0xA DUP6 PUSH2 0x21B1 SWAP2 SWAP1 PUSH2 0x4688 JUMP JUMPDEST SWAP1 POP PUSH1 0x0 PUSH2 0x21CD PUSH1 0x40 MLOAD DUP1 PUSH1 0x20 ADD PUSH1 0x40 MSTORE DUP1 PUSH1 0x0 DUP2 MSTORE POP PUSH2 0x2B07 JUMP JUMPDEST SWAP1 POP PUSH1 0x0 JUMPDEST DUP4 MLOAD DUP2 LT ISZERO PUSH2 0x2350 JUMPI PUSH1 0x0 DUP5 DUP3 DUP2 MLOAD DUP2 LT PUSH2 0x21F0 JUMPI PUSH2 0x21EF PUSH2 0x4AFD JUMP JUMPDEST JUMPDEST PUSH1 0x20 MUL PUSH1 0x20 ADD ADD MLOAD SWAP1 POP PUSH2 0x2249 PUSH2 0x2244 DUP5 PUSH2 0x223F PUSH1 0x40 MLOAD DUP1 PUSH1 0x40 ADD PUSH1 0x40 MSTORE DUP1 PUSH1 0x11 DUP2 MSTORE PUSH1 0x20 ADD PUSH32 0x3C747370616E20783D2232302220793D22000000000000000000000000000000 DUP2 MSTORE POP PUSH2 0x2B07 JUMP JUMPDEST PUSH2 0x2B35 JUMP JUMPDEST PUSH2 0x2B07 JUMP JUMPDEST SWAP3 POP PUSH2 0x226D PUSH2 0x2268 DUP5 PUSH2 0x2263 PUSH2 0x225E DUP9 PUSH2 0x2BE3 JUMP JUMPDEST PUSH2 0x2B07 JUMP JUMPDEST PUSH2 0x2B35 JUMP JUMPDEST PUSH2 0x2B07 JUMP JUMPDEST SWAP3 POP PUSH2 0x22BE PUSH2 0x22B9 DUP5 PUSH2 0x22B4 PUSH1 0x40 MLOAD DUP1 PUSH1 0x40 ADD PUSH1 0x40 MSTORE DUP1 PUSH1 0x2 DUP2 MSTORE PUSH1 0x20 ADD PUSH32 0x223E000000000000000000000000000000000000000000000000000000000000 DUP2 MSTORE POP PUSH2 0x2B07 JUMP JUMPDEST PUSH2 0x2B35 JUMP JUMPDEST PUSH2 0x2B07 JUMP JUMPDEST SWAP3 POP PUSH2 0x22DA PUSH2 0x22D5 DUP5 PUSH2 0x22D0 DUP5 PUSH2 0x2B07 JUMP JUMPDEST PUSH2 0x2B35 JUMP JUMPDEST PUSH2 0x2B07 JUMP JUMPDEST SWAP3 POP PUSH2 0x232B PUSH2 0x2326 DUP5 PUSH2 0x2321 PUSH1 0x40 MLOAD DUP1 PUSH1 0x40 ADD PUSH1 0x40 MSTORE DUP1 PUSH1 0x8 DUP2 MSTORE PUSH1 0x20 ADD PUSH32 0x3C2F747370616E3E000000000000000000000000000000000000000000000000 DUP2 MSTORE POP PUSH2 0x2B07 JUMP JUMPDEST PUSH2 0x2B35 JUMP JUMPDEST PUSH2 0x2B07 JUMP JUMPDEST SWAP3 POP PUSH1 0x2 DUP5 PUSH2 0x233A SWAP2 SWAP1 PUSH2 0x4880 JUMP JUMPDEST SWAP4 POP POP DUP1 DUP1 PUSH2 0x2348 SWAP1 PUSH2 0x4A27 JUMP JUMPDEST SWAP2 POP POP PUSH2 0x21D2 JUMP JUMPDEST POP PUSH1 0x0 PUSH2 0x235C DUP3 PUSH2 0x2CBB JUMP JUMPDEST PUSH1 0x40 MLOAD PUSH1 0x20 ADD PUSH2 0x236C SWAP2 SWAP1 PUSH2 0x41D5 JUMP JUMPDEST PUSH1 0x40 MLOAD PUSH1 0x20 DUP2 DUP4 SUB SUB DUP2 MSTORE SWAP1 PUSH1 0x40 MSTORE SWAP1 POP PUSH1 0x0 PUSH2 0x2388 DUP9 PUSH2 0x2BE3 JUMP JUMPDEST PUSH1 0x40 MLOAD PUSH1 0x20 ADD PUSH2 0x2398 SWAP2 SWAP1 PUSH2 0x42C3 JUMP JUMPDEST PUSH1 0x40 MLOAD PUSH1 0x20 DUP2 DUP4 SUB SUB DUP2 MSTORE SWAP1 PUSH1 0x40 MSTORE SWAP1 POP PUSH1 0x0 PUSH1 0x40 MLOAD PUSH1 0x20 ADD PUSH2 0x23BA SWAP1 PUSH2 0x4281 JUMP JUMPDEST PUSH1 0x40 MLOAD PUSH1 0x20 DUP2 DUP4 SUB SUB DUP2 MSTORE SWAP1 PUSH1 0x40 MSTORE SWAP1 POP DUP8 ISZERO PUSH2 0x23F2 JUMPI PUSH1 0x40 MLOAD PUSH1 0x20 ADD PUSH2 0x23E0 SWAP1 PUSH2 0x412E JUMP JUMPDEST PUSH1 0x40 MLOAD PUSH1 0x20 DUP2 DUP4 SUB SUB DUP2 MSTORE SWAP1 PUSH1 0x40 MSTORE SWAP1 POP JUMPDEST PUSH1 0x0 DUP9 PUSH2 0x2434 JUMPI PUSH1 0x40 MLOAD DUP1 PUSH1 0x40 ADD PUSH1 0x40 MSTORE DUP1 PUSH1 0x7 DUP2 MSTORE PUSH1 0x20 ADD PUSH32 0x2331653930666600000000000000000000000000000000000000000000000000 DUP2 MSTORE POP PUSH2 0x246B JUMP JUMPDEST PUSH1 0x40 MLOAD DUP1 PUSH1 0x40 ADD PUSH1 0x40 MSTORE DUP1 PUSH1 0x7 DUP2 MSTORE PUSH1 0x20 ADD PUSH32 0x2333636233373100000000000000000000000000000000000000000000000000 DUP2 MSTORE POP JUMPDEST SWAP1 POP PUSH1 0x0 DUP10 PUSH2 0x24AF JUMPI PUSH1 0x40 MLOAD DUP1 PUSH1 0x40 ADD PUSH1 0x40 MSTORE DUP1 PUSH1 0x7 DUP2 MSTORE PUSH1 0x20 ADD PUSH32 0x2330306266666600000000000000000000000000000000000000000000000000 DUP2 MSTORE POP PUSH2 0x24E6 JUMP JUMPDEST PUSH1 0x40 MLOAD DUP1 PUSH1 0x40 ADD PUSH1 0x40 MSTORE DUP1 PUSH1 0x7 DUP2 MSTORE PUSH1 0x20 ADD PUSH32 0x2336666366616600000000000000000000000000000000000000000000000000 DUP2 MSTORE POP JUMPDEST SWAP1 POP PUSH1 0x0 DUP3 PUSH1 0x40 MLOAD PUSH1 0x20 ADD PUSH2 0x24FB SWAP2 SWAP1 PUSH2 0x414E JUMP JUMPDEST PUSH1 0x40 MLOAD PUSH1 0x20 DUP2 DUP4 SUB SUB DUP2 MSTORE SWAP1 PUSH1 0x40 MSTORE SWAP1 POP PUSH1 0x0 DUP3 PUSH1 0x40 MLOAD PUSH1 0x20 ADD PUSH2 0x251F SWAP2 SWAP1 PUSH2 0x41A8 JUMP JUMPDEST PUSH1 0x40 MLOAD PUSH1 0x20 DUP2 DUP4 SUB SUB DUP2 MSTORE SWAP1 PUSH1 0x40 MSTORE SWAP1 POP PUSH1 0x0 DUP7 DUP4 DUP4 DUP11 DUP10 PUSH1 0x40 MLOAD PUSH1 0x20 ADD PUSH2 0x254B SWAP6 SWAP5 SWAP4 SWAP3 SWAP2 SWAP1 PUSH2 0x40CD JUMP JUMPDEST PUSH1 0x40 MLOAD PUSH1 0x20 DUP2 DUP4 SUB SUB DUP2 MSTORE SWAP1 PUSH1 0x40 MSTORE SWAP1 POP DUP1 SWAP12 POP POP POP POP POP POP POP POP POP POP POP POP SWAP5 SWAP4 POP POP POP POP JUMP JUMPDEST PUSH1 0x60 PUSH1 0x0 DUP3 MLOAD SWAP1 POP PUSH1 0x0 DUP2 EQ ISZERO PUSH2 0x259B JUMPI PUSH1 0x40 MLOAD DUP1 PUSH1 0x20 ADD PUSH1 0x40 MSTORE DUP1 PUSH1 0x0 DUP2 MSTORE POP SWAP2 POP POP PUSH2 0x2705 JUMP JUMPDEST PUSH1 0x0 PUSH1 0x3 PUSH1 0x2 DUP4 PUSH2 0x25AC SWAP2 SWAP1 PUSH2 0x4688 JUMP JUMPDEST PUSH2 0x25B6 SWAP2 SWAP1 PUSH2 0x46DE JUMP JUMPDEST PUSH1 0x4 PUSH2 0x25C2 SWAP2 SWAP1 PUSH2 0x4880 JUMP JUMPDEST SWAP1 POP PUSH1 0x0 PUSH1 0x20 DUP3 PUSH2 0x25D3 SWAP2 SWAP1 PUSH2 0x4688 JUMP JUMPDEST PUSH8 0xFFFFFFFFFFFFFFFF DUP2 GT ISZERO PUSH2 0x25EC JUMPI PUSH2 0x25EB PUSH2 0x4B2C JUMP JUMPDEST JUMPDEST PUSH1 0x40 MLOAD SWAP1 DUP1 DUP3 MSTORE DUP1 PUSH1 0x1F ADD PUSH1 0x1F NOT AND PUSH1 0x20 ADD DUP3 ADD PUSH1 0x40 MSTORE DUP1 ISZERO PUSH2 0x261E JUMPI DUP2 PUSH1 0x20 ADD PUSH1 0x1 DUP3 MUL DUP1 CALLDATASIZE DUP4 CALLDATACOPY DUP1 DUP3 ADD SWAP2 POP POP SWAP1 POP JUMPDEST POP SWAP1 POP PUSH1 0x0 PUSH1 0x40 MLOAD DUP1 PUSH1 0x60 ADD PUSH1 0x40 MSTORE DUP1 PUSH1 0x40 DUP2 MSTORE PUSH1 0x20 ADD PUSH2 0x54FF PUSH1 0x40 SWAP2 CODECOPY SWAP1 POP PUSH1 0x1 DUP2 ADD PUSH1 0x20 DUP4 ADD PUSH1 0x0 JUMPDEST DUP7 DUP2 LT ISZERO PUSH2 0x26C2 JUMPI PUSH1 0x3 DUP2 ADD SWAP1 POP PUSH3 0xFFFFFF DUP2 DUP11 ADD MLOAD AND PUSH1 0x3F DUP2 PUSH1 0x12 SHR AND DUP5 ADD MLOAD DUP1 PUSH1 0x8 SHL SWAP1 POP PUSH1 0xFF PUSH1 0x3F DUP4 PUSH1 0xC SHR AND DUP7 ADD MLOAD AND DUP2 ADD SWAP1 POP DUP1 PUSH1 0x8 SHL SWAP1 POP PUSH1 0xFF PUSH1 0x3F DUP4 PUSH1 0x6 SHR AND DUP7 ADD MLOAD AND DUP2 ADD SWAP1 POP DUP1 PUSH1 0x8 SHL SWAP1 POP PUSH1 0xFF PUSH1 0x3F DUP4 AND DUP7 ADD MLOAD AND DUP2 ADD SWAP1 POP DUP1 PUSH1 0xE0 SHL SWAP1 POP DUP1 DUP5 MSTORE PUSH1 0x4 DUP5 ADD SWAP4 POP POP POP PUSH2 0x2649 JUMP JUMPDEST POP PUSH1 0x3 DUP7 MOD PUSH1 0x1 DUP2 EQ PUSH2 0x26DC JUMPI PUSH1 0x2 DUP2 EQ PUSH2 0x26EC JUMPI PUSH2 0x26F7 JUMP JUMPDEST PUSH2 0x3D3D PUSH1 0xF0 SHL PUSH1 0x2 DUP4 SUB MSTORE PUSH2 0x26F7 JUMP JUMPDEST PUSH1 0x3D PUSH1 0xF8 SHL PUSH1 0x1 DUP4 SUB MSTORE JUMPDEST POP DUP5 DUP5 MSTORE POP POP DUP2 SWAP5 POP POP POP POP POP JUMPDEST SWAP2 SWAP1 POP JUMP JUMPDEST PUSH1 0x1 DUP2 GT ISZERO PUSH2 0x282A JUMPI PUSH1 0x0 PUSH20 0xFFFFFFFFFFFFFFFFFFFFFFFFFFFFFFFFFFFFFFFF AND DUP5 PUSH20 0xFFFFFFFFFFFFFFFFFFFFFFFFFFFFFFFFFFFFFFFF AND EQ PUSH2 0x279E JUMPI DUP1 PUSH1 0x3 PUSH1 0x0 DUP7 PUSH20 0xFFFFFFFFFFFFFFFFFFFFFFFFFFFFFFFFFFFFFFFF AND PUSH20 0xFFFFFFFFFFFFFFFFFFFFFFFFFFFFFFFFFFFFFFFF AND DUP2 MSTORE PUSH1 0x20 ADD SWAP1 DUP2 MSTORE PUSH1 0x20 ADD PUSH1 0x0 KECCAK256 PUSH1 0x0 DUP3 DUP3 SLOAD PUSH2 0x2796 SWAP2 SWAP1 PUSH2 0x48DA JUMP JUMPDEST SWAP3 POP POP DUP2 SWAP1 SSTORE POP JUMPDEST PUSH1 0x0 PUSH20 0xFFFFFFFFFFFFFFFFFFFFFFFFFFFFFFFFFFFFFFFF AND DUP4 PUSH20 0xFFFFFFFFFFFFFFFFFFFFFFFFFFFFFFFFFFFFFFFF AND EQ PUSH2 0x2829 JUMPI DUP1 PUSH1 0x3 PUSH1 0x0 DUP6 PUSH20 0xFFFFFFFFFFFFFFFFFFFFFFFFFFFFFFFFFFFFFFFF AND PUSH20 0xFFFFFFFFFFFFFFFFFFFFFFFFFFFFFFFFFFFFFFFF AND DUP2 MSTORE PUSH1 0x20 ADD SWAP1 DUP2 MSTORE PUSH1 0x20 ADD PUSH1 0x0 KECCAK256 PUSH1 0x0 DUP3 DUP3 SLOAD PUSH2 0x2821 SWAP2 SWAP1 PUSH2 0x4688 JUMP JUMPDEST SWAP3 POP POP DUP2 SWAP1 SSTORE POP JUMPDEST JUMPDEST POP POP POP POP JUMP JUMPDEST POP POP POP POP JUMP JUMPDEST PUSH2 0x2840 DUP4 DUP4 PUSH2 0x2D37 JUMP JUMPDEST PUSH2 0x284D PUSH1 0x0 DUP5 DUP5 DUP5 PUSH2 0x2891 JUMP JUMPDEST PUSH2 0x288C JUMPI PUSH1 0x40 MLOAD PUSH32 0x8C379A000000000000000000000000000000000000000000000000000000000 DUP2 MSTORE PUSH1 0x4 ADD PUSH2 0x2883 SWAP1 PUSH2 0x43B4 JUMP JUMPDEST PUSH1 0x40 MLOAD DUP1 SWAP2 SUB SWAP1 REVERT JUMPDEST POP POP POP JUMP JUMPDEST PUSH1 0x0 PUSH2 0x28B2 DUP5 PUSH20 0xFFFFFFFFFFFFFFFFFFFFFFFFFFFFFFFFFFFFFFFF AND PUSH2 0x2F55 JUMP JUMPDEST ISZERO PUSH2 0x2A1B JUMPI DUP4 PUSH20 0xFFFFFFFFFFFFFFFFFFFFFFFFFFFFFFFFFFFFFFFF AND PUSH4 0x150B7A02 PUSH2 0x28DB PUSH2 0x1999 JUMP JUMPDEST DUP8 DUP7 DUP7 PUSH1 0x40 MLOAD DUP6 PUSH4 0xFFFFFFFF AND PUSH1 0xE0 SHL DUP2 MSTORE PUSH1 0x4 ADD PUSH2 0x28FD SWAP5 SWAP4 SWAP3 SWAP2 SWAP1 PUSH2 0x430B JUMP JUMPDEST PUSH1 0x20 PUSH1 0x40 MLOAD DUP1 DUP4 SUB DUP2 PUSH1 0x0 DUP8 DUP1 EXTCODESIZE ISZERO DUP1 ISZERO PUSH2 0x2917 JUMPI PUSH1 0x0 DUP1 REVERT JUMPDEST POP GAS CALL SWAP3 POP POP POP DUP1 ISZERO PUSH2 0x2948 JUMPI POP PUSH1 0x40 MLOAD RETURNDATASIZE PUSH1 0x1F NOT PUSH1 0x1F DUP3 ADD AND DUP3 ADD DUP1 PUSH1 0x40 MSTORE POP DUP2 ADD SWAP1 PUSH2 0x2945 SWAP2 SWAP1 PUSH2 0x38AE JUMP JUMPDEST PUSH1 0x1 JUMPDEST PUSH2 0x29CB JUMPI RETURNDATASIZE DUP1 PUSH1 0x0 DUP2 EQ PUSH2 0x2978 JUMPI PUSH1 0x40 MLOAD SWAP2 POP PUSH1 0x1F NOT PUSH1 0x3F RETURNDATASIZE ADD AND DUP3 ADD PUSH1 0x40 MSTORE RETURNDATASIZE DUP3 MSTORE RETURNDATASIZE PUSH1 0x0 PUSH1 0x20 DUP5 ADD RETURNDATACOPY PUSH2 0x297D JUMP JUMPDEST PUSH1 0x60 SWAP2 POP JUMPDEST POP PUSH1 0x0 DUP2 MLOAD EQ ISZERO PUSH2 0x29C3 JUMPI PUSH1 0x40 MLOAD PUSH32 0x8C379A000000000000000000000000000000000000000000000000000000000 DUP2 MSTORE PUSH1 0x4 ADD PUSH2 0x29BA SWAP1 PUSH2 0x43B4 JUMP JUMPDEST PUSH1 0x40 MLOAD DUP1 SWAP2 SUB SWAP1 REVERT JUMPDEST DUP1 MLOAD DUP2 PUSH1 0x20 ADD REVERT JUMPDEST PUSH4 0x150B7A02 PUSH1 0xE0 SHL PUSH28 0xFFFFFFFFFFFFFFFFFFFFFFFFFFFFFFFFFFFFFFFFFFFFFFFFFFFFFFFF NOT AND DUP2 PUSH28 0xFFFFFFFFFFFFFFFFFFFFFFFFFFFFFFFFFFFFFFFFFFFFFFFFFFFFFFFF NOT AND EQ SWAP2 POP POP PUSH2 0x2A20 JUMP JUMPDEST PUSH1 0x1 SWAP1 POP JUMPDEST SWAP5 SWAP4 POP POP POP POP JUMP JUMPDEST PUSH1 0x60 PUSH1 0x0 PUSH2 0x2A35 DUP5 PUSH2 0x2B07 JUMP JUMPDEST SWAP1 POP PUSH1 0x0 PUSH2 0x2A42 DUP5 PUSH2 0x2B07 JUMP JUMPDEST SWAP1 POP PUSH1 0x0 PUSH1 0x1 PUSH2 0x2A52 DUP5 DUP5 PUSH2 0x2F78 JUMP JUMPDEST PUSH2 0x2A5C SWAP2 SWAP1 PUSH2 0x4688 JUMP JUMPDEST PUSH8 0xFFFFFFFFFFFFFFFF DUP2 GT ISZERO PUSH2 0x2A75 JUMPI PUSH2 0x2A74 PUSH2 0x4B2C JUMP JUMPDEST JUMPDEST PUSH1 0x40 MLOAD SWAP1 DUP1 DUP3 MSTORE DUP1 PUSH1 0x20 MUL PUSH1 0x20 ADD DUP3 ADD PUSH1 0x40 MSTORE DUP1 ISZERO PUSH2 0x2AA8 JUMPI DUP2 PUSH1 0x20 ADD JUMPDEST PUSH1 0x60 DUP2 MSTORE PUSH1 0x20 ADD SWAP1 PUSH1 0x1 SWAP1 SUB SWAP1 DUP2 PUSH2 0x2A93 JUMPI SWAP1 POP JUMPDEST POP SWAP1 POP PUSH1 0x0 JUMPDEST DUP2 MLOAD DUP2 LT ISZERO PUSH2 0x2AFA JUMPI PUSH2 0x2AC9 PUSH2 0x2AC4 DUP6 DUP6 PUSH2 0x3020 JUMP JUMPDEST PUSH2 0x2CBB JUMP JUMPDEST DUP3 DUP3 DUP2 MLOAD DUP2 LT PUSH2 0x2ADC JUMPI PUSH2 0x2ADB PUSH2 0x4AFD JUMP JUMPDEST JUMPDEST PUSH1 0x20 MUL PUSH1 0x20 ADD ADD DUP2 SWAP1 MSTORE POP DUP1 DUP1 PUSH2 0x2AF2 SWAP1 PUSH2 0x4A27 JUMP JUMPDEST SWAP2 POP POP PUSH2 0x2AAE JUMP JUMPDEST POP DUP1 SWAP4 POP POP POP POP SWAP3 SWAP2 POP POP JUMP JUMPDEST PUSH2 0x2B0F PUSH2 0x34D4 JUMP JUMPDEST PUSH1 0x0 PUSH1 0x20 DUP4 ADD SWAP1 POP PUSH1 0x40 MLOAD DUP1 PUSH1 0x40 ADD PUSH1 0x40 MSTORE DUP1 DUP5 MLOAD DUP2 MSTORE PUSH1 0x20 ADD DUP3 DUP2 MSTORE POP SWAP2 POP POP SWAP2 SWAP1 POP JUMP JUMPDEST PUSH1 0x60 PUSH1 0x0 DUP3 PUSH1 0x0 ADD MLOAD DUP5 PUSH1 0x0 ADD MLOAD PUSH2 0x2B4D SWAP2 SWAP1 PUSH2 0x4688 JUMP JUMPDEST PUSH8 0xFFFFFFFFFFFFFFFF DUP2 GT ISZERO PUSH2 0x2B66 JUMPI PUSH2 0x2B65 PUSH2 0x4B2C JUMP JUMPDEST JUMPDEST PUSH1 0x40 MLOAD SWAP1 DUP1 DUP3 MSTORE DUP1 PUSH1 0x1F ADD PUSH1 0x1F NOT AND PUSH1 0x20 ADD DUP3 ADD PUSH1 0x40 MSTORE DUP1 ISZERO PUSH2 0x2B98 JUMPI DUP2 PUSH1 0x20 ADD PUSH1 0x1 DUP3 MUL DUP1 CALLDATASIZE DUP4 CALLDATACOPY DUP1 DUP3 ADD SWAP2 POP POP SWAP1 POP JUMPDEST POP SWAP1 POP PUSH1 0x0 PUSH1 0x20 DUP3 ADD SWAP1 POP PUSH2 0x2BB6 DUP2 DUP7 PUSH1 0x20 ADD MLOAD DUP8 PUSH1 0x0 ADD MLOAD PUSH2 0x303A JUMP JUMPDEST PUSH2 0x2BD8 DUP6 PUSH1 0x0 ADD MLOAD DUP3 PUSH2 0x2BC9 SWAP2 SWAP1 PUSH2 0x4688 JUMP JUMPDEST DUP6 PUSH1 0x20 ADD MLOAD DUP7 PUSH1 0x0 ADD MLOAD PUSH2 0x303A JUMP JUMPDEST DUP2 SWAP3 POP POP POP SWAP3 SWAP2 POP POP JUMP JUMPDEST PUSH1 0x60 PUSH1 0x0 PUSH1 0x1 PUSH2 0x2BF2 DUP5 PUSH2 0x30E6 JUMP JUMPDEST ADD SWAP1 POP PUSH1 0x0 DUP2 PUSH8 0xFFFFFFFFFFFFFFFF DUP2 GT ISZERO PUSH2 0x2C11 JUMPI PUSH2 0x2C10 PUSH2 0x4B2C JUMP JUMPDEST JUMPDEST PUSH1 0x40 MLOAD SWAP1 DUP1 DUP3 MSTORE DUP1 PUSH1 0x1F ADD PUSH1 0x1F NOT AND PUSH1 0x20 ADD DUP3 ADD PUSH1 0x40 MSTORE DUP1 ISZERO PUSH2 0x2C43 JUMPI DUP2 PUSH1 0x20 ADD PUSH1 0x1 DUP3 MUL DUP1 CALLDATASIZE DUP4 CALLDATACOPY DUP1 DUP3 ADD SWAP2 POP POP SWAP1 POP JUMPDEST POP SWAP1 POP PUSH1 0x0 DUP3 PUSH1 0x20 ADD DUP3 ADD SWAP1 POP JUMPDEST PUSH1 0x1 ISZERO PUSH2 0x2CB0 JUMPI DUP1 DUP1 PUSH1 0x1 SWAP1 SUB SWAP2 POP POP PUSH32 0x3031323334353637383961626364656600000000000000000000000000000000 PUSH1 0xA DUP7 MOD BYTE DUP2 MSTORE8 PUSH1 0xA DUP6 DUP2 PUSH2 0x2C9A JUMPI PUSH2 0x2C99 PUSH2 0x4A9F JUMP JUMPDEST JUMPDEST DIV SWAP5 POP PUSH1 0x0 DUP6 EQ ISZERO PUSH2 0x2CAB JUMPI PUSH2 0x2CB0 JUMP JUMPDEST PUSH2 0x2C51 JUMP JUMPDEST DUP2 SWAP4 POP POP POP POP SWAP2 SWAP1 POP JUMP JUMPDEST PUSH1 0x60 PUSH1 0x0 DUP3 PUSH1 0x0 ADD MLOAD PUSH8 0xFFFFFFFFFFFFFFFF DUP2 GT ISZERO PUSH2 0x2CDD JUMPI PUSH2 0x2CDC PUSH2 0x4B2C JUMP JUMPDEST JUMPDEST PUSH1 0x40 MLOAD SWAP1 DUP1 DUP3 MSTORE DUP1 PUSH1 0x1F ADD PUSH1 0x1F NOT AND PUSH1 0x20 ADD DUP3 ADD PUSH1 0x40 MSTORE DUP1 ISZERO PUSH2 0x2D0F JUMPI DUP2 PUSH1 0x20 ADD PUSH1 0x1 DUP3 MUL DUP1 CALLDATASIZE DUP4 CALLDATACOPY DUP1 DUP3 ADD SWAP2 POP POP SWAP1 POP JUMPDEST POP SWAP1 POP PUSH1 0x0 PUSH1 0x20 DUP3 ADD SWAP1 POP PUSH2 0x2D2D DUP2 DUP6 PUSH1 0x20 ADD MLOAD DUP7 PUSH1 0x0 ADD MLOAD PUSH2 0x303A JUMP JUMPDEST DUP2 SWAP3 POP POP POP SWAP2 SWAP1 POP JUMP JUMPDEST PUSH1 0x0 PUSH20 0xFFFFFFFFFFFFFFFFFFFFFFFFFFFFFFFFFFFFFFFF AND DUP3 PUSH20 0xFFFFFFFFFFFFFFFFFFFFFFFFFFFFFFFFFFFFFFFF AND EQ ISZERO PUSH2 0x2DA7 JUMPI PUSH1 0x40 MLOAD PUSH32 0x8C379A000000000000000000000000000000000000000000000000000000000 DUP2 MSTORE PUSH1 0x4 ADD PUSH2 0x2D9E SWAP1 PUSH2 0x4494 JUMP JUMPDEST PUSH1 0x40 MLOAD DUP1 SWAP2 SUB SWAP1 REVERT JUMPDEST PUSH2 0x2DB0 DUP2 PUSH2 0x1A5A JUMP JUMPDEST ISZERO PUSH2 0x2DF0 JUMPI PUSH1 0x40 MLOAD PUSH32 0x8C379A000000000000000000000000000000000000000000000000000000000 DUP2 MSTORE PUSH1 0x4 ADD PUSH2 0x2DE7 SWAP1 PUSH2 0x4414 JUMP JUMPDEST PUSH1 0x40 MLOAD DUP1 SWAP2 SUB SWAP1 REVERT JUMPDEST PUSH2 0x2DFE PUSH1 0x0 DUP4 DUP4 PUSH1 0x1 PUSH2 0x270A JUMP JUMPDEST PUSH2 0x2E07 DUP2 PUSH2 0x1A5A JUMP JUMPDEST ISZERO PUSH2 0x2E47 JUMPI PUSH1 0x40 MLOAD PUSH32 0x8C379A000000000000000000000000000000000000000000000000000000000 DUP2 MSTORE PUSH1 0x4 ADD PUSH2 0x2E3E SWAP1 PUSH2 0x4414 JUMP JUMPDEST PUSH1 0x40 MLOAD DUP1 SWAP2 SUB SWAP1 REVERT JUMPDEST PUSH1 0x1 PUSH1 0x3 PUSH1 0x0 DUP5 PUSH20 0xFFFFFFFFFFFFFFFFFFFFFFFFFFFFFFFFFFFFFFFF AND PUSH20 0xFFFFFFFFFFFFFFFFFFFFFFFFFFFFFFFFFFFFFFFF AND DUP2 MSTORE PUSH1 0x20 ADD SWAP1 DUP2 MSTORE PUSH1 0x20 ADD PUSH1 0x0 KECCAK256 PUSH1 0x0 DUP3 DUP3 SLOAD ADD SWAP3 POP POP DUP2 SWAP1 SSTORE POP DUP2 PUSH1 0x2 PUSH1 0x0 DUP4 DUP2 MSTORE PUSH1 0x20 ADD SWAP1 DUP2 MSTORE PUSH1 0x20 ADD PUSH1 0x0 KECCAK256 PUSH1 0x0 PUSH2 0x100 EXP DUP2 SLOAD DUP2 PUSH20 0xFFFFFFFFFFFFFFFFFFFFFFFFFFFFFFFFFFFFFFFF MUL NOT AND SWAP1 DUP4 PUSH20 0xFFFFFFFFFFFFFFFFFFFFFFFFFFFFFFFFFFFFFFFF AND MUL OR SWAP1 SSTORE POP DUP1 DUP3 PUSH20 0xFFFFFFFFFFFFFFFFFFFFFFFFFFFFFFFFFFFFFFFF AND PUSH1 0x0 PUSH20 0xFFFFFFFFFFFFFFFFFFFFFFFFFFFFFFFFFFFFFFFF AND PUSH32 0xDDF252AD1BE2C89B69C2B068FC378DAA952BA7F163C4A11628F55A4DF523B3EF PUSH1 0x40 MLOAD PUSH1 0x40 MLOAD DUP1 SWAP2 SUB SWAP1 LOG4 PUSH2 0x2F51 PUSH1 0x0 DUP4 DUP4 PUSH1 0x1 PUSH2 0x2830 JUMP JUMPDEST POP POP JUMP JUMPDEST PUSH1 0x0 DUP1 DUP3 PUSH20 0xFFFFFFFFFFFFFFFFFFFFFFFFFFFFFFFFFFFFFFFF AND EXTCODESIZE GT SWAP1 POP SWAP2 SWAP1 POP JUMP JUMPDEST PUSH1 0x0 DUP1 DUP3 PUSH1 0x0 ADD MLOAD PUSH2 0x2F9C DUP6 PUSH1 0x0 ADD MLOAD DUP7 PUSH1 0x20 ADD MLOAD DUP7 PUSH1 0x0 ADD MLOAD DUP8 PUSH1 0x20 ADD MLOAD PUSH2 0x3239 JUMP JUMPDEST PUSH2 0x2FA6 SWAP2 SWAP1 PUSH2 0x4688 JUMP JUMPDEST SWAP1 POP JUMPDEST DUP4 PUSH1 0x0 ADD MLOAD DUP5 PUSH1 0x20 ADD MLOAD PUSH2 0x2FBD SWAP2 SWAP1 PUSH2 0x4688 JUMP JUMPDEST DUP2 GT PUSH2 0x3019 JUMPI DUP2 DUP1 PUSH2 0x2FCE SWAP1 PUSH2 0x4A27 JUMP JUMPDEST SWAP3 POP POP DUP3 PUSH1 0x0 ADD MLOAD PUSH2 0x3008 DUP6 PUSH1 0x20 ADD MLOAD DUP4 PUSH2 0x2FE9 SWAP2 SWAP1 PUSH2 0x48DA JUMP JUMPDEST DUP7 PUSH1 0x0 ADD MLOAD PUSH2 0x2FF8 SWAP2 SWAP1 PUSH2 0x48DA JUMP JUMPDEST DUP4 DUP7 PUSH1 0x0 ADD MLOAD DUP8 PUSH1 0x20 ADD MLOAD PUSH2 0x3239 JUMP JUMPDEST PUSH2 0x3012 SWAP2 SWAP1 PUSH2 0x4688 JUMP JUMPDEST SWAP1 POP PUSH2 0x2FA9 JUMP JUMPDEST POP SWAP3 SWAP2 POP POP JUMP JUMPDEST PUSH2 0x3028 PUSH2 0x34D4 JUMP JUMPDEST PUSH2 0x3033 DUP4 DUP4 DUP4 PUSH2 0x3383 JUMP JUMPDEST POP SWAP3 SWAP2 POP POP JUMP JUMPDEST JUMPDEST PUSH1 0x20 DUP2 LT PUSH2 0x3079 JUMPI DUP2 MLOAD DUP4 MSTORE PUSH1 0x20 DUP4 PUSH2 0x3054 SWAP2 SWAP1 PUSH2 0x4688 JUMP JUMPDEST SWAP3 POP PUSH1 0x20 DUP3 PUSH2 0x3063 SWAP2 SWAP1 PUSH2 0x4688 JUMP JUMPDEST SWAP2 POP PUSH1 0x20 DUP2 PUSH2 0x3072 SWAP2 SWAP1 PUSH2 0x48DA JUMP JUMPDEST SWAP1 POP PUSH2 0x303B JUMP JUMPDEST PUSH1 0x0 PUSH32 0xFFFFFFFFFFFFFFFFFFFFFFFFFFFFFFFFFFFFFFFFFFFFFFFFFFFFFFFFFFFFFFFF SWAP1 POP PUSH1 0x0 DUP3 GT ISZERO PUSH2 0x30D0 JUMPI PUSH1 0x1 DUP3 PUSH1 0x20 PUSH2 0x30B6 SWAP2 SWAP1 PUSH2 0x48DA JUMP JUMPDEST PUSH2 0x100 PUSH2 0x30C3 SWAP2 SWAP1 PUSH2 0x4762 JUMP JUMPDEST PUSH2 0x30CD SWAP2 SWAP1 PUSH2 0x48DA JUMP JUMPDEST SWAP1 POP JUMPDEST DUP1 NOT DUP4 MLOAD AND DUP2 DUP6 MLOAD AND DUP2 DUP2 OR DUP7 MSTORE POP POP POP POP POP POP JUMP JUMPDEST PUSH1 0x0 DUP1 PUSH1 0x0 SWAP1 POP PUSH27 0x184F03E93FF9F4DAA797ED6E38ED64BF6A1F010000000000000000 DUP4 LT PUSH2 0x3144 JUMPI PUSH27 0x184F03E93FF9F4DAA797ED6E38ED64BF6A1F010000000000000000 DUP4 DUP2 PUSH2 0x313A JUMPI PUSH2 0x3139 PUSH2 0x4A9F JUMP JUMPDEST JUMPDEST DIV SWAP3 POP PUSH1 0x40 DUP2 ADD SWAP1 POP JUMPDEST PUSH14 0x4EE2D6D415B85ACEF8100000000 DUP4 LT PUSH2 0x3181 JUMPI PUSH14 0x4EE2D6D415B85ACEF8100000000 DUP4 DUP2 PUSH2 0x3177 JUMPI PUSH2 0x3176 PUSH2 0x4A9F JUMP JUMPDEST JUMPDEST DIV SWAP3 POP PUSH1 0x20 DUP2 ADD SWAP1 POP JUMPDEST PUSH7 0x2386F26FC10000 DUP4 LT PUSH2 0x31B0 JUMPI PUSH7 0x2386F26FC10000 DUP4 DUP2 PUSH2 0x31A6 JUMPI PUSH2 0x31A5 PUSH2 0x4A9F JUMP JUMPDEST JUMPDEST DIV SWAP3 POP PUSH1 0x10 DUP2 ADD SWAP1 POP JUMPDEST PUSH4 0x5F5E100 DUP4 LT PUSH2 0x31D9 JUMPI PUSH4 0x5F5E100 DUP4 DUP2 PUSH2 0x31CF JUMPI PUSH2 0x31CE PUSH2 0x4A9F JUMP JUMPDEST JUMPDEST DIV SWAP3 POP PUSH1 0x8 DUP2 ADD SWAP1 POP JUMPDEST PUSH2 0x2710 DUP4 LT PUSH2 0x31FE JUMPI PUSH2 0x2710 DUP4 DUP2 PUSH2 0x31F4 JUMPI PUSH2 0x31F3 PUSH2 0x4A9F JUMP JUMPDEST JUMPDEST DIV SWAP3 POP PUSH1 0x4 DUP2 ADD SWAP1 POP JUMPDEST PUSH1 0x64 DUP4 LT PUSH2 0x3221 JUMPI PUSH1 0x64 DUP4 DUP2 PUSH2 0x3217 JUMPI PUSH2 0x3216 PUSH2 0x4A9F JUMP JUMPDEST JUMPDEST DIV SWAP3 POP PUSH1 0x2 DUP2 ADD SWAP1 POP JUMPDEST PUSH1 0xA DUP4 LT PUSH2 0x3230 JUMPI PUSH1 0x1 DUP2 ADD SWAP1 POP JUMPDEST DUP1 SWAP2 POP POP SWAP2 SWAP1 POP JUMP JUMPDEST PUSH1 0x0 DUP1 DUP5 SWAP1 POP PUSH1 0x0 DUP7 DUP6 GT PUSH2 0x336A JUMPI PUSH1 0x20 DUP6 GT PUSH2 0x330C JUMPI PUSH1 0x0 DUP1 DUP7 GT ISZERO PUSH2 0x3292 JUMPI PUSH1 0x1 DUP7 PUSH1 0x20 PUSH2 0x3269 SWAP2 SWAP1 PUSH2 0x48DA JUMP JUMPDEST PUSH1 0x8 PUSH2 0x3275 SWAP2 SWAP1 PUSH2 0x4880 JUMP JUMPDEST PUSH1 0x2 PUSH2 0x3281 SWAP2 SWAP1 PUSH2 0x4762 JUMP JUMPDEST PUSH2 0x328B SWAP2 SWAP1 PUSH2 0x48DA JUMP JUMPDEST NOT PUSH1 0x0 SHL SWAP1 POP JUMPDEST PUSH1 0x0 DUP2 DUP7 MLOAD AND SWAP1 POP PUSH1 0x0 DUP8 DUP11 DUP11 PUSH2 0x32A9 SWAP2 SWAP1 PUSH2 0x4688 JUMP JUMPDEST PUSH2 0x32B3 SWAP2 SWAP1 PUSH2 0x48DA JUMP JUMPDEST SWAP1 POP PUSH1 0x0 DUP4 DUP7 MLOAD AND SWAP1 POP JUMPDEST DUP3 DUP2 EQ PUSH2 0x32FE JUMPI DUP2 DUP7 LT PUSH2 0x32E5 JUMPI DUP11 DUP11 PUSH2 0x32D8 SWAP2 SWAP1 PUSH2 0x4688 JUMP JUMPDEST SWAP7 POP POP POP POP POP POP POP PUSH2 0x337B JUMP JUMPDEST DUP6 DUP1 PUSH2 0x32F0 SWAP1 PUSH2 0x4A27 JUMP JUMPDEST SWAP7 POP POP DUP4 DUP7 MLOAD AND SWAP1 POP PUSH2 0x32BE JUMP JUMPDEST DUP6 SWAP7 POP POP POP POP POP POP POP PUSH2 0x337B JUMP JUMPDEST PUSH1 0x0 DUP6 DUP6 KECCAK256 SWAP1 POP PUSH1 0x0 SWAP2 POP JUMPDEST DUP6 DUP9 PUSH2 0x3324 SWAP2 SWAP1 PUSH2 0x48DA JUMP JUMPDEST DUP3 GT PUSH2 0x3368 JUMPI PUSH1 0x0 DUP7 DUP5 KECCAK256 SWAP1 POP DUP1 DUP3 EQ ISZERO PUSH2 0x3345 JUMPI DUP4 SWAP5 POP POP POP POP POP PUSH2 0x337B JUMP JUMPDEST PUSH1 0x1 DUP5 PUSH2 0x3352 SWAP2 SWAP1 PUSH2 0x4688 JUMP JUMPDEST SWAP4 POP POP DUP2 DUP1 PUSH2 0x3360 SWAP1 PUSH2 0x4A27 JUMP JUMPDEST SWAP3 POP POP PUSH2 0x3318 JUMP JUMPDEST POP JUMPDEST DUP7 DUP7 PUSH2 0x3376 SWAP2 SWAP1 PUSH2 0x4688 JUMP JUMPDEST SWAP3 POP POP POP JUMPDEST SWAP5 SWAP4 POP POP POP POP JUMP JUMPDEST PUSH2 0x338B PUSH2 0x34D4 JUMP JUMPDEST PUSH1 0x0 PUSH2 0x33A9 DUP6 PUSH1 0x0 ADD MLOAD DUP7 PUSH1 0x20 ADD MLOAD DUP7 PUSH1 0x0 ADD MLOAD DUP8 PUSH1 0x20 ADD MLOAD PUSH2 0x3239 JUMP JUMPDEST SWAP1 POP DUP5 PUSH1 0x20 ADD MLOAD DUP4 PUSH1 0x20 ADD DUP2 DUP2 MSTORE POP POP DUP5 PUSH1 0x20 ADD MLOAD DUP2 PUSH2 0x33C9 SWAP2 SWAP1 PUSH2 0x48DA JUMP JUMPDEST DUP4 PUSH1 0x0 ADD DUP2 DUP2 MSTORE POP POP DUP5 PUSH1 0x0 ADD MLOAD DUP6 PUSH1 0x20 ADD MLOAD PUSH2 0x33E6 SWAP2 SWAP1 PUSH2 0x4688 JUMP JUMPDEST DUP2 EQ ISZERO PUSH2 0x33FD JUMPI PUSH1 0x0 DUP6 PUSH1 0x0 ADD DUP2 DUP2 MSTORE POP POP PUSH2 0x3443 JUMP JUMPDEST DUP4 PUSH1 0x0 ADD MLOAD DUP4 PUSH1 0x0 ADD MLOAD PUSH2 0x3411 SWAP2 SWAP1 PUSH2 0x4688 JUMP JUMPDEST DUP6 PUSH1 0x0 ADD DUP2 DUP2 MLOAD PUSH2 0x3422 SWAP2 SWAP1 PUSH2 0x48DA JUMP JUMPDEST SWAP2 POP DUP2 DUP2 MSTORE POP POP DUP4 PUSH1 0x0 ADD MLOAD DUP2 PUSH2 0x3439 SWAP2 SWAP1 PUSH2 0x4688 JUMP JUMPDEST DUP6 PUSH1 0x20 ADD DUP2 DUP2 MSTORE POP POP JUMPDEST DUP3 SWAP2 POP POP SWAP4 SWAP3 POP POP POP JUMP JUMPDEST DUP3 DUP1 SLOAD PUSH2 0x345A SWAP1 PUSH2 0x49C4 JUMP JUMPDEST SWAP1 PUSH1 0x0 MSTORE PUSH1 0x20 PUSH1 0x0 KECCAK256 SWAP1 PUSH1 0x1F ADD PUSH1 0x20 SWAP1 DIV DUP2 ADD SWAP3 DUP3 PUSH2 0x347C JUMPI PUSH1 0x0 DUP6 SSTORE PUSH2 0x34C3 JUMP JUMPDEST DUP3 PUSH1 0x1F LT PUSH2 0x3495 JUMPI DUP1 CALLDATALOAD PUSH1 0xFF NOT AND DUP4 DUP1 ADD OR DUP6 SSTORE PUSH2 0x34C3 JUMP JUMPDEST DUP3 DUP1 ADD PUSH1 0x1 ADD DUP6 SSTORE DUP3 ISZERO PUSH2 0x34C3 JUMPI SWAP2 DUP3 ADD JUMPDEST DUP3 DUP2 GT ISZERO PUSH2 0x34C2 JUMPI DUP3 CALLDATALOAD DUP3 SSTORE SWAP2 PUSH1 0x20 ADD SWAP2 SWAP1 PUSH1 0x1 ADD SWAP1 PUSH2 0x34A7 JUMP JUMPDEST JUMPDEST POP SWAP1 POP PUSH2 0x34D0 SWAP2 SWAP1 PUSH2 0x34EE JUMP JUMPDEST POP SWAP1 JUMP JUMPDEST PUSH1 0x40 MLOAD DUP1 PUSH1 0x40 ADD PUSH1 0x40 MSTORE DUP1 PUSH1 0x0 DUP2 MSTORE PUSH1 0x20 ADD PUSH1 0x0 DUP2 MSTORE POP SWAP1 JUMP JUMPDEST JUMPDEST DUP1 DUP3 GT ISZERO PUSH2 0x3507 JUMPI PUSH1 0x0 DUP2 PUSH1 0x0 SWAP1 SSTORE POP PUSH1 0x1 ADD PUSH2 0x34EF JUMP JUMPDEST POP SWAP1 JUMP JUMPDEST PUSH1 0x0 PUSH2 0x351E PUSH2 0x3519 DUP5 PUSH2 0x45F4 JUMP JUMPDEST PUSH2 0x45CF JUMP JUMPDEST SWAP1 POP DUP3 DUP2 MSTORE PUSH1 0x20 DUP2 ADD DUP5 DUP5 DUP5 ADD GT ISZERO PUSH2 0x353A JUMPI PUSH2 0x3539 PUSH2 0x4B6A JUMP JUMPDEST JUMPDEST PUSH2 0x3545 DUP5 DUP3 DUP6 PUSH2 0x4982 JUMP JUMPDEST POP SWAP4 SWAP3 POP POP POP JUMP JUMPDEST PUSH1 0x0 DUP2 CALLDATALOAD SWAP1 POP PUSH2 0x355C DUP2 PUSH2 0x54A2 JUMP JUMPDEST SWAP3 SWAP2 POP POP JUMP JUMPDEST PUSH1 0x0 DUP2 MLOAD SWAP1 POP PUSH2 0x3571 DUP2 PUSH2 0x54A2 JUMP JUMPDEST SWAP3 SWAP2 POP POP JUMP JUMPDEST PUSH1 0x0 DUP2 CALLDATALOAD SWAP1 POP PUSH2 0x3586 DUP2 PUSH2 0x54B9 JUMP JUMPDEST SWAP3 SWAP2 POP POP JUMP JUMPDEST PUSH1 0x0 DUP2 MLOAD SWAP1 POP PUSH2 0x359B DUP2 PUSH2 0x54B9 JUMP JUMPDEST SWAP3 SWAP2 POP POP JUMP JUMPDEST PUSH1 0x0 DUP2 CALLDATALOAD SWAP1 POP PUSH2 0x35B0 DUP2 PUSH2 0x54D0 JUMP JUMPDEST SWAP3 SWAP2 POP POP JUMP JUMPDEST PUSH1 0x0 DUP2 MLOAD SWAP1 POP PUSH2 0x35C5 DUP2 PUSH2 0x54D0 JUMP JUMPDEST SWAP3 SWAP2 POP POP JUMP JUMPDEST PUSH1 0x0 DUP3 PUSH1 0x1F DUP4 ADD SLT PUSH2 0x35E0 JUMPI PUSH2 0x35DF PUSH2 0x4B60 JUMP JUMPDEST JUMPDEST DUP2 CALLDATALOAD PUSH2 0x35F0 DUP5 DUP3 PUSH1 0x20 DUP7 ADD PUSH2 0x350B JUMP JUMPDEST SWAP2 POP POP SWAP3 SWAP2 POP POP JUMP JUMPDEST PUSH1 0x0 DUP1 DUP4 PUSH1 0x1F DUP5 ADD SLT PUSH2 0x360F JUMPI PUSH2 0x360E PUSH2 0x4B60 JUMP JUMPDEST JUMPDEST DUP3 CALLDATALOAD SWAP1 POP PUSH8 0xFFFFFFFFFFFFFFFF DUP2 GT ISZERO PUSH2 0x362C JUMPI PUSH2 0x362B PUSH2 0x4B5B JUMP JUMPDEST JUMPDEST PUSH1 0x20 DUP4 ADD SWAP2 POP DUP4 PUSH1 0x1 DUP3 MUL DUP4 ADD GT ISZERO PUSH2 0x3648 JUMPI PUSH2 0x3647 PUSH2 0x4B65 JUMP JUMPDEST JUMPDEST SWAP3 POP SWAP3 SWAP1 POP JUMP JUMPDEST PUSH1 0x0 DUP2 CALLDATALOAD SWAP1 POP PUSH2 0x365E DUP2 PUSH2 0x54E7 JUMP JUMPDEST SWAP3 SWAP2 POP POP JUMP JUMPDEST PUSH1 0x0 PUSH1 0x20 DUP3 DUP5 SUB SLT ISZERO PUSH2 0x367A JUMPI PUSH2 0x3679 PUSH2 0x4B74 JUMP JUMPDEST JUMPDEST PUSH1 0x0 PUSH2 0x3688 DUP5 DUP3 DUP6 ADD PUSH2 0x354D JUMP JUMPDEST SWAP2 POP POP SWAP3 SWAP2 POP POP JUMP JUMPDEST PUSH1 0x0 PUSH1 0x20 DUP3 DUP5 SUB SLT ISZERO PUSH2 0x36A7 JUMPI PUSH2 0x36A6 PUSH2 0x4B74 JUMP JUMPDEST JUMPDEST PUSH1 0x0 PUSH2 0x36B5 DUP5 DUP3 DUP6 ADD PUSH2 0x3562 JUMP JUMPDEST SWAP2 POP POP SWAP3 SWAP2 POP POP JUMP JUMPDEST PUSH1 0x0 DUP1 PUSH1 0x40 DUP4 DUP6 SUB SLT ISZERO PUSH2 0x36D5 JUMPI PUSH2 0x36D4 PUSH2 0x4B74 JUMP JUMPDEST JUMPDEST PUSH1 0x0 PUSH2 0x36E3 DUP6 DUP3 DUP7 ADD PUSH2 0x354D JUMP JUMPDEST SWAP3 POP POP PUSH1 0x20 PUSH2 0x36F4 DUP6 DUP3 DUP7 ADD PUSH2 0x354D JUMP JUMPDEST SWAP2 POP POP SWAP3 POP SWAP3 SWAP1 POP JUMP JUMPDEST PUSH1 0x0 DUP1 PUSH1 0x0 PUSH1 0x60 DUP5 DUP7 SUB SLT ISZERO PUSH2 0x3717 JUMPI PUSH2 0x3716 PUSH2 0x4B74 JUMP JUMPDEST JUMPDEST PUSH1 0x0 PUSH2 0x3725 DUP7 DUP3 DUP8 ADD PUSH2 0x354D JUMP JUMPDEST SWAP4 POP POP PUSH1 0x20 PUSH2 0x3736 DUP7 DUP3 DUP8 ADD PUSH2 0x354D JUMP JUMPDEST SWAP3 POP POP PUSH1 0x40 PUSH2 0x3747 DUP7 DUP3 DUP8 ADD PUSH2 0x364F JUMP JUMPDEST SWAP2 POP POP SWAP3 POP SWAP3 POP SWAP3 JUMP JUMPDEST PUSH1 0x0 DUP1 PUSH1 0x0 DUP1 PUSH1 0x80 DUP6 DUP8 SUB SLT ISZERO PUSH2 0x376B JUMPI PUSH2 0x376A PUSH2 0x4B74 JUMP JUMPDEST JUMPDEST PUSH1 0x0 PUSH2 0x3779 DUP8 DUP3 DUP9 ADD PUSH2 0x354D JUMP JUMPDEST SWAP5 POP POP PUSH1 0x20 PUSH2 0x378A DUP8 DUP3 DUP9 ADD PUSH2 0x354D JUMP JUMPDEST SWAP4 POP POP PUSH1 0x40 PUSH2 0x379B DUP8 DUP3 DUP9 ADD PUSH2 0x364F JUMP JUMPDEST SWAP3 POP POP PUSH1 0x60 DUP6 ADD CALLDATALOAD PUSH8 0xFFFFFFFFFFFFFFFF DUP2 GT ISZERO PUSH2 0x37BC JUMPI PUSH2 0x37BB PUSH2 0x4B6F JUMP JUMPDEST JUMPDEST PUSH2 0x37C8 DUP8 DUP3 DUP9 ADD PUSH2 0x35CB JUMP JUMPDEST SWAP2 POP POP SWAP3 SWAP6 SWAP2 SWAP5 POP SWAP3 POP JUMP JUMPDEST PUSH1 0x0 DUP1 PUSH1 0x40 DUP4 DUP6 SUB SLT ISZERO PUSH2 0x37EB JUMPI PUSH2 0x37EA PUSH2 0x4B74 JUMP JUMPDEST JUMPDEST PUSH1 0x0 PUSH2 0x37F9 DUP6 DUP3 DUP7 ADD PUSH2 0x354D JUMP JUMPDEST SWAP3 POP POP PUSH1 0x20 PUSH2 0x380A DUP6 DUP3 DUP7 ADD PUSH2 0x3577 JUMP JUMPDEST SWAP2 POP POP SWAP3 POP SWAP3 SWAP1 POP JUMP JUMPDEST PUSH1 0x0 DUP1 PUSH1 0x40 DUP4 DUP6 SUB SLT ISZERO PUSH2 0x382B JUMPI PUSH2 0x382A PUSH2 0x4B74 JUMP JUMPDEST JUMPDEST PUSH1 0x0 PUSH2 0x3839 DUP6 DUP3 DUP7 ADD PUSH2 0x354D JUMP JUMPDEST SWAP3 POP POP PUSH1 0x20 PUSH2 0x384A DUP6 DUP3 DUP7 ADD PUSH2 0x364F JUMP JUMPDEST SWAP2 POP POP SWAP3 POP SWAP3 SWAP1 POP JUMP JUMPDEST PUSH1 0x0 PUSH1 0x20 DUP3 DUP5 SUB SLT ISZERO PUSH2 0x386A JUMPI PUSH2 0x3869 PUSH2 0x4B74 JUMP JUMPDEST JUMPDEST PUSH1 0x0 PUSH2 0x3878 DUP5 DUP3 DUP6 ADD PUSH2 0x358C JUMP JUMPDEST SWAP2 POP POP SWAP3 SWAP2 POP POP JUMP JUMPDEST PUSH1 0x0 PUSH1 0x20 DUP3 DUP5 SUB SLT ISZERO PUSH2 0x3897 JUMPI PUSH2 0x3896 PUSH2 0x4B74 JUMP JUMPDEST JUMPDEST PUSH1 0x0 PUSH2 0x38A5 DUP5 DUP3 DUP6 ADD PUSH2 0x35A1 JUMP JUMPDEST SWAP2 POP POP SWAP3 SWAP2 POP POP JUMP JUMPDEST PUSH1 0x0 PUSH1 0x20 DUP3 DUP5 SUB SLT ISZERO PUSH2 0x38C4 JUMPI PUSH2 0x38C3 PUSH2 0x4B74 JUMP JUMPDEST JUMPDEST PUSH1 0x0 PUSH2 0x38D2 DUP5 DUP3 DUP6 ADD PUSH2 0x35B6 JUMP JUMPDEST SWAP2 POP POP SWAP3 SWAP2 POP POP JUMP JUMPDEST PUSH1 0x0 DUP1 PUSH1 0x0 DUP1 PUSH1 0x0 DUP1 PUSH1 0x0 PUSH1 0x80 DUP9 DUP11 SUB SLT ISZERO PUSH2 0x38FA JUMPI PUSH2 0x38F9 PUSH2 0x4B74 JUMP JUMPDEST JUMPDEST PUSH1 0x0 DUP9 ADD CALLDATALOAD PUSH8 0xFFFFFFFFFFFFFFFF DUP2 GT ISZERO PUSH2 0x3918 JUMPI PUSH2 0x3917 PUSH2 0x4B6F JUMP JUMPDEST JUMPDEST PUSH2 0x3924 DUP11 DUP3 DUP12 ADD PUSH2 0x35F9 JUMP JUMPDEST SWAP8 POP SWAP8 POP POP PUSH1 0x20 DUP9 ADD CALLDATALOAD PUSH8 0xFFFFFFFFFFFFFFFF DUP2 GT ISZERO PUSH2 0x3947 JUMPI PUSH2 0x3946 PUSH2 0x4B6F JUMP JUMPDEST JUMPDEST PUSH2 0x3953 DUP11 DUP3 DUP12 ADD PUSH2 0x35F9 JUMP JUMPDEST SWAP6 POP SWAP6 POP POP PUSH1 0x40 DUP9 ADD CALLDATALOAD PUSH8 0xFFFFFFFFFFFFFFFF DUP2 GT ISZERO PUSH2 0x3976 JUMPI PUSH2 0x3975 PUSH2 0x4B6F JUMP JUMPDEST JUMPDEST PUSH2 0x3982 DUP11 DUP3 DUP12 ADD PUSH2 0x35F9 JUMP JUMPDEST SWAP4 POP SWAP4 POP POP PUSH1 0x60 PUSH2 0x3995 DUP11 DUP3 DUP12 ADD PUSH2 0x364F JUMP JUMPDEST SWAP2 POP POP SWAP3 SWAP6 SWAP9 SWAP2 SWAP5 SWAP8 POP SWAP3 SWAP6 POP JUMP JUMPDEST PUSH1 0x0 PUSH1 0x20 DUP3 DUP5 SUB SLT ISZERO PUSH2 0x39BA JUMPI PUSH2 0x39B9 PUSH2 0x4B74 JUMP JUMPDEST JUMPDEST PUSH1 0x0 PUSH2 0x39C8 DUP5 DUP3 DUP6 ADD PUSH2 0x364F JUMP JUMPDEST SWAP2 POP POP SWAP3 SWAP2 POP POP JUMP JUMPDEST PUSH1 0x0 DUP1 PUSH1 0x40 DUP4 DUP6 SUB SLT ISZERO PUSH2 0x39E8 JUMPI PUSH2 0x39E7 PUSH2 0x4B74 JUMP JUMPDEST JUMPDEST PUSH1 0x0 PUSH2 0x39F6 DUP6 DUP3 DUP7 ADD PUSH2 0x364F JUMP JUMPDEST SWAP3 POP POP PUSH1 0x20 PUSH2 0x3A07 DUP6 DUP3 DUP7 ADD PUSH2 0x364F JUMP JUMPDEST SWAP2 POP POP SWAP3 POP SWAP3 SWAP1 POP JUMP JUMPDEST PUSH2 0x3A1A DUP2 PUSH2 0x490E JUMP JUMPDEST DUP3 MSTORE POP POP JUMP JUMPDEST PUSH2 0x3A29 DUP2 PUSH2 0x4920 JUMP JUMPDEST DUP3 MSTORE POP POP JUMP JUMPDEST PUSH1 0x0 PUSH2 0x3A3A DUP3 PUSH2 0x463A JUMP JUMPDEST PUSH2 0x3A44 DUP2 DUP6 PUSH2 0x4650 JUMP JUMPDEST SWAP4 POP PUSH2 0x3A54 DUP2 DUP6 PUSH1 0x20 DUP7 ADD PUSH2 0x4991 JUMP JUMPDEST PUSH2 0x3A5D DUP2 PUSH2 0x4B79 JUMP JUMPDEST DUP5 ADD SWAP2 POP POP SWAP3 SWAP2 POP POP JUMP JUMPDEST PUSH1 0x0 PUSH2 0x3A73 DUP3 PUSH2 0x463A JUMP JUMPDEST PUSH2 0x3A7D DUP2 DUP6 PUSH2 0x4661 JUMP JUMPDEST SWAP4 POP PUSH2 0x3A8D DUP2 DUP6 PUSH1 0x20 DUP7 ADD PUSH2 0x4991 JUMP JUMPDEST DUP1 DUP5 ADD SWAP2 POP POP SWAP3 SWAP2 POP POP JUMP JUMPDEST PUSH1 0x0 PUSH2 0x3AA4 DUP3 PUSH2 0x4645 JUMP JUMPDEST PUSH2 0x3AAE DUP2 DUP6 PUSH2 0x466C JUMP JUMPDEST SWAP4 POP PUSH2 0x3ABE DUP2 DUP6 PUSH1 0x20 DUP7 ADD PUSH2 0x4991 JUMP JUMPDEST PUSH2 0x3AC7 DUP2 PUSH2 0x4B79 JUMP JUMPDEST DUP5 ADD SWAP2 POP POP SWAP3 SWAP2 POP POP JUMP JUMPDEST PUSH1 0x0 PUSH2 0x3ADD DUP3 PUSH2 0x4645 JUMP JUMPDEST PUSH2 0x3AE7 DUP2 DUP6 PUSH2 0x467D JUMP JUMPDEST SWAP4 POP PUSH2 0x3AF7 DUP2 DUP6 PUSH1 0x20 DUP7 ADD PUSH2 0x4991 JUMP JUMPDEST DUP1 DUP5 ADD SWAP2 POP POP SWAP3 SWAP2 POP POP JUMP JUMPDEST PUSH1 0x0 DUP2 SLOAD PUSH2 0x3B10 DUP2 PUSH2 0x49C4 JUMP JUMPDEST PUSH2 0x3B1A DUP2 DUP7 PUSH2 0x467D JUMP JUMPDEST SWAP5 POP PUSH1 0x1 DUP3 AND PUSH1 0x0 DUP2 EQ PUSH2 0x3B35 JUMPI PUSH1 0x1 DUP2 EQ PUSH2 0x3B46 JUMPI PUSH2 0x3B79 JUMP JUMPDEST PUSH1 0xFF NOT DUP4 AND DUP7 MSTORE DUP2 DUP7 ADD SWAP4 POP PUSH2 0x3B79 JUMP JUMPDEST PUSH2 0x3B4F DUP6 PUSH2 0x4625 JUMP JUMPDEST PUSH1 0x0 JUMPDEST DUP4 DUP2 LT ISZERO PUSH2 0x3B71 JUMPI DUP2 SLOAD DUP2 DUP10 ADD MSTORE PUSH1 0x1 DUP3 ADD SWAP2 POP PUSH1 0x20 DUP2 ADD SWAP1 POP PUSH2 0x3B52 JUMP JUMPDEST DUP4 DUP9 ADD SWAP6 POP POP POP JUMPDEST POP POP POP SWAP3 SWAP2 POP POP JUMP JUMPDEST PUSH1 0x0 PUSH2 0x3B8F PUSH1 0x2D DUP4 PUSH2 0x466C JUMP JUMPDEST SWAP2 POP PUSH2 0x3B9A DUP3 PUSH2 0x4B97 JUMP JUMPDEST PUSH1 0x40 DUP3 ADD SWAP1 POP SWAP2 SWAP1 POP JUMP JUMPDEST PUSH1 0x0 PUSH2 0x3BB2 PUSH1 0x32 DUP4 PUSH2 0x466C JUMP JUMPDEST SWAP2 POP PUSH2 0x3BBD DUP3 PUSH2 0x4BE6 JUMP JUMPDEST PUSH1 0x40 DUP3 ADD SWAP1 POP SWAP2 SWAP1 POP JUMP JUMPDEST PUSH1 0x0 PUSH2 0x3BD5 PUSH1 0xF DUP4 PUSH2 0x467D JUMP JUMPDEST SWAP2 POP PUSH2 0x3BE0 DUP3 PUSH2 0x4C35 JUMP JUMPDEST PUSH1 0xF DUP3 ADD SWAP1 POP SWAP2 SWAP1 POP JUMP JUMPDEST PUSH1 0x0 PUSH2 0x3BF8 PUSH1 0x74 DUP4 PUSH2 0x467D JUMP JUMPDEST SWAP2 POP PUSH2 0x3C03 DUP3 PUSH2 0x4C5E JUMP JUMPDEST PUSH1 0x74 DUP3 ADD SWAP1 POP SWAP2 SWAP1 POP JUMP JUMPDEST PUSH1 0x0 PUSH2 0x3C1B PUSH1 0x26 DUP4 PUSH2 0x466C JUMP JUMPDEST SWAP2 POP PUSH2 0x3C26 DUP3 PUSH2 0x4CF9 JUMP JUMPDEST PUSH1 0x40 DUP3 ADD SWAP1 POP SWAP2 SWAP1 POP JUMP JUMPDEST PUSH1 0x0 PUSH2 0x3C3E PUSH1 0x25 DUP4 PUSH2 0x466C JUMP JUMPDEST SWAP2 POP PUSH2 0x3C49 DUP3 PUSH2 0x4D48 JUMP JUMPDEST PUSH1 0x40 DUP3 ADD SWAP1 POP SWAP2 SWAP1 POP JUMP JUMPDEST PUSH1 0x0 PUSH2 0x3C61 PUSH1 0x1C DUP4 PUSH2 0x466C JUMP JUMPDEST SWAP2 POP PUSH2 0x3C6C DUP3 PUSH2 0x4D97 JUMP JUMPDEST PUSH1 0x20 DUP3 ADD SWAP1 POP SWAP2 SWAP1 POP JUMP JUMPDEST PUSH1 0x0 PUSH2 0x3C84 PUSH1 0x67 DUP4 PUSH2 0x467D JUMP JUMPDEST SWAP2 POP PUSH2 0x3C8F DUP3 PUSH2 0x4DC0 JUMP JUMPDEST PUSH1 0x67 DUP3 ADD SWAP1 POP SWAP2 SWAP1 POP JUMP JUMPDEST PUSH1 0x0 PUSH2 0x3CA7 PUSH1 0x1 DUP4 PUSH2 0x467D JUMP JUMPDEST SWAP2 POP PUSH2 0x3CB2 DUP3 PUSH2 0x4E5B JUMP JUMPDEST PUSH1 0x1 DUP3 ADD SWAP1 POP SWAP2 SWAP1 POP JUMP JUMPDEST PUSH1 0x0 PUSH2 0x3CCA PUSH1 0x24 DUP4 PUSH2 0x466C JUMP JUMPDEST SWAP2 POP PUSH2 0x3CD5 DUP3 PUSH2 0x4E84 JUMP JUMPDEST PUSH1 0x40 DUP3 ADD SWAP1 POP SWAP2 SWAP1 POP JUMP JUMPDEST PUSH1 0x0 PUSH2 0x3CED PUSH1 0x19 DUP4 PUSH2 0x466C JUMP JUMPDEST SWAP2 POP PUSH2 0x3CF8 DUP3 PUSH2 0x4ED3 JUMP JUMPDEST PUSH1 0x20 DUP3 ADD SWAP1 POP SWAP2 SWAP1 POP JUMP JUMPDEST PUSH1 0x0 PUSH2 0x3D10 PUSH1 0x31 DUP4 PUSH2 0x467D JUMP JUMPDEST SWAP2 POP PUSH2 0x3D1B DUP3 PUSH2 0x4EFC JUMP JUMPDEST PUSH1 0x31 DUP3 ADD SWAP1 POP SWAP2 SWAP1 POP JUMP JUMPDEST PUSH1 0x0 PUSH2 0x3D33 PUSH1 0x8 DUP4 PUSH2 0x467D JUMP JUMPDEST SWAP2 POP PUSH2 0x3D3E DUP3 PUSH2 0x4F4B JUMP JUMPDEST PUSH1 0x8 DUP3 ADD SWAP1 POP SWAP2 SWAP1 POP JUMP JUMPDEST PUSH1 0x0 PUSH2 0x3D56 PUSH1 0x33 DUP4 PUSH2 0x467D JUMP JUMPDEST SWAP2 POP PUSH2 0x3D61 DUP3 PUSH2 0x4F74 JUMP JUMPDEST PUSH1 0x33 DUP3 ADD SWAP1 POP SWAP2 SWAP1 POP JUMP JUMPDEST PUSH1 0x0 PUSH2 0x3D79 PUSH1 0x4C DUP4 PUSH2 0x467D JUMP JUMPDEST SWAP2 POP PUSH2 0x3D84 DUP3 PUSH2 0x4FC3 JUMP JUMPDEST PUSH1 0x4C DUP3 ADD SWAP1 POP SWAP2 SWAP1 POP JUMP JUMPDEST PUSH1 0x0 PUSH2 0x3D9C PUSH1 0x1E DUP4 PUSH2 0x467D JUMP JUMPDEST SWAP2 POP PUSH2 0x3DA7 DUP3 PUSH2 0x5038 JUMP JUMPDEST PUSH1 0x1E DUP3 ADD SWAP1 POP SWAP2 SWAP1 POP JUMP JUMPDEST PUSH1 0x0 PUSH2 0x3DBF PUSH1 0x29 DUP4 PUSH2 0x466C JUMP JUMPDEST SWAP2 POP PUSH2 0x3DCA DUP3 PUSH2 0x5061 JUMP JUMPDEST PUSH1 0x40 DUP3 ADD SWAP1 POP SWAP2 SWAP1 POP JUMP JUMPDEST PUSH1 0x0 PUSH2 0x3DE2 PUSH1 0x1 DUP4 PUSH2 0x467D JUMP JUMPDEST SWAP2 POP PUSH2 0x3DED DUP3 PUSH2 0x50B0 JUMP JUMPDEST PUSH1 0x1 DUP3 ADD SWAP1 POP SWAP2 SWAP1 POP JUMP JUMPDEST PUSH1 0x0 PUSH2 0x3E05 PUSH1 0x4 DUP4 PUSH2 0x467D JUMP JUMPDEST SWAP2 POP PUSH2 0x3E10 DUP3 PUSH2 0x50D9 JUMP JUMPDEST PUSH1 0x4 DUP3 ADD SWAP1 POP SWAP2 SWAP1 POP JUMP JUMPDEST PUSH1 0x0 PUSH2 0x3E28 PUSH1 0x7 DUP4 PUSH2 0x467D JUMP JUMPDEST SWAP2 POP PUSH2 0x3E33 DUP3 PUSH2 0x5102 JUMP JUMPDEST PUSH1 0x7 DUP3 ADD SWAP1 POP SWAP2 SWAP1 POP JUMP JUMPDEST PUSH1 0x0 PUSH2 0x3E4B PUSH1 0x20 DUP4 PUSH2 0x466C JUMP JUMPDEST SWAP2 POP PUSH2 0x3E56 DUP3 PUSH2 0x512B JUMP JUMPDEST PUSH1 0x20 DUP3 ADD SWAP1 POP SWAP2 SWAP1 POP JUMP JUMPDEST PUSH1 0x0 PUSH2 0x3E6E PUSH1 0x1 DUP4 PUSH2 0x467D JUMP JUMPDEST SWAP2 POP PUSH2 0x3E79 DUP3 PUSH2 0x5154 JUMP JUMPDEST PUSH1 0x1 DUP3 ADD SWAP1 POP SWAP2 SWAP1 POP JUMP JUMPDEST PUSH1 0x0 PUSH2 0x3E91 PUSH1 0x20 DUP4 PUSH2 0x466C JUMP JUMPDEST SWAP2 POP PUSH2 0x3E9C DUP3 PUSH2 0x517D JUMP JUMPDEST PUSH1 0x20 DUP3 ADD SWAP1 POP SWAP2 SWAP1 POP JUMP JUMPDEST PUSH1 0x0 PUSH2 0x3EB4 PUSH1 0x1 DUP4 PUSH2 0x467D JUMP JUMPDEST SWAP2 POP PUSH2 0x3EBF DUP3 PUSH2 0x51A6 JUMP JUMPDEST PUSH1 0x1 DUP3 ADD SWAP1 POP SWAP2 SWAP1 POP JUMP JUMPDEST PUSH1 0x0 PUSH2 0x3ED7 PUSH1 0x18 DUP4 PUSH2 0x466C JUMP JUMPDEST SWAP2 POP PUSH2 0x3EE2 DUP3 PUSH2 0x51CF JUMP JUMPDEST PUSH1 0x20 DUP3 ADD SWAP1 POP SWAP2 SWAP1 POP JUMP JUMPDEST PUSH1 0x0 PUSH2 0x3EFA PUSH1 0x21 DUP4 PUSH2 0x466C JUMP JUMPDEST SWAP2 POP PUSH2 0x3F05 DUP3 PUSH2 0x51F8 JUMP JUMPDEST PUSH1 0x40 DUP3 ADD SWAP1 POP SWAP2 SWAP1 POP JUMP JUMPDEST PUSH1 0x0 PUSH2 0x3F1D PUSH1 0x1D DUP4 PUSH2 0x467D JUMP JUMPDEST SWAP2 POP PUSH2 0x3F28 DUP3 PUSH2 0x5247 JUMP JUMPDEST PUSH1 0x1D DUP3 ADD SWAP1 POP SWAP2 SWAP1 POP JUMP JUMPDEST PUSH1 0x0 PUSH2 0x3F40 PUSH1 0x0 DUP4 PUSH2 0x467D JUMP JUMPDEST SWAP2 POP PUSH2 0x3F4B DUP3 PUSH2 0x5270 JUMP JUMPDEST PUSH1 0x0 DUP3 ADD SWAP1 POP SWAP2 SWAP1 POP JUMP JUMPDEST PUSH1 0x0 PUSH2 0x3F63 PUSH1 0x3D DUP4 PUSH2 0x466C JUMP JUMPDEST SWAP2 POP PUSH2 0x3F6E DUP3 PUSH2 0x5273 JUMP JUMPDEST PUSH1 0x40 DUP3 ADD SWAP1 POP SWAP2 SWAP1 POP JUMP JUMPDEST PUSH1 0x0 PUSH2 0x3F86 PUSH1 0xE DUP4 PUSH2 0x466C JUMP JUMPDEST SWAP2 POP PUSH2 0x3F91 DUP3 PUSH2 0x52C2 JUMP JUMPDEST PUSH1 0x20 DUP3 ADD SWAP1 POP SWAP2 SWAP1 POP JUMP JUMPDEST PUSH1 0x0 PUSH2 0x3FA9 PUSH1 0x23 DUP4 PUSH2 0x467D JUMP JUMPDEST SWAP2 POP PUSH2 0x3FB4 DUP3 PUSH2 0x52EB JUMP JUMPDEST PUSH1 0x23 DUP3 ADD SWAP1 POP SWAP2 SWAP1 POP JUMP JUMPDEST PUSH1 0x0 PUSH2 0x3FCC PUSH1 0x6 DUP4 PUSH2 0x467D JUMP JUMPDEST SWAP2 POP PUSH2 0x3FD7 DUP3 PUSH2 0x533A JUMP JUMPDEST PUSH1 0x6 DUP3 ADD SWAP1 POP SWAP2 SWAP1 POP JUMP JUMPDEST PUSH1 0x0 PUSH2 0x3FEF PUSH1 0x11 DUP4 PUSH2 0x466C JUMP JUMPDEST SWAP2 POP PUSH2 0x3FFA DUP3 PUSH2 0x5363 JUMP JUMPDEST PUSH1 0x20 DUP3 ADD SWAP1 POP SWAP2 SWAP1 POP JUMP JUMPDEST PUSH1 0x0 PUSH2 0x4012 PUSH1 0xA DUP4 PUSH2 0x466C JUMP JUMPDEST SWAP2 POP PUSH2 0x401D DUP3 PUSH2 0x538C JUMP JUMPDEST PUSH1 0x20 DUP3 ADD SWAP1 POP SWAP2 SWAP1 POP JUMP JUMPDEST PUSH1 0x0 PUSH2 0x4035 PUSH1 0x45 DUP4 PUSH2 0x467D JUMP JUMPDEST SWAP2 POP PUSH2 0x4040 DUP3 PUSH2 0x53B5 JUMP JUMPDEST PUSH1 0x45 DUP3 ADD SWAP1 POP SWAP2 SWAP1 POP JUMP JUMPDEST PUSH1 0x0 PUSH2 0x4058 PUSH1 0xE DUP4 PUSH2 0x466C JUMP JUMPDEST SWAP2 POP PUSH2 0x4063 DUP3 PUSH2 0x542A JUMP JUMPDEST PUSH1 0x20 DUP3 ADD SWAP1 POP SWAP2 SWAP1 POP JUMP JUMPDEST PUSH1 0x0 PUSH2 0x407B PUSH1 0x2C DUP4 PUSH2 0x467D JUMP JUMPDEST SWAP2 POP PUSH2 0x4086 DUP3 PUSH2 0x5453 JUMP JUMPDEST PUSH1 0x2C DUP3 ADD SWAP1 POP SWAP2 SWAP1 POP JUMP JUMPDEST PUSH2 0x409A DUP2 PUSH2 0x4978 JUMP JUMPDEST DUP3 MSTORE POP POP JUMP JUMPDEST PUSH1 0x0 PUSH2 0x40AB DUP3 PUSH2 0x3BC8 JUMP JUMPDEST SWAP2 POP PUSH2 0x40B7 DUP3 DUP5 PUSH2 0x3B03 JUMP JUMPDEST SWAP2 POP PUSH2 0x40C2 DUP3 PUSH2 0x3DD5 JUMP JUMPDEST SWAP2 POP DUP2 SWAP1 POP SWAP3 SWAP2 POP POP JUMP JUMPDEST PUSH1 0x0 PUSH2 0x40D8 DUP3 PUSH2 0x3BEB JUMP JUMPDEST SWAP2 POP PUSH2 0x40E4 DUP3 DUP9 PUSH2 0x3A68 JUMP JUMPDEST SWAP2 POP PUSH2 0x40F0 DUP3 DUP8 PUSH2 0x3A68 JUMP JUMPDEST SWAP2 POP PUSH2 0x40FC DUP3 DUP7 PUSH2 0x3A68 JUMP JUMPDEST SWAP2 POP PUSH2 0x4108 DUP3 DUP6 PUSH2 0x3A68 JUMP JUMPDEST SWAP2 POP PUSH2 0x4114 DUP3 DUP5 PUSH2 0x3A68 JUMP JUMPDEST SWAP2 POP PUSH2 0x411F DUP3 PUSH2 0x3FBF JUMP JUMPDEST SWAP2 POP DUP2 SWAP1 POP SWAP7 SWAP6 POP POP POP POP POP POP JUMP JUMPDEST PUSH1 0x0 PUSH2 0x4139 DUP3 PUSH2 0x3C77 JUMP JUMPDEST SWAP2 POP PUSH2 0x4144 DUP3 PUSH2 0x4028 JUMP JUMPDEST SWAP2 POP DUP2 SWAP1 POP SWAP2 SWAP1 POP JUMP JUMPDEST PUSH1 0x0 PUSH2 0x4159 DUP3 PUSH2 0x3D03 JUMP JUMPDEST SWAP2 POP PUSH2 0x4165 DUP3 DUP5 PUSH2 0x3AD2 JUMP JUMPDEST SWAP2 POP PUSH2 0x4170 DUP3 PUSH2 0x3DF8 JUMP JUMPDEST SWAP2 POP DUP2 SWAP1 POP SWAP3 SWAP2 POP POP JUMP JUMPDEST PUSH1 0x0 PUSH2 0x4186 DUP3 PUSH2 0x3D26 JUMP JUMPDEST SWAP2 POP PUSH2 0x4192 DUP3 DUP5 PUSH2 0x3B03 JUMP JUMPDEST SWAP2 POP PUSH2 0x419D DUP3 PUSH2 0x3DD5 JUMP JUMPDEST SWAP2 POP DUP2 SWAP1 POP SWAP3 SWAP2 POP POP JUMP JUMPDEST PUSH1 0x0 PUSH2 0x41B3 DUP3 PUSH2 0x3D49 JUMP JUMPDEST SWAP2 POP PUSH2 0x41BF DUP3 DUP5 PUSH2 0x3AD2 JUMP JUMPDEST SWAP2 POP PUSH2 0x41CA DUP3 PUSH2 0x3DF8 JUMP JUMPDEST SWAP2 POP DUP2 SWAP1 POP SWAP3 SWAP2 POP POP JUMP JUMPDEST PUSH1 0x0 PUSH2 0x41E0 DUP3 PUSH2 0x3D8F JUMP JUMPDEST SWAP2 POP PUSH2 0x41EC DUP3 DUP5 PUSH2 0x3AD2 JUMP JUMPDEST SWAP2 POP PUSH2 0x41F7 DUP3 PUSH2 0x3E1B JUMP JUMPDEST SWAP2 POP DUP2 SWAP1 POP SWAP3 SWAP2 POP POP JUMP JUMPDEST PUSH1 0x0 PUSH2 0x420D DUP3 PUSH2 0x3EA7 JUMP JUMPDEST SWAP2 POP PUSH2 0x4219 DUP3 DUP7 PUSH2 0x3A68 JUMP JUMPDEST SWAP2 POP PUSH2 0x4224 DUP3 PUSH2 0x3C9A JUMP JUMPDEST SWAP2 POP PUSH2 0x4230 DUP3 DUP6 PUSH2 0x3A68 JUMP JUMPDEST SWAP2 POP PUSH2 0x423B DUP3 PUSH2 0x3C9A JUMP JUMPDEST SWAP2 POP PUSH2 0x4247 DUP3 DUP5 PUSH2 0x3A68 JUMP JUMPDEST SWAP2 POP PUSH2 0x4252 DUP3 PUSH2 0x3E61 JUMP JUMPDEST SWAP2 POP DUP2 SWAP1 POP SWAP5 SWAP4 POP POP POP POP JUMP JUMPDEST PUSH1 0x0 PUSH2 0x426A DUP3 PUSH2 0x3F10 JUMP JUMPDEST SWAP2 POP PUSH2 0x4276 DUP3 DUP5 PUSH2 0x3AD2 JUMP JUMPDEST SWAP2 POP DUP2 SWAP1 POP SWAP3 SWAP2 POP POP JUMP JUMPDEST PUSH1 0x0 PUSH2 0x428C DUP3 PUSH2 0x3F33 JUMP JUMPDEST SWAP2 POP DUP2 SWAP1 POP SWAP2 SWAP1 POP JUMP JUMPDEST PUSH1 0x0 PUSH2 0x42A1 DUP3 PUSH2 0x3F9C JUMP JUMPDEST SWAP2 POP PUSH2 0x42AD DUP3 DUP5 PUSH2 0x3AD2 JUMP JUMPDEST SWAP2 POP PUSH2 0x42B8 DUP3 PUSH2 0x3DD5 JUMP JUMPDEST SWAP2 POP DUP2 SWAP1 POP SWAP3 SWAP2 POP POP JUMP JUMPDEST PUSH1 0x0 PUSH2 0x42CE DUP3 PUSH2 0x406E JUMP JUMPDEST SWAP2 POP PUSH2 0x42DA DUP3 DUP5 PUSH2 0x3AD2 JUMP JUMPDEST SWAP2 POP PUSH2 0x42E5 DUP3 PUSH2 0x3D6C JUMP JUMPDEST SWAP2 POP DUP2 SWAP1 POP SWAP3 SWAP2 POP POP JUMP JUMPDEST PUSH1 0x0 PUSH1 0x20 DUP3 ADD SWAP1 POP PUSH2 0x4305 PUSH1 0x0 DUP4 ADD DUP5 PUSH2 0x3A11 JUMP JUMPDEST SWAP3 SWAP2 POP POP JUMP JUMPDEST PUSH1 0x0 PUSH1 0x80 DUP3 ADD SWAP1 POP PUSH2 0x4320 PUSH1 0x0 DUP4 ADD DUP8 PUSH2 0x3A11 JUMP JUMPDEST PUSH2 0x432D PUSH1 0x20 DUP4 ADD DUP7 PUSH2 0x3A11 JUMP JUMPDEST PUSH2 0x433A PUSH1 0x40 DUP4 ADD DUP6 PUSH2 0x4091 JUMP JUMPDEST DUP2 DUP2 SUB PUSH1 0x60 DUP4 ADD MSTORE PUSH2 0x434C DUP2 DUP5 PUSH2 0x3A2F JUMP JUMPDEST SWAP1 POP SWAP6 SWAP5 POP POP POP POP POP JUMP JUMPDEST PUSH1 0x0 PUSH1 0x20 DUP3 ADD SWAP1 POP PUSH2 0x436C PUSH1 0x0 DUP4 ADD DUP5 PUSH2 0x3A20 JUMP JUMPDEST SWAP3 SWAP2 POP POP JUMP JUMPDEST PUSH1 0x0 PUSH1 0x20 DUP3 ADD SWAP1 POP DUP2 DUP2 SUB PUSH1 0x0 DUP4 ADD MSTORE PUSH2 0x438C DUP2 DUP5 PUSH2 0x3A99 JUMP JUMPDEST SWAP1 POP SWAP3 SWAP2 POP POP JUMP JUMPDEST PUSH1 0x0 PUSH1 0x20 DUP3 ADD SWAP1 POP DUP2 DUP2 SUB PUSH1 0x0 DUP4 ADD MSTORE PUSH2 0x43AD DUP2 PUSH2 0x3B82 JUMP JUMPDEST SWAP1 POP SWAP2 SWAP1 POP JUMP JUMPDEST PUSH1 0x0 PUSH1 0x20 DUP3 ADD SWAP1 POP DUP2 DUP2 SUB PUSH1 0x0 DUP4 ADD MSTORE PUSH2 0x43CD DUP2 PUSH2 0x3BA5 JUMP JUMPDEST SWAP1 POP SWAP2 SWAP1 POP JUMP JUMPDEST PUSH1 0x0 PUSH1 0x20 DUP3 ADD SWAP1 POP DUP2 DUP2 SUB PUSH1 0x0 DUP4 ADD MSTORE PUSH2 0x43ED DUP2 PUSH2 0x3C0E JUMP JUMPDEST SWAP1 POP SWAP2 SWAP1 POP JUMP JUMPDEST PUSH1 0x0 PUSH1 0x20 DUP3 ADD SWAP1 POP DUP2 DUP2 SUB PUSH1 0x0 DUP4 ADD MSTORE PUSH2 0x440D DUP2 PUSH2 0x3C31 JUMP JUMPDEST SWAP1 POP SWAP2 SWAP1 POP JUMP JUMPDEST PUSH1 0x0 PUSH1 0x20 DUP3 ADD SWAP1 POP DUP2 DUP2 SUB PUSH1 0x0 DUP4 ADD MSTORE PUSH2 0x442D DUP2 PUSH2 0x3C54 JUMP JUMPDEST SWAP1 POP SWAP2 SWAP1 POP JUMP JUMPDEST PUSH1 0x0 PUSH1 0x20 DUP3 ADD SWAP1 POP DUP2 DUP2 SUB PUSH1 0x0 DUP4 ADD MSTORE PUSH2 0x444D DUP2 PUSH2 0x3CBD JUMP JUMPDEST SWAP1 POP SWAP2 SWAP1 POP JUMP JUMPDEST PUSH1 0x0 PUSH1 0x20 DUP3 ADD SWAP1 POP DUP2 DUP2 SUB PUSH1 0x0 DUP4 ADD MSTORE PUSH2 0x446D DUP2 PUSH2 0x3CE0 JUMP JUMPDEST SWAP1 POP SWAP2 SWAP1 POP JUMP JUMPDEST PUSH1 0x0 PUSH1 0x20 DUP3 ADD SWAP1 POP DUP2 DUP2 SUB PUSH1 0x0 DUP4 ADD MSTORE PUSH2 0x448D DUP2 PUSH2 0x3DB2 JUMP JUMPDEST SWAP1 POP SWAP2 SWAP1 POP JUMP JUMPDEST PUSH1 0x0 PUSH1 0x20 DUP3 ADD SWAP1 POP DUP2 DUP2 SUB PUSH1 0x0 DUP4 ADD MSTORE PUSH2 0x44AD DUP2 PUSH2 0x3E3E JUMP JUMPDEST SWAP1 POP SWAP2 SWAP1 POP JUMP JUMPDEST PUSH1 0x0 PUSH1 0x20 DUP3 ADD SWAP1 POP DUP2 DUP2 SUB PUSH1 0x0 DUP4 ADD MSTORE PUSH2 0x44CD DUP2 PUSH2 0x3E84 JUMP JUMPDEST SWAP1 POP SWAP2 SWAP1 POP JUMP JUMPDEST PUSH1 0x0 PUSH1 0x20 DUP3 ADD SWAP1 POP DUP2 DUP2 SUB PUSH1 0x0 DUP4 ADD MSTORE PUSH2 0x44ED DUP2 PUSH2 0x3ECA JUMP JUMPDEST SWAP1 POP SWAP2 SWAP1 POP JUMP JUMPDEST PUSH1 0x0 PUSH1 0x20 DUP3 ADD SWAP1 POP DUP2 DUP2 SUB PUSH1 0x0 DUP4 ADD MSTORE PUSH2 0x450D DUP2 PUSH2 0x3EED JUMP JUMPDEST SWAP1 POP SWAP2 SWAP1 POP JUMP JUMPDEST PUSH1 0x0 PUSH1 0x20 DUP3 ADD SWAP1 POP DUP2 DUP2 SUB PUSH1 0x0 DUP4 ADD MSTORE PUSH2 0x452D DUP2 PUSH2 0x3F56 JUMP JUMPDEST SWAP1 POP SWAP2 SWAP1 POP JUMP JUMPDEST PUSH1 0x0 PUSH1 0x20 DUP3 ADD SWAP1 POP DUP2 DUP2 SUB PUSH1 0x0 DUP4 ADD MSTORE PUSH2 0x454D DUP2 PUSH2 0x3F79 JUMP JUMPDEST SWAP1 POP SWAP2 SWAP1 POP JUMP JUMPDEST PUSH1 0x0 PUSH1 0x20 DUP3 ADD SWAP1 POP DUP2 DUP2 SUB PUSH1 0x0 DUP4 ADD MSTORE PUSH2 0x456D DUP2 PUSH2 0x3FE2 JUMP JUMPDEST SWAP1 POP SWAP2 SWAP1 POP JUMP JUMPDEST PUSH1 0x0 PUSH1 0x20 DUP3 ADD SWAP1 POP DUP2 DUP2 SUB PUSH1 0x0 DUP4 ADD MSTORE PUSH2 0x458D DUP2 PUSH2 0x4005 JUMP JUMPDEST SWAP1 POP SWAP2 SWAP1 POP JUMP JUMPDEST PUSH1 0x0 PUSH1 0x20 DUP3 ADD SWAP1 POP DUP2 DUP2 SUB PUSH1 0x0 DUP4 ADD MSTORE PUSH2 0x45AD DUP2 PUSH2 0x404B JUMP JUMPDEST SWAP1 POP SWAP2 SWAP1 POP JUMP JUMPDEST PUSH1 0x0 PUSH1 0x20 DUP3 ADD SWAP1 POP PUSH2 0x45C9 PUSH1 0x0 DUP4 ADD DUP5 PUSH2 0x4091 JUMP JUMPDEST SWAP3 SWAP2 POP POP JUMP JUMPDEST PUSH1 0x0 PUSH2 0x45D9 PUSH2 0x45EA JUMP JUMPDEST SWAP1 POP PUSH2 0x45E5 DUP3 DUP3 PUSH2 0x49F6 JUMP JUMPDEST SWAP2 SWAP1 POP JUMP JUMPDEST PUSH1 0x0 PUSH1 0x40 MLOAD SWAP1 POP SWAP1 JUMP JUMPDEST PUSH1 0x0 PUSH8 0xFFFFFFFFFFFFFFFF DUP3 GT ISZERO PUSH2 0x460F JUMPI PUSH2 0x460E PUSH2 0x4B2C JUMP JUMPDEST JUMPDEST PUSH2 0x4618 DUP3 PUSH2 0x4B79 JUMP JUMPDEST SWAP1 POP PUSH1 0x20 DUP2 ADD SWAP1 POP SWAP2 SWAP1 POP JUMP JUMPDEST PUSH1 0x0 DUP2 SWAP1 POP DUP2 PUSH1 0x0 MSTORE PUSH1 0x20 PUSH1 0x0 KECCAK256 SWAP1 POP SWAP2 SWAP1 POP JUMP JUMPDEST PUSH1 0x0 DUP2 MLOAD SWAP1 POP SWAP2 SWAP1 POP JUMP JUMPDEST PUSH1 0x0 DUP2 MLOAD SWAP1 POP SWAP2 SWAP1 POP JUMP JUMPDEST PUSH1 0x0 DUP3 DUP3 MSTORE PUSH1 0x20 DUP3 ADD SWAP1 POP SWAP3 SWAP2 POP POP JUMP JUMPDEST PUSH1 0x0 DUP2 SWAP1 POP SWAP3 SWAP2 POP POP JUMP JUMPDEST PUSH1 0x0 DUP3 DUP3 MSTORE PUSH1 0x20 DUP3 ADD SWAP1 POP SWAP3 SWAP2 POP POP JUMP JUMPDEST PUSH1 0x0 DUP2 SWAP1 POP SWAP3 SWAP2 POP POP JUMP JUMPDEST PUSH1 0x0 PUSH2 0x4693 DUP3 PUSH2 0x4978 JUMP JUMPDEST SWAP2 POP PUSH2 0x469E DUP4 PUSH2 0x4978 JUMP JUMPDEST SWAP3 POP DUP3 PUSH32 0xFFFFFFFFFFFFFFFFFFFFFFFFFFFFFFFFFFFFFFFFFFFFFFFFFFFFFFFFFFFFFFFF SUB DUP3 GT ISZERO PUSH2 0x46D3 JUMPI PUSH2 0x46D2 PUSH2 0x4A70 JUMP JUMPDEST JUMPDEST DUP3 DUP3 ADD SWAP1 POP SWAP3 SWAP2 POP POP JUMP JUMPDEST PUSH1 0x0 PUSH2 0x46E9 DUP3 PUSH2 0x4978 JUMP JUMPDEST SWAP2 POP PUSH2 0x46F4 DUP4 PUSH2 0x4978 JUMP JUMPDEST SWAP3 POP DUP3 PUSH2 0x4704 JUMPI PUSH2 0x4703 PUSH2 0x4A9F JUMP JUMPDEST JUMPDEST DUP3 DUP3 DIV SWAP1 POP SWAP3 SWAP2 POP POP JUMP JUMPDEST PUSH1 0x0 DUP1 DUP3 SWAP2 POP DUP4 SWAP1 POP JUMPDEST PUSH1 0x1 DUP6 GT ISZERO PUSH2 0x4759 JUMPI DUP1 DUP7 DIV DUP2 GT ISZERO PUSH2 0x4735 JUMPI PUSH2 0x4734 PUSH2 0x4A70 JUMP JUMPDEST JUMPDEST PUSH1 0x1 DUP6 AND ISZERO PUSH2 0x4744 JUMPI DUP1 DUP3 MUL SWAP2 POP JUMPDEST DUP1 DUP2 MUL SWAP1 POP PUSH2 0x4752 DUP6 PUSH2 0x4B8A JUMP JUMPDEST SWAP5 POP PUSH2 0x4719 JUMP JUMPDEST SWAP5 POP SWAP5 SWAP3 POP POP POP JUMP JUMPDEST PUSH1 0x0 PUSH2 0x476D DUP3 PUSH2 0x4978 JUMP JUMPDEST SWAP2 POP PUSH2 0x4778 DUP4 PUSH2 0x4978 JUMP JUMPDEST SWAP3 POP PUSH2 0x47A5 PUSH32 0xFFFFFFFFFFFFFFFFFFFFFFFFFFFFFFFFFFFFFFFFFFFFFFFFFFFFFFFFFFFFFFFF DUP5 DUP5 PUSH2 0x47AD JUMP JUMPDEST SWAP1 POP SWAP3 SWAP2 POP POP JUMP JUMPDEST PUSH1 0x0 DUP3 PUSH2 0x47BD JUMPI PUSH1 0x1 SWAP1 POP PUSH2 0x4879 JUMP JUMPDEST DUP2 PUSH2 0x47CB JUMPI PUSH1 0x0 SWAP1 POP PUSH2 0x4879 JUMP JUMPDEST DUP2 PUSH1 0x1 DUP2 EQ PUSH2 0x47E1 JUMPI PUSH1 0x2 DUP2 EQ PUSH2 0x47EB JUMPI PUSH2 0x481A JUMP JUMPDEST PUSH1 0x1 SWAP2 POP POP PUSH2 0x4879 JUMP JUMPDEST PUSH1 0xFF DUP5 GT ISZERO PUSH2 0x47FD JUMPI PUSH2 0x47FC PUSH2 0x4A70 JUMP JUMPDEST JUMPDEST DUP4 PUSH1 0x2 EXP SWAP2 POP DUP5 DUP3 GT ISZERO PUSH2 0x4814 JUMPI PUSH2 0x4813 PUSH2 0x4A70 JUMP JUMPDEST JUMPDEST POP PUSH2 0x4879 JUMP JUMPDEST POP PUSH1 0x20 DUP4 LT PUSH2 0x133 DUP4 LT AND PUSH1 0x4E DUP5 LT PUSH1 0xB DUP5 LT AND OR ISZERO PUSH2 0x484F JUMPI DUP3 DUP3 EXP SWAP1 POP DUP4 DUP2 GT ISZERO PUSH2 0x484A JUMPI PUSH2 0x4849 PUSH2 0x4A70 JUMP JUMPDEST JUMPDEST PUSH2 0x4879 JUMP JUMPDEST PUSH2 0x485C DUP5 DUP5 DUP5 PUSH1 0x1 PUSH2 0x470F JUMP JUMPDEST SWAP3 POP SWAP1 POP DUP2 DUP5 DIV DUP2 GT ISZERO PUSH2 0x4873 JUMPI PUSH2 0x4872 PUSH2 0x4A70 JUMP JUMPDEST JUMPDEST DUP2 DUP2 MUL SWAP1 POP JUMPDEST SWAP4 SWAP3 POP POP POP JUMP JUMPDEST PUSH1 0x0 PUSH2 0x488B DUP3 PUSH2 0x4978 JUMP JUMPDEST SWAP2 POP PUSH2 0x4896 DUP4 PUSH2 0x4978 JUMP JUMPDEST SWAP3 POP DUP2 PUSH32 0xFFFFFFFFFFFFFFFFFFFFFFFFFFFFFFFFFFFFFFFFFFFFFFFFFFFFFFFFFFFFFFFF DIV DUP4 GT DUP3 ISZERO ISZERO AND ISZERO PUSH2 0x48CF JUMPI PUSH2 0x48CE PUSH2 0x4A70 JUMP JUMPDEST JUMPDEST DUP3 DUP3 MUL SWAP1 POP SWAP3 SWAP2 POP POP JUMP JUMPDEST PUSH1 0x0 PUSH2 0x48E5 DUP3 PUSH2 0x4978 JUMP JUMPDEST SWAP2 POP PUSH2 0x48F0 DUP4 PUSH2 0x4978 JUMP JUMPDEST SWAP3 POP DUP3 DUP3 LT ISZERO PUSH2 0x4903 JUMPI PUSH2 0x4902 PUSH2 0x4A70 JUMP JUMPDEST JUMPDEST DUP3 DUP3 SUB SWAP1 POP SWAP3 SWAP2 POP POP JUMP JUMPDEST PUSH1 0x0 PUSH2 0x4919 DUP3 PUSH2 0x4958 JUMP JUMPDEST SWAP1 POP SWAP2 SWAP1 POP JUMP JUMPDEST PUSH1 0x0 DUP2 ISZERO ISZERO SWAP1 POP SWAP2 SWAP1 POP JUMP JUMPDEST PUSH1 0x0 PUSH32 0xFFFFFFFF00000000000000000000000000000000000000000000000000000000 DUP3 AND SWAP1 POP SWAP2 SWAP1 POP JUMP JUMPDEST PUSH1 0x0 PUSH20 0xFFFFFFFFFFFFFFFFFFFFFFFFFFFFFFFFFFFFFFFF DUP3 AND SWAP1 POP SWAP2 SWAP1 POP JUMP JUMPDEST PUSH1 0x0 DUP2 SWAP1 POP SWAP2 SWAP1 POP JUMP JUMPDEST DUP3 DUP2 DUP4 CALLDATACOPY PUSH1 0x0 DUP4 DUP4 ADD MSTORE POP POP POP JUMP JUMPDEST PUSH1 0x0 JUMPDEST DUP4 DUP2 LT ISZERO PUSH2 0x49AF JUMPI DUP1 DUP3 ADD MLOAD DUP2 DUP5 ADD MSTORE PUSH1 0x20 DUP2 ADD SWAP1 POP PUSH2 0x4994 JUMP JUMPDEST DUP4 DUP2 GT ISZERO PUSH2 0x49BE JUMPI PUSH1 0x0 DUP5 DUP5 ADD MSTORE JUMPDEST POP POP POP POP JUMP JUMPDEST PUSH1 0x0 PUSH1 0x2 DUP3 DIV SWAP1 POP PUSH1 0x1 DUP3 AND DUP1 PUSH2 0x49DC JUMPI PUSH1 0x7F DUP3 AND SWAP2 POP JUMPDEST PUSH1 0x20 DUP3 LT DUP2 EQ ISZERO PUSH2 0x49F0 JUMPI PUSH2 0x49EF PUSH2 0x4ACE JUMP JUMPDEST JUMPDEST POP SWAP2 SWAP1 POP JUMP JUMPDEST PUSH2 0x49FF DUP3 PUSH2 0x4B79 JUMP JUMPDEST DUP2 ADD DUP2 DUP2 LT PUSH8 0xFFFFFFFFFFFFFFFF DUP3 GT OR ISZERO PUSH2 0x4A1E JUMPI PUSH2 0x4A1D PUSH2 0x4B2C JUMP JUMPDEST JUMPDEST DUP1 PUSH1 0x40 MSTORE POP POP POP JUMP JUMPDEST PUSH1 0x0 PUSH2 0x4A32 DUP3 PUSH2 0x4978 JUMP JUMPDEST SWAP2 POP PUSH32 0xFFFFFFFFFFFFFFFFFFFFFFFFFFFFFFFFFFFFFFFFFFFFFFFFFFFFFFFFFFFFFFFF DUP3 EQ ISZERO PUSH2 0x4A65 JUMPI PUSH2 0x4A64 PUSH2 0x4A70 JUMP JUMPDEST JUMPDEST PUSH1 0x1 DUP3 ADD SWAP1 POP SWAP2 SWAP1 POP JUMP JUMPDEST PUSH32 0x4E487B7100000000000000000000000000000000000000000000000000000000 PUSH1 0x0 MSTORE PUSH1 0x11 PUSH1 0x4 MSTORE PUSH1 0x24 PUSH1 0x0 REVERT JUMPDEST PUSH32 0x4E487B7100000000000000000000000000000000000000000000000000000000 PUSH1 0x0 MSTORE PUSH1 0x12 PUSH1 0x4 MSTORE PUSH1 0x24 PUSH1 0x0 REVERT JUMPDEST PUSH32 0x4E487B7100000000000000000000000000000000000000000000000000000000 PUSH1 0x0 MSTORE PUSH1 0x22 PUSH1 0x4 MSTORE PUSH1 0x24 PUSH1 0x0 REVERT JUMPDEST PUSH32 0x4E487B7100000000000000000000000000000000000000000000000000000000 PUSH1 0x0 MSTORE PUSH1 0x32 PUSH1 0x4 MSTORE PUSH1 0x24 PUSH1 0x0 REVERT JUMPDEST PUSH32 0x4E487B7100000000000000000000000000000000000000000000000000000000 PUSH1 0x0 MSTORE PUSH1 0x41 PUSH1 0x4 MSTORE PUSH1 0x24 PUSH1 0x0 REVERT JUMPDEST PUSH1 0x0 DUP1 REVERT JUMPDEST PUSH1 0x0 DUP1 REVERT JUMPDEST PUSH1 0x0 DUP1 REVERT JUMPDEST PUSH1 0x0 DUP1 REVERT JUMPDEST PUSH1 0x0 DUP1 REVERT JUMPDEST PUSH1 0x0 DUP1 REVERT JUMPDEST PUSH1 0x0 PUSH1 0x1F NOT PUSH1 0x1F DUP4 ADD AND SWAP1 POP SWAP2 SWAP1 POP JUMP JUMPDEST PUSH1 0x0 DUP2 PUSH1 0x1 SHR SWAP1 POP SWAP2 SWAP1 POP JUMP JUMPDEST PUSH32 0x4552433732313A2063616C6C6572206973206E6F7420746F6B656E206F776E65 PUSH1 0x0 DUP3 ADD MSTORE PUSH32 0x72206F7220617070726F76656400000000000000000000000000000000000000 PUSH1 0x20 DUP3 ADD MSTORE POP JUMP JUMPDEST PUSH32 0x4552433732313A207472616E7366657220746F206E6F6E204552433732315265 PUSH1 0x0 DUP3 ADD MSTORE PUSH32 0x63656976657220696D706C656D656E7465720000000000000000000000000000 PUSH1 0x20 DUP3 ADD MSTORE POP JUMP JUMPDEST PUSH32 0x226465736372697074696F6E223A220000000000000000000000000000000000 PUSH1 0x0 DUP3 ADD MSTORE POP JUMP JUMPDEST PUSH32 0x3C73766720786D6C6E733D22687474703A2F2F7777772E77332E6F72672F3230 PUSH1 0x0 DUP3 ADD MSTORE PUSH32 0x30302F73766722207072657365727665417370656374526174696F3D22784D69 PUSH1 0x20 DUP3 ADD MSTORE PUSH32 0x6E594D696E206D656574222076696577426F783D223020302033353020333530 PUSH1 0x40 DUP3 ADD MSTORE PUSH32 0x22206F766572666C6F773D2268696464656E223E000000000000000000000000 PUSH1 0x60 DUP3 ADD MSTORE POP JUMP JUMPDEST PUSH32 0x4F776E61626C653A206E6577206F776E657220697320746865207A65726F2061 PUSH1 0x0 DUP3 ADD MSTORE PUSH32 0x6464726573730000000000000000000000000000000000000000000000000000 PUSH1 0x20 DUP3 ADD MSTORE POP JUMP JUMPDEST PUSH32 0x4552433732313A207472616E736665722066726F6D20696E636F727265637420 PUSH1 0x0 DUP3 ADD MSTORE PUSH32 0x6F776E6572000000000000000000000000000000000000000000000000000000 PUSH1 0x20 DUP3 ADD MSTORE POP JUMP JUMPDEST PUSH32 0x4552433732313A20746F6B656E20616C7265616479206D696E74656400000000 PUSH1 0x0 DUP3 ADD MSTORE POP JUMP JUMPDEST PUSH32 0x3C7061746820643D224D203137352E333135203334382E393438204C20333530 PUSH1 0x0 DUP3 ADD MSTORE PUSH32 0x203230322E333731204C20333530203238302E363934204C203236372E343035 PUSH1 0x20 DUP3 ADD MSTORE PUSH32 0x20333530204C203137362E31393820333530205A222066696C6C3D2223444141 PUSH1 0x40 DUP3 ADD MSTORE PUSH32 0x35323022202F3E00000000000000000000000000000000000000000000000000 PUSH1 0x60 DUP3 ADD MSTORE POP JUMP JUMPDEST PUSH32 0x2C00000000000000000000000000000000000000000000000000000000000000 PUSH1 0x0 DUP3 ADD MSTORE POP JUMP JUMPDEST PUSH32 0x4552433732313A207472616E7366657220746F20746865207A65726F20616464 PUSH1 0x0 DUP3 ADD MSTORE PUSH32 0x7265737300000000000000000000000000000000000000000000000000000000 PUSH1 0x20 DUP3 ADD MSTORE POP JUMP JUMPDEST PUSH32 0x4552433732313A20617070726F766520746F2063616C6C657200000000000000 PUSH1 0x0 DUP3 ADD MSTORE POP JUMP JUMPDEST PUSH32 0x3C7265637420783D22302220793D2230222077696474683D2233353022206865 PUSH1 0x0 DUP3 ADD MSTORE PUSH32 0x696768743D22333530222066696C6C3D22000000000000000000000000000000 PUSH1 0x20 DUP3 ADD MSTORE POP JUMP JUMPDEST PUSH32 0x226E616D65223A22000000000000000000000000000000000000000000000000 PUSH1 0x0 DUP3 ADD MSTORE POP JUMP JUMPDEST PUSH32 0x3C7265637420783D2231302220793D223130222077696474683D223333302220 PUSH1 0x0 DUP3 ADD MSTORE PUSH32 0x6865696768743D22333330222066696C6C3D2200000000000000000000000000 PUSH1 0x20 DUP3 ADD MSTORE POP JUMP JUMPDEST PUSH32 0x70783B2066696C6C3A233030307D202E6C7B666F6E742D66616D696C793A7361 PUSH1 0x0 DUP3 ADD MSTORE PUSH32 0x6E732D73657269663B666F6E742D73697A653A333070783B2066696C6C3A2366 PUSH1 0x20 DUP3 ADD MSTORE PUSH32 0x66667D203C2F7374796C653E0000000000000000000000000000000000000000 PUSH1 0x40 DUP3 ADD MSTORE POP JUMP JUMPDEST PUSH32 0x3C7465787420783D2231302220793D2231302220636C6173733D2266223E0000 PUSH1 0x0 DUP3 ADD MSTORE POP JUMP JUMPDEST PUSH32 0x4552433732313A2061646472657373207A65726F206973206E6F742061207661 PUSH1 0x0 DUP3 ADD MSTORE PUSH32 0x6C6964206F776E65720000000000000000000000000000000000000000000000 PUSH1 0x20 DUP3 ADD MSTORE POP JUMP JUMPDEST PUSH32 0x2200000000000000000000000000000000000000000000000000000000000000 PUSH1 0x0 DUP3 ADD MSTORE POP JUMP JUMPDEST PUSH32 0x22202F3E00000000000000000000000000000000000000000000000000000000 PUSH1 0x0 DUP3 ADD MSTORE POP JUMP JUMPDEST PUSH32 0x3C2F746578743E00000000000000000000000000000000000000000000000000 PUSH1 0x0 DUP3 ADD MSTORE POP JUMP JUMPDEST PUSH32 0x4552433732313A206D696E7420746F20746865207A65726F2061646472657373 PUSH1 0x0 DUP3 ADD MSTORE POP JUMP JUMPDEST PUSH32 0x7D00000000000000000000000000000000000000000000000000000000000000 PUSH1 0x0 DUP3 ADD MSTORE POP JUMP JUMPDEST PUSH32 0x4F776E61626C653A2063616C6C6572206973206E6F7420746865206F776E6572 PUSH1 0x0 DUP3 ADD MSTORE POP JUMP JUMPDEST PUSH32 0x7B00000000000000000000000000000000000000000000000000000000000000 PUSH1 0x0 DUP3 ADD MSTORE POP JUMP JUMPDEST PUSH32 0x4552433732313A20696E76616C696420746F6B656E2049440000000000000000 PUSH1 0x0 DUP3 ADD MSTORE POP JUMP JUMPDEST PUSH32 0x4552433732313A20617070726F76616C20746F2063757272656E74206F776E65 PUSH1 0x0 DUP3 ADD MSTORE PUSH32 0x7200000000000000000000000000000000000000000000000000000000000000 PUSH1 0x20 DUP3 ADD MSTORE POP JUMP JUMPDEST PUSH32 0x646174613A6170706C69636174696F6E2F6A736F6E3B6261736536342C000000 PUSH1 0x0 DUP3 ADD MSTORE POP JUMP JUMPDEST POP JUMP JUMPDEST PUSH32 0x4552433732313A20617070726F76652063616C6C6572206973206E6F7420746F PUSH1 0x0 DUP3 ADD MSTORE PUSH32 0x6B656E206F776E6572206F7220617070726F76656420666F7220616C6C000000 PUSH1 0x20 DUP3 ADD MSTORE POP JUMP JUMPDEST PUSH32 0x616C7265616479206F70656E6564000000000000000000000000000000000000 PUSH1 0x0 DUP3 ADD MSTORE POP JUMP JUMPDEST PUSH32 0x22696D616765223A22646174613A696D6167652F7376672B786D6C3B62617365 PUSH1 0x0 DUP3 ADD MSTORE PUSH32 0x36342C0000000000000000000000000000000000000000000000000000000000 PUSH1 0x20 DUP3 ADD MSTORE POP JUMP JUMPDEST PUSH32 0x3C2F7376673E0000000000000000000000000000000000000000000000000000 PUSH1 0x0 DUP3 ADD MSTORE POP JUMP JUMPDEST PUSH32 0x6E6F6E6578736974656E7420746F6B656E000000000000000000000000000000 PUSH1 0x0 DUP3 ADD MSTORE POP JUMP JUMPDEST PUSH32 0x6F776E6572206F6E6C7900000000000000000000000000000000000000000000 PUSH1 0x0 DUP3 ADD MSTORE POP JUMP JUMPDEST PUSH32 0x3C7465787420783D222D33302220793D2234323022207472616E73666F726D3D PUSH1 0x0 DUP3 ADD MSTORE PUSH32 0x22726F74617465282D3430292220636C6173733D226C223E434C4F5345443C2F PUSH1 0x20 DUP3 ADD MSTORE PUSH32 0x746578743E000000000000000000000000000000000000000000000000000000 PUSH1 0x40 DUP3 ADD MSTORE POP JUMP JUMPDEST PUSH32 0x616C726561647920636C6F736564000000000000000000000000000000000000 PUSH1 0x0 DUP3 ADD MSTORE POP JUMP JUMPDEST PUSH32 0x3C7374796C653E202E667B666F6E742D66616D696C793A73616E732D73657269 PUSH1 0x0 DUP3 ADD MSTORE PUSH32 0x663B666F6E742D73697A653A0000000000000000000000000000000000000000 PUSH1 0x20 DUP3 ADD MSTORE POP JUMP JUMPDEST PUSH2 0x54AB DUP2 PUSH2 0x490E JUMP JUMPDEST DUP2 EQ PUSH2 0x54B6 JUMPI PUSH1 0x0 DUP1 REVERT JUMPDEST POP JUMP JUMPDEST PUSH2 0x54C2 DUP2 PUSH2 0x4920 JUMP JUMPDEST DUP2 EQ PUSH2 0x54CD JUMPI PUSH1 0x0 DUP1 REVERT JUMPDEST POP JUMP JUMPDEST PUSH2 0x54D9 DUP2 PUSH2 0x492C JUMP JUMPDEST DUP2 EQ PUSH2 0x54E4 JUMPI PUSH1 0x0 DUP1 REVERT JUMPDEST POP JUMP JUMPDEST PUSH2 0x54F0 DUP2 PUSH2 0x4978 JUMP JUMPDEST DUP2 EQ PUSH2 0x54FB JUMPI PUSH1 0x0 DUP1 REVERT JUMPDEST POP JUMP INVALID COINBASE TIMESTAMP NUMBER DIFFICULTY GASLIMIT CHAINID SELFBALANCE BASEFEE 0x49 0x4A 0x4B 0x4C 0x4D 0x4E 0x4F POP MLOAD MSTORE MSTORE8 SLOAD SSTORE JUMP JUMPI PC MSIZE GAS PUSH2 0x6263 PUSH5 0x6566676869 PUSH11 0x6B6C6D6E6F707172737475 PUSH23 0x7778797A303132333435363738392B2FA2646970667358 0x22 SLT KECCAK256 0xCB MSIZE 0xDB LOG3 SHR DUP13 BLOCKHASH DUP15 0xC2 SSTORE POP PUSH15 0xCF512E8892974E30CEA5E30DE53615 SWAP3 NUMBER 0xC6 0x49 PUSH32 0x64736F6C63430008070033000000000000000000000000000000000000000000 "
		},
		"gasEstimates": {
			"creation": {
				"codeDepositCost": "4375200",
				"executionCost": "infinite",
				"totalCost": "infinite"
			},
			"external": {
				"approve(address,uint256)": "infinite",
				"balanceOf(address)": "2990",
				"close(uint256)": "infinite",
				"getApproved(uint256)": "5300",
				"getClosedAt(uint256)": "infinite",
				"getFontSize(uint256)": "infinite",
				"getOpenedAt(uint256)": "infinite",
				"isApprovedForAll(address,address)": "infinite",
				"isClosed(uint256)": "7276",
				"mint(string,string,string,uint256)": "infinite",
				"name()": "infinite",
				"owner()": "2545",
				"ownerOf(uint256)": "3091",
				"renounceOwnership()": "30531",
				"reopen(uint256)": "infinite",
				"safeTransferFrom(address,address,uint256)": "infinite",
				"safeTransferFrom(address,address,uint256,bytes)": "infinite",
				"setApprovalForAll(address,bool)": "infinite",
				"setFontSize(uint256,uint256)": "infinite",
				"supportsInterface(bytes4)": "797",
				"symbol()": "infinite",
				"tokenURI(uint256)": "infinite",
				"transferFrom(address,address,uint256)": "infinite",
				"transferOwnership(address)": "30879"
			},
			"internal": {
				"createSVG(string memory,string memory,uint256,bool)": "infinite",
				"split(string memory,string memory)": "infinite"
			}
		},
		"methodIdentifiers": {
			"approve(address,uint256)": "095ea7b3",
			"balanceOf(address)": "70a08231",
			"close(uint256)": "0aebeb4e",
			"getApproved(uint256)": "081812fc",
			"getClosedAt(uint256)": "e0f23eeb",
			"getFontSize(uint256)": "e284e840",
			"getOpenedAt(uint256)": "60862bb5",
			"isApprovedForAll(address,address)": "e985e9c5",
			"isClosed(uint256)": "d5c78a28",
			"mint(string,string,string,uint256)": "31b6475c",
			"name()": "06fdde03",
			"owner()": "8da5cb5b",
			"ownerOf(uint256)": "6352211e",
			"renounceOwnership()": "715018a6",
			"reopen(uint256)": "b609ac61",
			"safeTransferFrom(address,address,uint256)": "42842e0e",
			"safeTransferFrom(address,address,uint256,bytes)": "b88d4fde",
			"setApprovalForAll(address,bool)": "a22cb465",
			"setFontSize(uint256,uint256)": "c57eeb28",
			"supportsInterface(bytes4)": "01ffc9a7",
			"symbol()": "95d89b41",
			"tokenURI(uint256)": "c87b56dd",
			"transferFrom(address,address,uint256)": "23b872dd",
			"transferOwnership(address)": "f2fde38b"
		}
	},
	"abi": [
		{
			"inputs": [],
			"stateMutability": "nonpayable",
			"type": "constructor"
		},
		{
			"anonymous": false,
			"inputs": [
				{
					"indexed": true,
					"internalType": "address",
					"name": "owner",
					"type": "address"
				},
				{
					"indexed": true,
					"internalType": "address",
					"name": "approved",
					"type": "address"
				},
				{
					"indexed": true,
					"internalType": "uint256",
					"name": "tokenId",
					"type": "uint256"
				}
			],
			"name": "Approval",
			"type": "event"
		},
		{
			"anonymous": false,
			"inputs": [
				{
					"indexed": true,
					"internalType": "address",
					"name": "owner",
					"type": "address"
				},
				{
					"indexed": true,
					"internalType": "address",
					"name": "operator",
					"type": "address"
				},
				{
					"indexed": false,
					"internalType": "bool",
					"name": "approved",
					"type": "bool"
				}
			],
			"name": "ApprovalForAll",
			"type": "event"
		},
		{
			"anonymous": false,
			"inputs": [
				{
					"indexed": true,
					"internalType": "address",
					"name": "previousOwner",
					"type": "address"
				},
				{
					"indexed": true,
					"internalType": "address",
					"name": "newOwner",
					"type": "address"
				}
			],
			"name": "OwnershipTransferred",
			"type": "event"
		},
		{
			"anonymous": false,
			"inputs": [
				{
					"indexed": true,
					"internalType": "address",
					"name": "from",
					"type": "address"
				},
				{
					"indexed": true,
					"internalType": "address",
					"name": "to",
					"type": "address"
				},
				{
					"indexed": true,
					"internalType": "uint256",
					"name": "tokenId",
					"type": "uint256"
				}
			],
			"name": "Transfer",
			"type": "event"
		},
		{
			"inputs": [
				{
					"internalType": "address",
					"name": "to",
					"type": "address"
				},
				{
					"internalType": "uint256",
					"name": "tokenId",
					"type": "uint256"
				}
			],
			"name": "approve",
			"outputs": [],
			"stateMutability": "nonpayable",
			"type": "function"
		},
		{
			"inputs": [
				{
					"internalType": "address",
					"name": "owner",
					"type": "address"
				}
			],
			"name": "balanceOf",
			"outputs": [
				{
					"internalType": "uint256",
					"name": "",
					"type": "uint256"
				}
			],
			"stateMutability": "view",
			"type": "function"
		},
		{
			"inputs": [
				{
					"internalType": "uint256",
					"name": "tokenId",
					"type": "uint256"
				}
			],
			"name": "close",
			"outputs": [],
			"stateMutability": "nonpayable",
			"type": "function"
		},
		{
			"inputs": [
				{
					"internalType": "uint256",
					"name": "tokenId",
					"type": "uint256"
				}
			],
			"name": "getApproved",
			"outputs": [
				{
					"internalType": "address",
					"name": "",
					"type": "address"
				}
			],
			"stateMutability": "view",
			"type": "function"
		},
		{
			"inputs": [
				{
					"internalType": "uint256",
					"name": "tokenId",
					"type": "uint256"
				}
			],
			"name": "getClosedAt",
			"outputs": [
				{
					"internalType": "uint256",
					"name": "",
					"type": "uint256"
				}
			],
			"stateMutability": "view",
			"type": "function"
		},
		{
			"inputs": [
				{
					"internalType": "uint256",
					"name": "tokenId",
					"type": "uint256"
				}
			],
			"name": "getFontSize",
			"outputs": [
				{
					"internalType": "uint256",
					"name": "",
					"type": "uint256"
				}
			],
			"stateMutability": "view",
			"type": "function"
		},
		{
			"inputs": [
				{
					"internalType": "uint256",
					"name": "tokenId",
					"type": "uint256"
				}
			],
			"name": "getOpenedAt",
			"outputs": [
				{
					"internalType": "uint256",
					"name": "",
					"type": "uint256"
				}
			],
			"stateMutability": "view",
			"type": "function"
		},
		{
			"inputs": [
				{
					"internalType": "address",
					"name": "owner",
					"type": "address"
				},
				{
					"internalType": "address",
					"name": "operator",
					"type": "address"
				}
			],
			"name": "isApprovedForAll",
			"outputs": [
				{
					"internalType": "bool",
					"name": "",
					"type": "bool"
				}
			],
			"stateMutability": "view",
			"type": "function"
		},
		{
			"inputs": [
				{
					"internalType": "uint256",
					"name": "tokenId",
					"type": "uint256"
				}
			],
			"name": "isClosed",
			"outputs": [
				{
					"internalType": "bool",
					"name": "",
					"type": "bool"
				}
			],
			"stateMutability": "view",
			"type": "function"
		},
		{
			"inputs": [
				{
					"internalType": "string",
					"name": "name",
					"type": "string"
				},
				{
					"internalType": "string",
					"name": "description",
					"type": "string"
				},
				{
					"internalType": "string",
					"name": "topic",
					"type": "string"
				},
				{
					"internalType": "uint256",
					"name": "fontSize",
					"type": "uint256"
				}
			],
			"name": "mint",
			"outputs": [],
			"stateMutability": "nonpayable",
			"type": "function"
		},
		{
			"inputs": [],
			"name": "name",
			"outputs": [
				{
					"internalType": "string",
					"name": "",
					"type": "string"
				}
			],
			"stateMutability": "view",
			"type": "function"
		},
		{
			"inputs": [],
			"name": "owner",
			"outputs": [
				{
					"internalType": "address",
					"name": "",
					"type": "address"
				}
			],
			"stateMutability": "view",
			"type": "function"
		},
		{
			"inputs": [
				{
					"internalType": "uint256",
					"name": "tokenId",
					"type": "uint256"
				}
			],
			"name": "ownerOf",
			"outputs": [
				{
					"internalType": "address",
					"name": "",
					"type": "address"
				}
			],
			"stateMutability": "view",
			"type": "function"
		},
		{
			"inputs": [],
			"name": "renounceOwnership",
			"outputs": [],
			"stateMutability": "nonpayable",
			"type": "function"
		},
		{
			"inputs": [
				{
					"internalType": "uint256",
					"name": "tokenId",
					"type": "uint256"
				}
			],
			"name": "reopen",
			"outputs": [],
			"stateMutability": "nonpayable",
			"type": "function"
		},
		{
			"inputs": [
				{
					"internalType": "address",
					"name": "from",
					"type": "address"
				},
				{
					"internalType": "address",
					"name": "to",
					"type": "address"
				},
				{
					"internalType": "uint256",
					"name": "tokenId",
					"type": "uint256"
				}
			],
			"name": "safeTransferFrom",
			"outputs": [],
			"stateMutability": "nonpayable",
			"type": "function"
		},
		{
			"inputs": [
				{
					"internalType": "address",
					"name": "from",
					"type": "address"
				},
				{
					"internalType": "address",
					"name": "to",
					"type": "address"
				},
				{
					"internalType": "uint256",
					"name": "tokenId",
					"type": "uint256"
				},
				{
					"internalType": "bytes",
					"name": "data",
					"type": "bytes"
				}
			],
			"name": "safeTransferFrom",
			"outputs": [],
			"stateMutability": "nonpayable",
			"type": "function"
		},
		{
			"inputs": [
				{
					"internalType": "address",
					"name": "operator",
					"type": "address"
				},
				{
					"internalType": "bool",
					"name": "approved",
					"type": "bool"
				}
			],
			"name": "setApprovalForAll",
			"outputs": [],
			"stateMutability": "nonpayable",
			"type": "function"
		},
		{
			"inputs": [
				{
					"internalType": "uint256",
					"name": "tokenId",
					"type": "uint256"
				},
				{
					"internalType": "uint256",
					"name": "fontSize",
					"type": "uint256"
				}
			],
			"name": "setFontSize",
			"outputs": [],
			"stateMutability": "nonpayable",
			"type": "function"
		},
		{
			"inputs": [
				{
					"internalType": "bytes4",
					"name": "interfaceId",
					"type": "bytes4"
				}
			],
			"name": "supportsInterface",
			"outputs": [
				{
					"internalType": "bool",
					"name": "",
					"type": "bool"
				}
			],
			"stateMutability": "view",
			"type": "function"
		},
		{
			"inputs": [],
			"name": "symbol",
			"outputs": [
				{
					"internalType": "string",
					"name": "",
					"type": "string"
				}
			],
			"stateMutability": "view",
			"type": "function"
		},
		{
			"inputs": [
				{
					"internalType": "uint256",
					"name": "tokenId",
					"type": "uint256"
				}
			],
			"name": "tokenURI",
			"outputs": [
				{
					"internalType": "string",
					"name": "",
					"type": "string"
				}
			],
			"stateMutability": "view",
			"type": "function"
		},
		{
			"inputs": [
				{
					"internalType": "address",
					"name": "from",
					"type": "address"
				},
				{
					"internalType": "address",
					"name": "to",
					"type": "address"
				},
				{
					"internalType": "uint256",
					"name": "tokenId",
					"type": "uint256"
				}
			],
			"name": "transferFrom",
			"outputs": [],
			"stateMutability": "nonpayable",
			"type": "function"
		},
		{
			"inputs": [
				{
					"internalType": "address",
					"name": "newOwner",
					"type": "address"
				}
			],
			"name": "transferOwnership",
			"outputs": [],
			"stateMutability": "nonpayable",
			"type": "function"
		}
	]
}